S02F00002F686F6D652F73756E2F776F726B2F59544D5369676E546F6F6C2F696D616765732F7369676E65642E733139D0
S2140040000000012011490000975E0000995E000044
S2140040109B5E00009D5E00009F5E0000955E0000B7
S214004020955E0000955E0000955E0000A15E0000B3
S214004030A35E0000955E0000A55E000025850000DA
S21400404059700000637000006D700000777000000B
S214004050817000008B700000957000009F7000005B
S214004060A9700000B3700000BD700000C7700000AB
S214004070D1700000DB700000E5700000EF700000FB
S214004080F9700000A75E0000498000005D81000016
S214004090A95E0000AB5E0000AD5E0000AF5E0000F3
S2140040A0B15E0000B35E0000B55E0000B75E0000C3
S2140040B0B95E0000BB5E0000BD5E0000BF5E000093
S2140040C0955E0000C15E0000955E0000C35E0000C5
S2140040D0955E0000955E0000955E0000C55E0000DF
S2140040E0C75E0000C95E0000955E0000955E000099
S2140040F0CB5E0000955E0000CD5E0000CF5E000047
S214004100D15E0000D35E0000D55E0000D75E0000E2
S214004110D95E0000955E0000955E0000955E00008A
S214004120955E0000DB5E0000DD5E0000DF5E0000E6
S214004130555B0000E15E0000E35E0000E55E000007
S214004140955E0000955E0000955E0000955E00009E
S214004150E75E0000955E0000955E0000955E00003C
S214004160955E0000955E0000955E0000955E00007E
S214004170955E0000955E0000E95E0000EB5E0000C4
S214004180ED5E0000EF5E0000F15E0000F35E0000F2
S214004190F55E0000F75E0000F95E0000FB5E0000C2
S2140041A0FD5E0000FF5E0000015F0000035F000090
S2140041B0055F0000075F0000095F00000B5F00005E
S2140041C00D5F00000F5F0000115F0000135F00002E
S2140041D0155F0000175F0000195F00001B5F0000FE
S2140041E01D5F00001F5F0000215F0000235F0000CE
S2140041F0255F0000275F0000295F00002B5F00009E
S2140042002D5F00002F5F0000315F0000335F00006D
S214004210355F0000375F0000395F00003B5F00003D
S2140042203D5F00003F5F0000415F0000435F00000D
S214004230455F0000475F0000495F00004B5F0000DD
S2140042404D5F00004F5F0000515F0000535F0000AD
S214004250555F0000575F0000595F0000955E000044
S214004260955E0000955E0000955E0000955E00007D
S214004270955E0000955E0000955E0000955E00006D
S214004280955E0000955E0000955E0000955E00005D
S214004290955E0000955E0000955E0000955E00004D
S2140042A0955E0000955E0000955E0000955E00003D
S2140042B05B5F0000D57F00005D5F00005F5F000071
S2140042C0615F0000635F0000655F0000675F0000DD
S2140042D0695F00006B5F00006D5F00006F5F0000AD
S2140042E0715F0000735F0000755F0000775F00007D
S2140042F0795F00007B5F00007D5F00007F5F00004D
S214004300955E0000955E0000815F0000835F000000
S214004310855F0000875F0000895F0000955E0000F3
S214004320955E00008B5F00008D5F00008F5F0000D1
S210004330915F0000935F0000955F0000A6
S21400440006000000E1FF13005365637572652062C5
S2140044106F6F742064656D6F210A0000536F6674B9
S21400442077617265206B6579206D69736D61746361
S21400443068210A004861726477617265206B65794D
S214004440206D69736D61746368210A0048435520C6
S2140044506B6579206C6F6164207375636365737335
S214004460210A0000526564204C4544206D65616E4B
S21400447073204C4F434B2C20616E64206772656539
S2140044806E204C4544206D65616E7320554E4C4F32
S214004490434B210D0A00000050726573732053577A
S2140044A03220746F2064697361626C6520535744D0
S2140044B020616E64207072657373205357332074C6
S2140044C06F20656E61626C6520535744210D0A00AB
S2140044D04C6F636B2063686970206661696C656405
S2140044E0210D0A0044697361626C652053574420AD
S2140044F0616E64206C6F636B2063686970210D0ABF
S21400450000000000556E6C6F636B20636869702056
S2140045106661696C6564210D0A000000456E616283
S2140045206C652053574420616E6420756E6C6F6313
S2140045306B2063686970210D0A0000004375727273
S214004540656E7420636F756E7465722069732025BE
S214004550640A000084578DC48816BBF618ACF6A112
S21400456013B4DAEEF3B8CB39258CAB7F501E1C3B68
S214004570D0E9538C153027DF13F90336278D29D45D
S214004580FAF691BBD0315BF9F1DF5390EF424A2146
S2140045900D082AF216157E2BA6D2AE288815F7AB84
S2080045A03C4FCF09AF
S2140045B4000102030405060708090A0B0C0D0E0F7A
S2130045D400112233445566778899AABBCCDDEEDA
S2140045F41032547698BADCFE67452301EFCDAB89BA
S2140046147223E1AD2331D2FE411F23AF9810F2CDB1
S21400462416157E2B0C0D0E0FFFFFFFFFFFFFFFFF7F
S2140046343423FCAE2421FE34FE053821C2B2EF2317
S2140046442331D2FE445566773423FCAEEFCDAB89D6
S214004654E2BEC16B969F402E117E3DE92A179373E6
S214004664578A2DAE9CAC031EAC6FB79E518EAF45D9
S214004674461CC83011E45CA319C1FBE5EF520A1AC4
S21400468445249FF6179B4FDF7B412BAD10376CE616
S21400469401010000150240010101000000050003AD
S2140046A4010100004006C003010100004001C000F3
S2140046B401010101000100000100050000366E0141
S2140046C40000000000000000000000000080000061
S2140046D401000A0100000203000001050020014059
S2140046E408000000000000000200000000000000B7
S2140046F400100140000000000020014009000000F6
S214004704000000000200000000000000001001404D
S214004714000000000030014002000000000000001D
S214004724010A000000000000001101400000000023
S214004734003001400300000000000000010A0000F1
S214004744000000000011014000000000003001409D
S214004754040000000000000001000000000000004B
S2140047640011014001010000003001400500000076
S21400477400000000010000000000000000110140DD
S2140047840101000000600140080000000000000075
S21400479401000000000000000014014001010000B8
S2140047A49009FF1F88970000E098000001000000B1
S2140047B4E80AFF1FE09800000999000001000000C5
S2140047C400C201000000000101010000000000001A
S2140047D408000F001000110012001300140015004A
S2140047E416001B001C001D001E001F0020002300D6
S2140047F4240025002A002B002C002D002E002F005C
S2140048043000340038003C003D003E0040004100CB
S214004814430046004700480049004A004B004C004D
S2140048244D004E0054005A005D00600061006200B6
S2140048346500660067006A006B007100720077000E
S2140048447B007C007E007F00800081008200830065
S21400485484008500860087008800890000B0014037
S21400486400C0014000D0014000E0014000F00140DB
S2140048740000024044444444444400001F00210015
S2140048842300A300A400A500A9780000B3780000C4
S214004894BD780000C7780000D1780000DB780000FF
S2140048A4666E692B00000000666E69006E616E001D
S2140048B4666E692D00000000000000000000000085
S2140048C40000F03F0000000000002440000000004C
S2140048D4000059400000000000408F400000000027
S2140048E40088C34000000000006AF8400000000092
S2140048F480842E4100000000D012634100000000B6
S21400490484D797410000000065CDCD4172B64FF0C4
S21400491400014FF000024FF000034FF000044FF088
S21400492400054FF000064FF00007B846B946BA46F1
S214004934BB46BC4600F018F806488546064880473D
S21400494406488047064880470648804762B601F016
S2140049546BF9FEE700000120995F00005D5E000031
S214004964918400009D60000014490C684FF0010318
S2140049741C401349134A521A013A06DD4FF05A30C6
S2140049844FF05A3309C1083AFCDA0F490F4A521A53
S214004994013A06DD4FF05A304FF05A3309C1083A4F
S2140049A4FCDA0B490B4A521A013A06DD4FF05A302C
S2140049B44FF05A3309C1083AFCDA704700F0074052
S2140049C40000FF1F0004FF1F00FC00200000012061
S2140049D40004FF1F00FC002081F0004102E000BF3D
S2140049E483F0004330B54FEA41044FEA430594EAA6
S2140049F4050F08BF90EA020F1FBF54EA000C55EAE1
S214004A04020C7FEA645C7FEA655C00F0E2804FEAB1
S214004A145454D4EB5555B8BF6D420CDD2C4480EA93
S214004A24020281EA030382EA000083EA010180EAC3
S214004A34020281EA0303362D88BF30BD11F0004F11
S214004A444FEA01314FF4801C4CEA113102D0404247
S214004A5461EB410113F0004F4FEA03334CEA133382
S214004A6402D0524263EB430394EA050F00F0A7809A
S214004A74A4F10104D5F1200E0DDB02FA0EFC22FA95
S214004A8405F2801841F1000103FA0EF2801843FA89
S214004A9405F359410EE0A5F120050EF1200E012A7A
S214004AA403FA0EFC28BF4CF0020C43FA05F3C018B8
S214004AB451EBE37101F0004507D54FF0000EDCF131
S214004AC4000C7EEB00006EEB0101B1F5801F1BD3DA
S214004AD4B1F5001F0CD349085FEA30004FEA3C0CDE
S214004AE404F101044FEA445212F5800F80F09A80D4
S214004AF4BCF1004F08BF5FEA500C50F1000041EBD8
S214004B04045141EA050130BD5FEA4C0C404141EBDB
S214004B140101013C28BFB1F5801FE9D291F0000FD6
S214004B2404BF01460020B1FA81F308BF2033A3F185
S214004B340B03B3F120020CDA0C3208DD02F1140C7C
S214004B44C2F10C0201FA0CF021FA02F10CE002F1B7
S214004B541402D8BFC2F1200C01FA02F120FA0CFCB0
S214004B64DCBF41EA0C019040E41AA2BF01EB0451F9
S214004B74294330BD6FEA04041F3C1CDA0C340EDCF7
S214004B8404F11404C4F1200220FA04F001FA02F33A
S214004B9440EA030021FA04F345EA030130BDC4F1F8
S214004BA40C04C4F1200220FA02F001FA04F340EAED
S214004BB40300294630BD21FA04F0294630BD94F09E
S214004BC4000F83F4801306BF81F480110134013D85
S214004BD44EE77FEA645C18BF7FEA655C29D094EAF6
S214004BE4050F08BF90EA020F05D054EA000C04BF74
S214004BF41946104630BD91EA030F1EBF002100205F
S214004C0430BD5FEA545C05D14000494128BF41F0FD
S214004C14004130BD14F580043CBF01F5801130BD61
S214004C2401F0004545F0FE4141F470014FF00000EC
S214004C3430BD7FEA645C1ABF194610467FEA655C9D
S214004C441CBF0B46024650EA013406BF52EA03353F
S214004C5491EA030F41F4002130BD00BF90F0000F2D
S214004C6404BF0021704730B54FF4806404F1320469
S214004C744FF000054FF0000150E700BF90F0000F22
S214004C8404BF0021704730B54FF4806404F1320449
S214004C9410F0004548BF40424FF000013EE700BF19
S214004CA442004FEAE2014FEA31014FEA02701FBFA9
S214004CB412F07F4393F07F4F81F06051704732F0DB
S214004CC47F4208BF704793F07F4F04BF41F4002132
S214004CD4704730B54FF4607401F0004521F0004190
S214004CE41CE700BF50EA010208BF704730B54FF01A
S214004CF400050AE050EA010208BF704730B511F01B
S214004D04004502D5404261EB41014FF4806404F152
S214004D1432045FEA915C3FF4D8AE4FF003025FEAD8
S214004D24DC0C18BF03325FEADC0C18BF033202EB5C
S214004D34DC02C2F1200300FA03FC20FA02F001FAB6
S214004D4403FE40EA0E0021FA02F11444BDE600BF59
S214004D5470B54FF0FF0C4CF4E06C1CEA11541DBF08
S214004D641CEA135594EA0C0F95EA0C0F00F0DEF8D3
S214004D742C4481EA030621EA4C5123EA4C5350EAB8
S214004D84013518BF52EA033541F4801143F4801309
S214004D9438D0A0FB02CE4FF00005E1FB02E506F09A
S214004DA40042E0FB03E54FF00006E1FB03569CF0EF
S214004DB4000F18BF4EF0010EA4F1FF04B6F5007FF5
S214004DC464F5407404D25FEA4E0E6D4146EB060667
S214004DD442EAC62141EA55514FEAC52040EA5E50F0
S214004DE44FEACE2EB4F1FD0C88BFBCF5E06F1ED89A
S214004DF4BEF1004F08BF5FEA500E50F1000041EBD1
S214004E04045170BD06F0004646EA010140EA02007D
S214004E1481EA0301B4EB5C04C2BFD4EB0C0541EA9F
S214004E24045170BD41F480114FF0000E013C00F3B4
S214004E34AB8014F1360FDEBF002001F0004170BDD8
S214004E44C4F10004203C35DA0C341BDC04F11404F1
S214004E54C4F1200500FA05F320FA04F001FA05F27D
S214004E6440EA020001F0004221F0004110EBD3704A
S214004E7421FA04F642EB06015EEA430E08BF20EA76
S214004E84D37070BDC4F10C04C4F1200500FA04F319
S214004E9420FA05F001FA04F240EA020001F00041AB
S214004EA410EBD37041F100015EEA430E08BF20EA1E
S214004EB4D37070BDC4F1200500FA05F24EEA020E66
S214004EC420FA04F301FA05F243EA020321FA04F095
S214004ED401F0004121FA04F220EA020000EBD3704C
S214004EE45EEA430E08BF20EAD37070BD94F0000F4C
S214004EF40FD101F00046400041EB010111F4801F80
S214004F0408BF013CF7D041EA060195F0000F18BF30
S214004F14704703F00046520043EB030313F4801F6C
S214004F2408BF013DF7D043EA0603704794EA0C0F26
S214004F340CEA135518BF95EA0C0F0CD050EA41063C
S214004F4418BF52EA4306D1D181EA030101F00041B9
S214004F544FF0000070BD50EA410606BF10461946E1
S214004F6452EA430619D094EA0C0F02D150EA0136ED
S214004F7413D195EA0C0F05D152EA03361CBF10462E
S214004F8419460AD181EA030101F0004141F0FE41CD
S214004F9441F470014FF0000070BD41F0FE4141F451
S214004FA4780170BD70B54FF0FF0C4CF4E06C1CEA51
S214004FB411541DBF1CEA135594EA0C0F95EA0C0F06
S214004FC400F0A7F8A4EB050481EA030E52EA0335C1
S214004FD44FEA013100F088804FEA03334FF08055E2
S214004FE445EA131343EA12634FEA022245EA11150F
S214004FF445EA10654FEA00260EF000419D4208BFC0
S214005004964244F1FD0404F5407402D25B084FEA6C
S2140050143202B61A65EB03055B084FEA32024FF418
S21400502480104FF4002CB6EB020E75EB030E22BF75
S214005034B61A754640EA0C005B084FEA3202B6EB35
S214005044020E75EB030E22BFB61A754640EA5C00E4
S2140050545B084FEA3202B6EB020E75EB030E22BF74
S214005064B61A754640EA9C005B084FEA3202B6EB75
S214005074020E75EB030E22BFB61A754640EADC0034
S21400508455EA060E18D04FEA051545EA16754FEA96
S21400509406164FEAC30343EA52734FEAC2025FEAB4
S2140050A41C1CC0D111F4801F0BD141EA00014FF043
S2140050B400004FF0004CB6E711F4801F04BF014314
S2140050C40020B4F1FD0C88BFBCF5E06F3FF6AFAE30
S2140050D4B5EB030C04BFB6EB020C5FEA500C50F1C0
S2140050E4000041EB045170BD0EF0004E4EEA113143
S2140050F414EB5C04C2BFD4EB0C0541EA045170BD4A
S21400510441F480114FF0000E013C90E645EA060E8D
S2140051148DE60CEA135594EA0C0F08BF95EA0C0FBB
S2140051243FF43BAF94EA0C0F0AD150EA01347FF403
S21400513434AF95EA0C0F7FF425AF104619462CE7DA
S21400514495EA0C0F06D152EA03353FF4FDAE10463D
S214005154194622E750EA410618BF52EA43067FF48E
S214005164C5AE50EA41047FF40DAF52EA43057FF41E
S214005174EBAE12E74FF0FF3C06E000BF4FF0010C29
S21400518402E000BF4FF0010C4DF804CD4FEA410C8D
S2140051947FEA6C5C4FEA430C18BF7FEA6C5C1BD05A
S2140051A401B050EA410C0CBF52EA430C91EA030FDB
S2140051B402BF90EA020F0020704710F1000F91EA38
S2140051C4030F58BF994208BF90422CBFD8176FEA06
S2140051D4E37040F0010070474FEA410C7FEA6C5CD4
S2140051E402D150EA013C07D14FEA430C7FEA6C5CDB
S2140051F4D6D152EA033CD3D05DF8040B704700BF07
S2140052048446104662468C461946634600E000BF54
S21400521401B5FFF7B7FF002848BF10F1000F01BD26
S2140052244DF808EDFFF7F4FF0CBF012000205DF8F1
S21400523408FB00BF4DF808EDFFF7EAFF34BF012076
S21400524400205DF808FB00BF4DF808EDFFF7E0FF0F
S21400525494BF012000205DF808FB00BF4DF808ED60
S214005264FFF7CEFF94BF012000205DF808FB00BFC7
S2140052744DF808EDFFF7C4FF34BF012000205DF8A9
S21400528408FB00BF4FEA410212F5001215D211D5F1
S2140052946FF47873B3EB625212D94FEAC12343F02A
S2140052A4004343EA505311F0004F23FA02F018BFAC
S2140052B4404270474FF00000704750EA013005D175
S2140052C411F0004008BF6FF0004070474FF0000038
S2140052D4704700BF4A0011D212F5001211D20DD544
S2140052E46FF47873B3EB62520ED44FEAC12343F0E3
S2140052F4004343EA505323FA02F070474FF000008D
S214005304704750EA013002D14FF0FF3070474FF03B
S2140053140000704780F0004002E000BF81F00041CA
S21400532442001FBF5FEA410392EA030F7FEA226C42
S2140053347FEA236C6AD04FEA1262D2EB1363C1BFD2
S214005344D218414048404140B8BF5B42192B88BF41
S214005354704710F0004F40F4000020F07F4018BF64
S214005364404211F0004F41F4000121F07F4118BF84
S214005374494292EA030F3FD0A2F1010241FA03FC2C
S21400538410EB0C00C3F1200301FA03F100F0004314
S21400539402D5494260EB4000B0F5000F13D3B0F1DC
S2140053A4807F06D340084FEA310102F10102FE2A4B
S2140053B451D2B1F1004F40EBC25008BF20F00100BB
S2140053C440EA03007047490040EB0000013A28BF5A
S2140053D4B0F5000FEDD2B0FA80FCACF1080CB2EBDD
S2140053E40C0200FA0CF0AABF00EBC250524218435B
S2140053F4BCBFD0401843704792F0000F81F4000100
S21400540406BF80F400000132013BB5E74FEA4103D2
S2140054147FEA226C18BF7FEA236C21D092EA030F3E
S21400542404D092F0000F08BF0846704790EA010FB8
S2140054341CBF0020704712F07F4F04D1400028BFE5
S21400544440F00040704712F100723CBF00F50000C7
S214005454704700F0004343F0FE4040F400007047FD
S2140054647FEA226216BF08467FEA236301464202A9
S21400547406BF5FEA412390EA010F40F480007047BC
S2140054844FF0000304E000BF10F0004348BF404262
S2140054945FEA000C08BF704743F0964301464FF09E
S2140054A400001CE050EA010208BF70474FF00003FA
S2140054B40AE000BF50EA010208BF704711F000433B
S2140054C402D5404261EB41015FEA010C02BF84460B
S2140054D40146002043F0B64308BFA3F18053A3F56A
S2140054E40003BCFA8CF2083AA3EBC25310DB01FAB1
S2140054F402FC634400FA02FCC2F12002BCF1004F35
S21400550420FA02F243EB020008BF20F001007047C5
S21400551402F1200201FA02FCC2F1200250EA4C0019
S21400552421FA02F243EB020008BF20EADC7070475F
S2140055344FF0FF0C1CEAD0521EBF1CEAD15392EA6D
S2140055440C0F93EA0C0F6FD01A4480EA010C400249
S21400555418BF5FEA41211ED04FF0006343EA5010A3
S21400556443EA5111A0FB01310CF00040B1F5000FE5
S2140055743EBF490041EAD3715B0040EA010062F194
S2140055847F02FD2A1DD8B3F1004F40EBC25008BF7E
S21400559420F00100704790F0000F0CF0004C08BF9C
S2140055A449024CEA502040EA51207F3AC2BFD2F169
S2140055B4FF0340EAC250704740F400004FF0000377
S2140055C4013A5DDC12F1190FDCBF00F000407047B1
S2140055D4C2F10002410021FA02F1C2F1200200FAEF
S2140055E402FC5FEA310040F1000053EA4C0308BFB6
S2140055F420EADC70704792F0000F00F0004C02BF07
S214005604400010F4000F013AF9D040EA0C0093F081
S214005614000F01F0004C02BF490011F4000F013BDB
S214005624F9D041EA0C018FE70CEAD15392EA0C0F49
S21400563418BF93EA0C0F0AD030F0004C18BF31F0B4
S214005644004CD8D180EA010000F00040704790F08A
S214005654000F17BF90F0004F084691F0000F91F02E
S214005664004F14D092EA0C0F01D142020FD193EAF4
S2140056740C0F03D14B0218BF084608D180EA01007C
S21400568400F0004040F0FE4040F40000704740F058
S214005694FE4040F4400070474FF0FF0C1CEAD05226
S2140056A41EBF1CEAD15392EA0C0F93EA0C0F69D082
S2140056B4A2EB030280EA010C49024FEA402037D0ED
S2140056C44FF0805343EA111143EA10130CF00040E4
S2140056D48B4238BF5B0042F17D024FF4000C8B42D4
S2140056E424BF5B1A40EA0C00B3EB510F24BFA3EBB4
S2140056F4510340EA5C00B3EB910F24BFA3EB910384
S21400570440EA9C00B3EBD10F24BFA3EBD10340EADD
S214005714DC001B0118BF5FEA1C1CE0D1FD2A3FF623
S21400572450AF8B4240EBC25008BF20F001007047D8
S2140057340CF0004C4CEA50207F32C2BFD2F1FF037B
S21400574440EAC250704740F400004FF00003013AAC
S21400575437E792F0000F00F0004C02BF400010F450
S214005764000F013AF9D040EA0C0093F0000F01F064
S214005774004C02BF490011F4000F013BF9D041EA86
S2140057840C0195E70CEAD15392EA0C0F08D14202B9
S2140057947FF47DAF93EA0C0F7FF470AF084676E78C
S2140057A493EA0C0F04D14B023FF44CAF08466EE765
S2140057B430F0004C18BF31F0004CCAD130F0004233
S2140057C47FF45CAF31F000437FF43CAF5FE700BF8B
S2140057D442000ED2B2F1FE4F0BD34FF09E03B3EB52
S2140057E4126209D44FEA002343F0004323FA02F07E
S2140057F470474FF00000704712F1610F01D142026A
S21400580402D14FF0FF3070474FF00000704700BFE2
S21400581453B94AB9002908BF00281CBF4FF0FF310E
S2140058244FF0FF3000F080B9ADF1080C6DE904CEFE
S21400583400F006F8DDF804E0DDE9022304B0704762
S2140058442DE9F04F099E0D4604460F46002B47D11E
S2140058548A4294465FD9B2FA82F343B1C3F1200177
S2140058649F4002FA03FC9C4020FA01F10F434FEAE2
S2140058741C451FFA8CFE220CB7FBF5F105FB1177CD
S21400588401FB0EF042EA0742904208D91CEB0202E2
S21400589401F1FF3702D2904200F234813946121ADF
S2140058A4A4B2B2FBF5F005FB102200FB0EFE44EAA0
S2140058B40244A64508D91CEB040400F1FF3202D2C8
S2140058C4A64500F21981104640EA0140A4EB0E04F6
S2140058D400211EB1DC400023C6E90043BDE8F08F7A
S2140058E48B4208D9002E00F0FB800021C6E9000593
S2140058F40846BDE8F08FB3FA83F100294BD1AB42DA
S214005904C0F0F180824240F2EE800846002EE5D0D8
S214005914C6E90047E2E702B9FFDEB2FA82F3002BDB
S21400592440F09D808D1A4FEA124E97B20121B5FBC6
S214005934FEF20EFB1250250C45EA004507FB02F06A
S214005944A8420FD91CEB050502F1FF382CBF4FF017
S21400595401094FF00009A84203D9B9F1000F00F07D
S214005964CE8042462D1AA4B2B5FBFEF00EFB1055AF
S21400597400FB07F744EA0544A74208D91CEB0404D5
S21400598400F1FF3502D2A74200F2B3802846E41B9A
S21400599440EA02409DE7C1F120078B4005FA01F476
S2140059A422FA07FCFD408A404CEA030C20FA07F36F
S2140059B44FEA1C491C431FFA8CFE00FA01F3200C24
S2140059C4B5FBF9F809FB185540EA054508FB0EF047
S2140059D4A8420FD91CEB050508F1FF3A2CBF4FF07F
S2140059E4010B4FF0000BA84203D9BBF1000F00F0E7
S2140059F48C80D0462D1AA4B2B5FBF9F009FB1055DD
S214005A0400FB0EFE44EA0545AE4507D91CEB05052A
S214005A1400F1FF3401D2AE457ED8204640EA084065
S214005A24A5EB0E05A0FB029845454C46C64602D398
S214005A3406D14B4504D20138B9EB020468EB0C0ED0
S214005A44002E6FD01A1B65EB0E0522FA01F305FA39
S214005A5407F7CD4000211F43C6E900753EE702FA6A
S214005A6403FCC3F1200001FA03F24FEA1C4EC140C6
S214005A7424FA00F51FFA8CF79C401543B1FBFEF0A0
S214005A842A0C0EFB101142EA014200FB07F1914278
S214005A940ED91CEB020200F1FF382CBF4FF00109AF
S214005AA44FF00009914202D9B9F1000F31D04046B7
S214005AB4521AADB2B2FBFEF10EFB112245EA0245C4
S214005AC401FB07F2AA4207D91CEB050501F1FF38D2
S214005AD401D2AA4223D84146AD1A41EA004126E73C
S214005AE431463046FAE6841A65EB030301201F4666
S214005AF40CE7644402384AE764440238E4E6023AAF
S214005B0465442FE702396244C9E6A8F102086544F1
S214005B1470E702386244CBE7023865447EE7023910
S214005B246544D9E73146D9E6704700BFBFF34F8FC7
S214005B340549CA6802F4E062044B1343CB60BFF322
S214005B444F8F00BFFDE700BF00ED00E00400FA053C
S214005B5408B5154800F036FF10F0040F09D11248B6
S214005B6400F030FF10F0080F10D10F4800F02CFFA3
S214005B7408BD4FF480710D4800F02CFF20210A4820
S214005B8400F026FF0A4B01221A60E8E74FF4807102
S214005B94064800F01DFF2021034800F01BFF044BBD
S214005BA402221A60E1E700BF001101400014014020
S214005BB40004FF1F10B500F0DBFF154B154AC3F8B1
S214005BC40422154C23464FF480621449002002F048
S214005BD4C1FB00F0BFFF2368B3F15A3F03D16368EB
S214005BE4B3F15A3F09D04FF480710D4800F0F0FE2F
S214005BF420210C4800F0EEFE10BD4FF480710848DA
S214005C0400F0E8FE2021074800F0E2FEF4E700BFBB
S214005C140000014032FF4D004404FF1F0000031043
S214005C2400140140001101402DE9F84F00236E4A8C
S214005C3401216E4800F07EFB0021084600F030FE8D
S214005C446B49072000F0AEFE6A496B4802F04AF83A
S214005C546A4A6B49002002F0A3FA00F01EFA00F02C
S214005C6429FA684803F06AFD00F082FF4FF080517D
S214005C74002002F0C7FB00F06DFF634C634E224623
S214005C844021304602F094F80021614802F05AF8A8
S214005C94604D2A464021304602F08AF82B465E487C
S214005CA42246403553F8044B50F8041B8C4216D158
S214005CB452F8044BA14216D1AB42F3D1574803F035
S214005CC43DFDFFF777FF564803F038FD554803F0CF
S214005CD435FD0026544D554FDFF854814CE05548A9
S214005CE403F02CFDEDE7544803F028FDE9E74FF0F8
S214005CF40009C5F8009000F03BFF504BC8F804328A
S214005D04DFF83CA1DFF83CB153464FF480625946B5
S214005D14484602F01FFB04465946484602F07AFA03
S214005D240443A4B24FF05A33CAF80030CAF8043019
S214005D3453464FF480625946484602F0ADFA04438F
S214005D44A4B200F007FF1CB13F4803F0F7FC13E0D1
S214005D543E4803F0F3FCFFF7E9FE3D4803F0EEFC93
S214005D64FFF7E4FE741C3146384603F0E7FC4FF4B4
S214005D747A7002F0DDFB26462B68012BB7D02B6821
S214005D84022BEFD14FF00009C5F8009000F0F0FEAA
S214005D942A4BC8F80432DFF8A8A0DFF8A8B05346A8
S214005DA44FF480625946484602F0D4FA04465946EF
S214005DB4484602F02FFA0443A4B24FF0FF33CAF861
S214005DC40030CAF8043053464FF4806259464846B9
S214005DD402F062FA0443A4B200F0BCFE002CBCD06D
S214005DE41C4803F0ABFCC7E78408FF1F040BFF1F27
S214005DF4E0460000C808FF1FD04700001809FF1F30
S214005E041009FF1F084400000404FF1F5446000046
S214005E14944500004408FF1F544500004C4400000D
S214005E2464440000984400000004FF1F3C45000042
S214005E34000001401C4400003444000032FF4D00C2
S214005E444404FF1F00000310D0440000E444000094
S214005E541C450000044500000A4A0B4B9B1A4FEAF7
S214005E64930C0A494FF0E020C0F8081D032B07D90D
S214005E74002352F8040B41F8040B01339C45F8D870
S214005E84704700BF004000003C4300000000FF1FB6
S214005E94FEE7FEE7FEE7FEE7FEE7FEE7FEE7FEE7D1
S214005EA4FEE7FEE7FEE7FEE7FEE7FEE7FEE7FEE7C1
S214005EB4FEE7FEE7FEE7FEE7FEE7FEE7FEE7FEE7B1
S214005EC4FEE7FEE7FEE7FEE7FEE7FEE7FEE7FEE7A1
S214005ED4FEE7FEE7FEE7FEE7FEE7FEE7FEE7FEE791
S214005EE4FEE7FEE7FEE7FEE7FEE7FEE7FEE7FEE781
S214005EF4FEE7FEE7FEE7FEE7FEE7FEE7FEE7FEE771
S214005F04FEE7FEE7FEE7FEE7FEE7FEE7FEE7FEE760
S214005F14FEE7FEE7FEE7FEE7FEE7FEE7FEE7FEE750
S214005F24FEE7FEE7FEE7FEE7FEE7FEE7FEE7FEE740
S214005F34FEE7FEE7FEE7FEE7FEE7FEE7FEE7FEE730
S214005F44FEE7FEE7FEE7FEE7FEE7FEE7FEE7FEE720
S214005F54FEE7FEE7FEE7FEE7FEE7FEE7FEE7FEE710
S214005F64FEE7FEE7FEE7FEE7FEE7FEE7FEE7FEE700
S214005F74FEE7FEE7FEE7FEE7FEE7FEE7FEE7FEE7F0
S214005F84FEE7FEE7FEE7FEE7FEE7FEE7FEE7FEE7E0
S214005F94FEE70000F0B583B03A4B1D68002300937B
S214005FA402230093009B002B3ED005F00105364CDF
S214005FB44FF0000C31E055B35668116893689B1B8C
S214005FC403F003028DF807209DF807209B1A5FEA6A
S214005FD4930E09D0331F0A1F03EB8E0753F8040FE2
S214005FE442F8040FBB42F9D14FEA8E039DF807200E
S214005FF46AB1F218581E0144164612F8013B01F81D
S214006004013F9DF80730DBB2901B8342F5D80CF1B4
S214006014010C009B1034634506D92246237B022BD1
S214006024C9D0002BF3D0C7E701230093009B33B3FA
S214006034164C174A121B02F003038DF807309DF81E
S2140060440730D21A920807D004EB820023460021B8
S21400605443F8041B9842FBD192009DF807306BB1BD
S2140060640C4810440025034600F8015F9DF807100D
S214006074C9B202331B1B9B1A9942F4D8009B03B087
S214006084F0BD00BF00F00740A44700000004FF1F57
S2140060948C09FF1FFF03FF1F704708B500F068FD5B
S2140060A400213C2000F06CFD3C2000F045FD00F093
S2140060B451FD08BD08B5034A0349022001F0BCF9A6
S2140060C408BD00BFC44700008808FF1F00B583B0A2
S2140060D48DF8070001220DF10701022001F09AFA5B
S2140060E403B05DF804FB00000A490A6822F00302C4
S2140060F400F0030313430B604FF470528B6803F0F5
S2140061040303984204D0013AF8D140F601207047C0
S2140061140020704700C0074030B5184A9569936957
S21400612423F4706343F4807393614FF4705C01202E
S2140061348646144603E00F2B08BF4FF0FF3E00EBE5
S2140061440E03D8B25BB2A26812F0080F11D1BCF1EC
S214006154010C0BD0A16921F47061020202F4706292
S2140061640A43A261012BE6D19E46E8E740F60620E4
S21400617400E00020014B9D6130BD00BF00C0074019
S214006184104B9B6813F0200F17D00E4B1B6A13F0AE
S214006194100F06BF0C4B1A680C4A0A490B6A096AA8
S2140061A4C3F303230133B2FBF3F3C1F3054202FB4B
S2140061B403335B08036000207047002303604FF43A
S2140061C48070704700C007405809FF1F00D8B80504
S2140061D438B504460D463B283CD8504B33F810409F
S2140061E4A40004F1804404F5FA24236813F0010F94
S2140061F40AD02368C3F30223013B042B27D8DFE825
S21400620403F00814181D220000230B604FF480705E
S2140062140AE0434B0B6000202368C3F303430133B7
S2140062242A68B2FBF3F32B6038BD3E4B0B600020AC
S214006234F2E73D4B1B680B600020EDE73B4B1B6809
S2140062440B600020E8E70846FFF79AFFE4E7002023
S2140062540860E1E7412821D8A0F13D04042C1AD8AF
S214006264DFE804F003070B1015002E4B0B6000202C
S214006274DAE72B4B0B600020D6E72B4B1B680B6032
S2140062840020D1E7294B1B680B600020CCE70846AA
S214006294FFF776FFC8E700200860C5E745283AD828
S2140062A4234B9B6803F00303032B31D8DFE803F08A
S2140062B40223272C1A4B0B6000201D4BDB68C3F30C
S2140062C403435A1C2B68B3FBF2F32B60432CABD06E
S2140062D4174AD268C2F303220132B3FBF2F32B60EF
S2140062E4452CA1D1124AD26802F00F020132B3FB48
S2140062F4F2F32B6098E70846FFF742FFDDE70A4B08
S2140063041B680B600020D8E7064B0B600020D4E720
S21400631400200860D1E7002086E700BFD4470000CD
S21400632400D8B805001BB7005809FF1F5C09FF1FFB
S21400633400C0074010B4044C20602171A26023738F
S2140063446373002010BC70474809FF1F08B5FFF7A9
S2140063543FFF08BDF0B583B0864658B343684BB3D9
S21400636403683BB34FF0000C9C4CDEF8043013F883
S2140063742C3034F813309B0003F1804303F5FA23E2
S2140063841A6822F001021A60DEF8041001EB8C0190
S2140063948A78120202F4E062C878000400F47020DE
S2140063A4024349780A431A600CF1010CDEF8003007
S2140063B49C45DAD3DEF80840002C00F03982DEF87B
S2140063C40C60874B00221A645A6C5A640320FFF749
S2140063D48BFE0546002840F0D281814B5B6923F092
S2140063E402032278002A14BF0222002213437C4AA6
S2140063F45361536923F004036278002A14BF04220D
S21400640400221343764A5361536923F00803A278A3
S214006414002A14BF082200221343714A53611169EB
S21400642421F00101E3780B431361136923F002039F
S2140064342279002A14BF022200221343684A1361F9
S214006444002E00F0AB80B289654B1A65F2895A6556
S2140064541A6CB17A22F4003242EA41421A641A6C87
S214006464717A22F4007242EA41221A641A6C317A72
S21400647422F0020242EA41021A64237D002B00F055
S214006484A180574AD36923F01003A17D81F001014E
S21400649443EA0113D361D36923F00403E27D002A9F
S2140064A414BF0422002213434D4AD361D36923F058
S2140064B40203227E002A14BF022200221343484A03
S2140064C4D361D36923F00803627E002A14BF08222E
S2140064D400221343424AD361D16921F00101237D8E
S2140064E40B43D361E2693F4B1A60237A002B00F01A
S2140064F4A0803B4A916921F47061A37A1B0203F4DD
S21400650470630B439361936923F48053617A81F03B
S214006514010143EA01339361926922F40052237C19
S214006524002B14BF4FF4005300231A432C4B9A61DC
S2140065349A6922F01002617A81F0010142EA01129E
S2140065449A619A6942F001029A61FFF7E5FD844672
S214006554002840D1E268244B1A600121002E45D061
S214006564B28B1F4B1A66F28B5A661A6CB07E22F4F4
S214006574002242EAC0421A641A6C707E22F4006258
S21400658442EAC0221A641A6C307E22F0080242EAFA
S214006594C0021A64002954D16546F0E0104B4FF44B
S2140065A4A0621A654FF440725A651A6C22F40032DF
S2140065B41A641A6C42F400721A641A6C42F00202EC
S2140065C41A645AE7064AD36923F00103D361054BDC
S2140065D400221A6089E70021C0E700BFD447000004
S2140065E400C007405C09FF1F5809FF1FA64B1B6825
S2140065F4A64AA2FB03239B0C03EB8300C001A44A18
S214006604A2FB0070400903EB4303DB01A2FB032358
S2140066145B09A04A10665366136C23F400231364C4
S214006624136C43F400631364136C43F0080313649D
S214006634B0E7984A936923F001039361924B0022D2
S2140066441A60944A136A23F00103136294F8203004
S214006654002B35D18F4A516821F4702194F82430E8
S2140066641B0403F470230B435360516821F47061D8
S21400667494F825301B0203F470630B43536051688F
S21400668421F00F0194F8263003F00F030B435360F8
S21400669481490A6894F827301B0203F4706322F4D5
S2140066A4706213430B604FF470537A4AD068516893
S2140066B4884200F0BF80013BF8D140F602255EE038
S2140066C4116A21F0100194F821301B0103F0100325
S2140066D40B431362116A21F47C1194F82230013BB7
S2140066E41B0403F47C130B431362116A21F47061D8
S2140066F494F82330013B1B0203F470630B431362CC
S214006704136A43F0010313620023184608E0116A73
S21400671441F0010111620133B3F5705F00F0AC8003
S214006724916811F0200F0AD123FA00F1F029EED176
S2140067340130C0B2116A21F001011162EBE70227B1
S214006744002E34D0B28A534B9A65F28ADA651A6CF4
S214006754B17C22F4802242EA81421A641A6C717C6B
S21400676422F4806242EA81221A641A6C317C22F096
S214006774040242EA81021A64002F7FF46BAF474991
S2140067844320FFF7E3FD01A94320FFF7DFFD42495D
S2140067940A68019B3D48A0FB0303DB0803F47F0360
S2140067A422F47F0213430B60284603B0F0BD01A811
S2140067B4FFF7E6FC019B354AA2FB03239B0C03EB85
S2140067C48301C901324AA2FB0101490903EB4303D1
S2140067D4DB01A2FB03235B092E4A9165D365136C88
S2140067E423F480231364136C43F480631364136CE0
S2140067F443F004031364BFE794F8293093B1254AA1
S214006804D16A21F0070194F82B3003F007030B43F9
S214006814D362D36A23F47F4394F82A1043EA01230D
S214006824D3620DE01B4AD36A23F00703D36207E062
S2140068340025B9E76079FFF757FC05460028DBD04A
S214006844002E9CD0B288134B9A64F288DA641A6CD1
S214006854B17822F4803242EA01421A641A6C7178E2
S21400686422F4807242EA01221A641A6C22F00102AF
S21400687431780A431A6482E7064B4FF480321A6270
S21400688440F6032500275BE75809FF1F83DE1B43FA
S214006894ABAAAAAA00C00740000001400C0BFF1FC9
S2140068A42DE9F04182B080460F468DF804008DF83D
S2140068B4051000F05DF93A4A137B537301228DF8F4
S2140068C40620002B56D00024354D04E001342A7BE4
S2140068D4E3B29A424ED9E6B2AB6853F82630002BA0
S2140068E4F4D01A79022AF1D01A68996801A8904758
S2140068F40028EBD06E73002FE8D140F2031544E075
S21400690402238DF80630264B1B7BEBB10024244E65
S21400691404E00134327BE3B29A4215D95FFA84F874
S214006924B36853F82830002BF3D01A79012AF0D034
S2140069341A68996801A890470028EAD086F80D805E
S214006944002FE6D14FF4827500F004F9284602B011
S214006954BDE8F0810134327BE3B29A42F4D9E3B263
S214006964B26852F82330002BF4D01A68996801A84C
S2140069749047EFE70A4C236853F82800FFF7EAFC31
S21400698484F8058005460028BAD000238DF8063022
S214006994034B1B7B002BD7D00024014EDFE700BF40
S2140069A44809FF1F60B170B506460C460025204610
S2140069B400F012F801351C34AE42F8D1002070BD48
S2140069C400207047C06970474FF0FF33C3617047BB
S2140069D4416070478160704730B40468456854F875
S2140069E42510037A012B50D0022B53D0002B49D00C
S2140069F4427A920002F0040221F014031A43837AC6
S214006A04002B14BF102300231343C27A920102F012
S214006A14400223F4E8631A43037B1B0203F4E06397
S214006A24134344F82530C37B002B36D142684369B0
S214006A3403EB8203D3F8802022F48032C3F880204C
S214006A44037B012B47D04268436903EB8203D3F8E8
S214006A54802022F00F02C3F880204368426902EBCC
S214006A648302D2F88010437B03F00F030B43C2F873
S214006A748030837B23B14269416801238B40D36114
S214006A8430BC704721F00201B2E721F0010141F069
S214006A940201ADE741F00301AAE74368426902EB4D
S214006AA48302D2F8803023F0F853C2F88030D2F84C
S214006AB48010037C1B0603F0F8530B43C2F88030A7
S214006AC44268436903EB8203D3F8802042F48032A1
S214006AD4C3F88020B4E741694B69027E22B1012ADB
S214006AE408D042695361AEE7416801228A4023EA2E
S214006AF40203F6E744680122A2401343427E22B909
S214006B04012202FA04F48C60EBE7012A04BF02FABD
S214006B1404F44C60E5E70000064B9B6894462AB1F3
S214006B2400F1100253F82220CCF80020103043F86D
S214006B342010704700ED00E0002808DB420900F052
S214006B441F00012303FA00F0014B43F822007047AC
S214006B5400E100E0054B1B68002B04DD013B034A03
S214006B641360002B00DD704762B6FCE76009FF1F68
S214006B7472B6024A13680133136070476009FF1F38
S214006B84002808DB4901C9B200F1604000F5614005
S214006B9480F80013704700F00F004901C9B2014B9A
S214006BA41954704714ED00E010B4054B1B6853F8F5
S214006BB42040616053F820309A60002010BC704773
S214006BC46409FF1F08B50E4B1B6853F820200D4BB5
S214006BD45B6800F00F00C34013F0010F00D108BD3E
S214006BE4012303FA00F0074B586258605B68002ADA
S214006BF4F5D05368002BF2D0117B90689847EEE7E7
S214006C046409FF1F0080004038B5044600F00F05F5
S214006C14002229460B4800F037F90B4B1B6853F843
S214006C2424306BB101221A735A6812B1197B986822
S214006C3490470121A940034B596259605A68D960AC
S214006C4438BD00BF008000406409FF1F2DE9F04FE7
S214006C5485B00291174603939DF838900F9E012441
S214006C6404FA09F4E2B2B6FBF2F302FB13631BB1B7
S214006C74012005B0BDE8F08F054600F00F08DFF8E8
S214006C8410A100224146504600F0FEF84146504608
S214006C9400F020F94FEA481B0AEB4812B2F81C34FD
S214006CA49BB223F0300343F02003A2F81C34DAF836
S214006CB4003043F48063CAF800300BF1804B0BF5C8
S214006CC4004BCBF80074039BC2F81034CDF8049044
S214006CD4CDF8009000231A464146504600F016F9B7
S214006CE4029B032B10D8DFE803F0022C3A4700235C
S214006CF4ABF8043464B2A4B24FEA481303F18043F9
S214006D0403F50043A3F81444214C3246414620467A
S214006D1400F013F901224146204600F06EF904EB18
S214006D244814B4F81C346FEA43436FEA53439BB2E7
S214006D34A4F81C34174B1B6853F82530002018732E
S214006D4497E764B2A4B2ABF804444FEA481303F1DD
S214006D54804303F500430022A3F81424D4E764B266
S214006D64A4B2ABF804444FEA481303F1804303F596
S214006D740043A3F81444C7E70022ABF804244FEA00
S214006D84481303F1804303F50043A3F81424BBE738
S214006D94008000406409FF1F70B582B00446079D5A
S214006DA401959DF818500095FFF750FF054610B161
S214006DB4284602B070BD04F00F04144E089A21460B
S214006DC4304600F01AF906EB4416B6F81C3423F0E5
S214006DD408031B041B0C9DF82420002A14BF082259
S214006DE400221343620102F1804202F50042A2F837
S214006DF41C34074B1B6893F84030002BD8D0012373
S214006E040F222146014800F0C3F8D1E70080004075
S214006E146409FF1F08B5012200F00F01024800F0C4
S214006E2433F8002008BD00BF0080004008B50022EB
S214006E3400F00F01024800F027F8002008BD00BF4C
S214006E440080004000F00F00400100F1804000F593
S214006E540040C0F80C14704700F00F00400100F129
S214006E64804000F50040C0F81014704708B50A4684
S214006E7400F00F01014800F0C0F808BD0080004093
S214006E840048704700800040F8B505460F46164691
S214006E94FFF76EFE2B6843F400332B6032232C6816
S214006EA4002C01DA013BFAD166B1AA69012303FA80
S214006EB407F71743AF612B6823F400332B60FFF703
S214006EC449FEF8BDAB69012202FA07F723EA070771
S214006ED4AF61F0E700EB41110023C1F808344FF02E
S214006EE45A32C1F80024A1F80434A1F80634C1F8D3
S214006EF40C34C1F81024A1F81434A1F81634C1F8DF
S214006F041834A1F81C34A1F81E347047DB005FFA6D
S214006F1483FC9DF8043003F0070343EA0C0343EABA
S214006F24C2239DF80020120202F4E06213439BB2CF
S214006F34203100EB4110C3807047036813F4806F60
S214006F4421D000EB4113D3F80834002B0DDB00EB03
S214006F544113D3F8083413F0804F06D122F0404290
S214006F6400EB4110C0F80824704700EB4110D0F83D
S214006F74083423F47F7323F00303C2F309021A438D
S214006F84C0F80824704700EB4110C0F80824704786
S214006F9400EB411CBCF81EC4CCF30E0C13B34CF42B
S214006FA4004C00EB4111A1F81EC4B1F816346FEA88
S214006FB443436FEA53439BB2A1F81634B1F81E3428
S214006FC49BB2520202F4F05223F4F0531343A1F896
S214006FD41E34B1F816349BB223F4F0531A43A1F8C6
S214006FE41624704700EB4111A1F81EC4B1F81634FC
S214006FF4C3F30E03A1F81634704700EB4113B3F83D
S2140070041E3413F4004F12D100EB4110B0F81E34B6
S214007014C2F30E0203F400431343A0F81E34B0F880
S214007024163403F400431A43A0F81624704700EB02
S2140070344110B0F81E34C2F3080203F47E4313432F
S214007044A0F81E34B0F8163403F47E431A43A0F8AE
S2140070541624704708B50020FFF7B4FD08BD08B530
S2140070640120FFF7AFFD08BD08B50220FFF7AAFD13
S21400707408BD08B50320FFF7A5FD08BD08B5042024
S214007084FFF7A0FD08BD08B50520FFF79BFD08BD6A
S21400709408B50620FFF796FD08BD08B50720FFF7DC
S2140070A491FD08BD08B50820FFF78CFD08BD08B59E
S2140070B40920FFF787FD08BD08B50A20FFF782FD03
S2140070C408BD08B50B20FFF77DFD08BD08B50C20EC
S2140070D4FFF778FD08BD08B50D20FFF773FD08BD62
S2140070E408B50E20FFF76EFD08BD08B50F20FFF7A4
S2140070F469FD08BD38B50020FFF7C2FEC568002448
S21400710404E06D080134E4B2102C06D015F0010F2B
S214007114F7D02046FFF778FDF3E738BD174B53F852
S2140071242030174A52F8201093F83420012A10D938
S2140071349A68012A18D0186890F801C0027842EAC2
S2140071440C220A871A6802321A609A68023A9A600F
S21400715470471A68127881F838201A6801321A6063
S2140071649A68013A9A6070471A6812780A871A6809
S21400717401321A609A68013A9A6070476809FF1FDC
S21400718460480000184B53F82030184A52F8202064
S21400719493F83410012911D9D968012919D0908F90
S2140071A459680870928F5968C2F307224A705A6861
S2140071B402325A60DA68023ADA607047596892F81E
S2140071C43C200A705A6801325A60DA68013ADA607A
S2140071D47047918F5A6811705A6801325A60DA689B
S2140071E4013ADA60704700BF6809FF1F6048000074
S2140071F438B5134B53F82040124B53F82050FFF782
S214007204B7FC636823F002036360FFF7A3FCFFF791
S214007214AFFC236923F010032361FFF79BFCAB7CD0
S21400722443B900232B74AB8F9BB2022B04BF0023FD
S214007234AB8738BD05F1360001F0AAF9F1E700BFC7
S214007244604800006809FF1F38B5134B53F82050F8
S214007254124B53F82040FFF78BFC636823F00403BB
S2140072646360FFF777FCFFF783FC236923F02003B2
S2140072742361FFF76FFCEB7C43B900236B74EB8F41
S2140072849BB2022B04BF0023EB8738BD05F1350003
S21400729401F07EF9F1E700BF6809FF1F60480000AF
S2140072A438B5254B53F82050244B53F8204094F817
S2140072B43900FFF7BBFDE38F9BB2022B12D0E368C5
S2140072C4C3B1616894F83900FFF7C6FDE16894F825
S2140072D43900FFF7CBFD0023E36094F83900FFF78D
S2140072E499FD38BDE369002BE9D0226A00212046C7
S2140072F49847E4E70023C5F89C30FFF739FC2B6970
S21400730423F020032B61FFF725FCE37C7BB90023E5
S2140073146374E38F9BB2022BE3D10023E387E36914
S214007324002BDED0226A022120469847D9E704F1D2
S214007334350001F02DF9EAE7604800006809FF1FF0
S21400734470B582B005460E46384B53F8204001A966
S214007354374B185CFEF7FAFF364B53F825301A7C89
S214007364002A4ED15B7C002B4ED10198FEF788F89C
S21400737405463046FEF784F84FF08341FEF7D8F80A
S21400738401462846FEF788F90646FEF721FA054622
S214007394FEF776F801463046FDF7C0FF4FF083410E
S2140073A4FEF7C6F84FF07C51FDF7BAFFFEF710FA69
S2140073B4C2B2102A04BF01350022A368C3F3033304
S2140073C4012B23D0236823F0020343F00103236038
S2140073D4A368C3F30333012BFAD1A36A1B0D1B0561
S2140073E4C5F313052B43A362636A23F00F0302F06D
S2140073F40F021A436262236823F00303236000200B
S21400740400E0022002B070BD0220FBE7A36A1B0D59
S2140074141B05C5F313051D43A562636A23F00F031A
S21400742402F00F021A4362620020EBE76048000095
S214007434784800006809FF1F2DE9F04383B007462B
S2140074440D4616466E4B53F8204001A96D4B185C4A
S214007454FEF77CFF6B1E05F13F0E4FF0000C03F8A1
S21400746401CF7345FBD1684B43F82750236823F0BC
S214007474020343F001032360A368C3F30333012B21
S214007484FAD1236943F00103236131683846FFF7D4
S21400749457FF814618B1484603B0BDE8F083F37938
S2140074A42269590001F0020122F082020A439B017C
S2140074B403F0800313432361226922F46042F379C4
S2140074C41B0303F4604313432361226922F4E0524E
S2140074D4F3795B0203F4E05313432361F37985F8ED
S2140074E434303379002B6FD1236923F004032361EE
S2140074F4226922F4C022B3795B0403F4C023134345
S2140075042361D4F88C2022F00202B3795B0003F0E6
S21400751402031343C4F88C30337A002B66D12369F4
S21400752443F480732361737A002B64D1236943F494
S21400753400732361236823F0030323604FF00008DD
S214007544A5F83C80A5F83E80337A85F83730737A00
S21400755485F83830B37A85F83930F37A85F83A30D6
S214007564C5F81C80C5F82480C5F82C80C5F8208092
S214007574C5F82880C5F83080414605F1350001F08D
S2140075841AF8414605F1360001F015F81F4B33F999
S214007594175042461E4B53F827102846FFF7BCFAEE
S2140075A42846FFF7C9FAFFF7E3FA636843F48073E3
S2140075B46360FFF7CFFAFFF7DBFA636843F08003F4
S2140075C46360FFF7C7FA66E7236943F004032361A1
S2140075D473792269D90001F0080122F048020A43AF
S2140075E45B0103F040031343236181E7236923F41B
S2140075F48073236197E7236923F40073236199E773
S21400760460480000784800006809FF1F80480000B2
S2140076148C480000F8B5224B53F820502B7C13B14D
S21400762402263046F8BD06461E4B53F82040296015
S214007634AA6001232B740227AF87FFF799FA236900
S21400764443F010032361FFF785FA67613046FFF7BE
S21400765465FD07E06369626902F4807203F08003E3
S21400766413431BD1AB6843B1636913F0020FF1D027
S21400767467613046FFF752FDECE70026636913F0B6
S214007684020FFBD0FFF774FA236923F0100323617B
S214007694FFF760FA00232B74AE87C2E70126EDE7F6
S2140076A46809FF1F6048000070B5184B53F8205057
S2140076B46B7C03B970BD0446154B53F82060FFF786
S2140076C461FDEB682BB9EB691BB12A6A00212846D9
S2140076D49847EB6853B12B7D012B04BF02232B750F
S2140076E4042373614FF400737361E3E72046FFF7E6
S2140076F4ABFD2B7D032B04BF04232B75EB69002BFA
S214007704EED02A6A022128469847E9E76809FF1F4F
S2140077146048000070B5124B53F820502B7C6BB1B8
S2140077240446104B53F82060AB6843B96B6A1BB130
S214007734AA6A012128469847AB682BB170BD02237C
S2140077447361FFF7EBFCF9E72046FFF751FD6B6A20
S2140077541BB1AA6A02212846984702237361EDE703
S2140077646809FF1F6048000010B5174B53F8203017
S214007774164A52F820405A6912F0800F12D040F28E
S2140077840162E28780225A6194F83830012B17D0C0
S2140077940021FFF785FDE36A1BB1226B0321204617
S2140077A4984710BD5A6912F4807F06D040F20362EF
S2140077B4E2874FF480725A61E6E70123E387E3E742
S2140077C4FFF742FDE7E700BF604800006809FF1FB7
S2140077D470B50446314B53F820506B696A6902F45D
S2140077E4807203F08003134302D0FFF7BDFF70BD21
S2140077F46B6813F0040F03D06B6913F0040F23D1E6
S2140078046B6813F0020F03D06B6913F0020F1ED1DE
S214007814234B53F82460337D032B1CD0042B32D027
S214007824022BE4D103233375B369C3F30B03C5F802
S214007834903008236B61FFF79BF96B6843F00803ED
S2140078446B60FFF787F9D2E7FFF72EFFD8E72046ED
S214007854FFF760FFDCE76B6913F0080FC7D0F36926
S2140078641BB1326A0421304698472046FFF7ECFCE9
S21400787401233375FFF77CF96B6823F008036B600C
S214007884FFF768F9B3E701233375FFF771F96B68FF
S21400789423F008036B60FFF75DF9A8E76048000073
S2140078A46809FF1F08B50020FFF792FF08BD08B55A
S2140078B40120FFF78DFF08BD08B50220FFF788FFFB
S2140078C408BD08B50320FFF783FF08BD08B50420EC
S2140078D4FFF77EFF08BD08B50520FFF779FF08BD52
S2140078E42DE9F0419DF818C09DF81CE09DF8207025
S2140078F4324C246814F0010F5DD1314C246825788D
S2140079040DB1022058E0012525702C4D6E6826F432
S214007914704626F0F2066E60D5F804807E0006F007
S214007924020646EA08064FEA0E381FFA88F846EAC0
S21400793408064FEA0C185FFA88F846EA08066E60EE
S2140079446E6846F480266E606E6846F040466E604A
S2140079546E6826F040466E6041EA0242EA6084F8A9
S2140079643E700022A161E26121626262A162E2626B
S214007974206163610EF101030CF1FF329200934023
S214007984A4F84030BCF1030F0CD00C4A536923F022
S2140079941F135361536943F4802343F00303536175
S2140079A4002009E0BEF1010F0CBF20223022002384
S2140079B4C4E90A23E9E70220BDE8F0810070064026
S2140079C48009FF1F3D4BDB6913F4804F1ED03C4BF0
S2140079D41B683A495A69CAB1D1F8B4001060D1F8A4
S2140079E4B4005060D1F8B4009060D1F8B400D06010
S2140079F45A6910325A619A6AD86A103A40F1FF30CE
S214007A049A62D862CA6912F4804FE3D12B4BDB69C1
S214007A1413F0010F28D0294BDB6913F4804F1ED0D6
S214007A24274B1B6825495A69CAB1D1F8B4001060BF
S214007A34D1F8B4005060D1F8B4009060D1F8B40026
S214007A44D0605A6910325A619A6AD86A103A40F17C
S214007A54FF309A62D862CA6912F4804FE3D1174B9A
S214007A640122DA6100207047144BDB6913F4004FDF
S214007A741FD0134B1B68196A5A6A0A431BD019692C
S214007A8408680E4AC2F8B0004868C2F8B0008868B1
S214007A94C2F8B000C968C2F8B0101A6910321A6188
S214007AA41A6A596A103A41F1FF311A625962022081
S214007AB47047022070470220704700BF00700640DF
S214007AC48009FF1F10B584B02B4B1A6882F830006B
S214007AD482F83110536903B38C4601210391926AEC
S214007AE4120902921022019202220092234A0021D5
S214007AF46046FFF751F9204C236893F8310002469C
S214007B041F49FFF751F8236893F83100FFF782F90D
S214007B141C4A536843F000535360174B1B681A699A
S214007B243AB393F83000002103911B6A1B090293B1
S214007B341023019302230093134B0121FFF72CF922
S214007B440D4C23689969494293F83000FFF77AF997
S214007B54236893F8300002460949FFF725F823689E
S214007B6493F83000FFF756F9064A536843F08053FB
S214007B745360002004B010BD8009FF1FB470064097
S214007B84517C000000700640B070064030B585B0E9
S214007B942C4B1C6894F83E30012B0AD02A4BDB6928
S214007BA413F0020F0CBF4FF431600020A08705B01D
S214007BB430BDEE464FF0000C234D714600230CF109
S214007BC41C0055F82020DA4001F8012B0833202B3E
S214007BD4F7D10CF1010C0EF1040EBCF1040FECD13C
S214007BE4B4F84030042B03D0052B16D00020DEE773
S214007BF4636B0022002BF9D0187DD1B28842F5D9E8
S214007C04D1B21B6901F11000684410F8100C5854E6
S214007C14636B0132002BEFD1E8E7A36B0022002B45
S214007C24E4D01879D1B28842E0D9D1B21B6801F108
S214007C341000684410F8100C5854A36B0132002B43
S214007C44EFD1D3E78009FF1F0070064008B501296D
S214007C5428D01C4B1B6893F8302090422CD01A4A2C
S214007C64516821F080515160516821F000515160F3
S214007C7400200021C3E90A0100221A70B3F840204C
S214007C8422F4807292B2B2F5007F14D00E4A01211B
S214007C94D161B3F84020042A0DD15B785BB1FFF7BD
S214007CA475FF08E0084B5A6822F080525A605A68FA
S214007CB422F080525A6008BD00200021C3E9080162
S214007CC4F9E700BF8009FF1F00700640044A5368A6
S214007CD423F00C03800000F00C001843506070473B
S214007CE40070064038B50C46154B196000250D701B
S214007CF48D704D704D608D600D614D6100220023C6
S214007D04C1E90623C1E90823C1E90A234D638D634B
S214007D148D87437881F83F30837881F83030C37894
S214007D2481F831300078FFF7D1FF294604F10C00C2
S214007D3400F041FC012814BF0020012038BD00BF1C
S214007D448009FF1F012925D0022926D011B140F64B
S214007D54013070474FF0040C134B1B681B78FBB9BB
S214007D6430B40438114D50F8044F03F1080245F8B6
S214007D74224001336345F6D10C4B5A6822F4407214
S214007D845A605A68090201F4407111435960002090
S214007D9430BC70474FF0060CDEE74FF0080CDBE70C
S214007DA440F60230704700BF8009FF1F007006408F
S214007DB430B585B013460124029400220192009443
S214007DC4FFF78EFD0446B0B9154B1A6892F83F309B
S214007DD4012B13D0022B1CD0124B01221A60104B1D
S214007DE41D6895F83F3033B9FFF7ECFD04460228CA
S214007DF4FAD000232B70204605B030BD094A93699B
S214007E0443F4404343F0010393619D20FEF794FE40
S214007E14E2E792F8311092F83000FFF753FEDBE702
S214007E248009FF1F0070064010B5674BDA699B692E
S214007E3412F4004F24D013F4004F21D0634B1B6878
S214007E44196A5A6A0A4300F08480196908685E4A07
S214007E54C2F8B0004868C2F8B0008868C2F8B0003B
S214007E64C968C2F8B0101A6910321A611A6A596AD7
S214007E74103A41F1FF311A62596252EA010368D09E
S214007E84514BDA699B6912F4804F23D013F4804F68
S214007E9420D04E4B1B68996ADA6A0A436AD05A693C
S214007EA4C2B14949D1F8B4001060D1F8B4005060AA
S214007EB4D1F8B4009060D1F8B410D1605A69103289
S214007EC45A619A6AD96A103A41F1FF319A62D962C4
S214007ED40A434FD03C4BDA699B6912F0010F62D01B
S214007EE413F0010F5FD0384B0122DA619A6922F051
S214007EF401029A619A6922F400429A61334B1C6823
S214007F04B4F84030052B43D0042B56D023F48073AA
S214007F149BB2B3F5007F46D12B4A536823F08053B7
S214007F24536063787BB194F83E303BB9D36913F061
S214007F34040F14BF4FF432630023A387636813B19E
S214007F44A168A08F9847214B1B685A695ABB1A70C0
S214007F5429E01D4B9A6922F400429A610022C3F874
S214007F64B020C3F8B020C3F8B020C3F8B020C3F8DC
S214007F74B02085E700221A7013498A6922F48042E9
S214007F848A615A68002AA5D0996800209047A1E71C
S214007F940D4A536823F080535360637823B90B4B20
S214007FA41B6800221A7010BDFFF7F0FD6368002BF3
S214007FB4F5D0A168A08F9847F1E76378002BF2D03C
S214007FC4FFF7E4FDEFE700BF007006408009FF1FDF
S214007FD408B5FFF729FF08BD0B4B98420ED9A0F54C
S214007FE48012A3F540239A420BD900F17040074B48
S214007FF4984294BF4FF48060002070474FF40060AE
S21400800470474FF480607047FEFF0F00FE030401C4
S214008014C268036903EB4202436903EB42028369C5
S21400802403EB4203C06900EB4300704708B51046F3
S214008034931EDBB2022B9CBF00230B724B6803B16A
S214008044984708BD424B5B6813F0010F00D1704798
S21400805430B585B03F4B1C683D4B01225A602378EF
S21400806463B93B4B5B6813F04C0F14BF0422022227
S21400807421463748FFF7DAFF05B030BDE56A2046EB
S214008084FFF7C6FF85421AD1314B5B6813F04C0FDD
S2140080941BD1E368132B32D8112B45D8032B1AD9DE
S2140080A4103B012B19D825692846FFF795FFE3698D
S2140080B41B1AE36120F00300284420610DE004222B
S2140080C421462348FFF7B2FFD6E70422214620487C
S2140080D4FFF7ACFFD0E7012B29D8E369002B30DD8E
S2140080E42046FFF795FFE062002001F03FFB0028E2
S2140080F4C2D0042221461648FFF798FFBCE7402B5F
S214008104EBD1E369083BE36101AB6361636A08335F
S2140081146362A36A03F10802A262626A01929A6821
S2140081240292DB680393D8E70023E361D5E7E369AB
S214008134083BE36123690833236163690833636199
S214008144CBE7022221460248FFF770FF94E700BF00
S214008154000001408409FF1F08B5074B5B6813F055
S214008164080F00D108BD054B19680348082343606F
S2140081740322FFF75BFFF5E7000001408409FF1FB9
S214008184024A136843F0010313607047000001407D
S214008194024A136843F00803136070470000014066
S2140081A4184B5B6813F0800F29D010B50446154BA6
S2140081B44C20586001205860134840F82420087862
S2140081C410704868506048785070002010720F484D
S2140081D418610F4858618B78937013780BB9002098
S2140081E410BD2046FFF7CCFF1220FEF7A5FC204664
S2140081F4FFF7CEFF1320FEF79FFC0020F0E740F6C3
S21400820403107047000001408409FF1F1300060096
S21400821470946C0738B505461B4B53F820401B4B2F
S21400822419604122E2601A4A226163610123A36154
S2140082342378ABB1174B5B6813F0800F20D0237AFA
S21400824413B140F6031012E0012323720023E36106
S2140082542046FFF7DDFEE062284601F087FA06E0D6
S2140082640C4B5B6813F0800F02D140F6031038BD48
S2140082742046FFF7CDFEE062284601F077FAF6E7DF
S21400828440F60310F3E700BF8409FF1F080BFF1F27
S2140082941800014000000140F0B585B007462A48A2
S2140082A450F827404020E0602848206101A860611B
S2140082B40320A061E2616162A3622278C2B1244A0B
S2140082C4526812F0800F39D0227A002A39D101225E
S2140082D42272626A01921A6802925B6803932046CD
S2140082E4FFF796FEE062384601F040FA05B0F0BDAE
S2140082F40020174E40F60315E369002BF6DD002830
S214008304F4D17368284613F0800FF5D0636A01939E
S214008314A36A1A6802925B6803932046FFF778FE06
S214008324E062384601F022FAE369083BE361636AD7
S21400833408336362A36A0833A362DDE740F60310DA
S214008344D4E740F60310D1E78409FF1F1800014064
S214008354000001402DE9F8438046274850F828409D
S21400836494F800904220E0602448206104F1240040
S21400837460610120A061E2616162A362FEF7F8FB1E
S214008384002323701E4A136823F001031360164665
S21400839440F603170025E369002B1EDDEDB973686C
S2140083A43D4613F0800FF6D02046FFF731FEE0621C
S2140083B4404601F0DBF9054678B9A36AF2691A600B
S2140083C4A36A326A5A60E369083BE361636A083366
S2140083D46362A36A0833A362DCE784F80090B9F109
S2140083E4000F04D0064A136843F001031360FEF737
S2140083F4B1FB2846BDE8F8838409FF1F1800014036
S214008404000001402DE9F04111F01F0F36D104465B
S2140084141C4B5B6813F0800F02D140F603142EE069
S214008424194B53F820502E782023EB60154F3B68E9
S21400843423F0F8533B603B68C90401F0F851194334
S21400844439604FF00008C5F81880FEF791FB85F8F0
S21400845400803B6823F001033B602846FFF7D8FD05
S214008464E862204601F082F904462E701EB13B688D
S21400847443F001033B60FEF76DFB00E00124204659
S214008484BDE8F081000001408409FF1F82B01F4A46
S214008494136843F0802313601D4B93E8030002AB7C
S2140084A403E903001B4BD3F8C02022F0FF0242F07E
S2140084B4AA02C3F8C0200022C3F898204FF0E02296
S2140084C40099C2F89C1D0199C2F8A01DBFF35F8FE6
S2140084D40522C3F894205A6A42F480325A62BFF3E3
S2140084E44F8FBFF36F8F0C4A136843F00403136077
S2140084F40A4B4BF231621A604CF278221A605A68C0
S21400850422F001025A6002B0704700BF000001402A
S2140085140044000000ED00E000B0074000A0064064
S214008524024A136801331360704700BF8809FF1FAF
S21400853430B583B004460025019501A94320FDF714
S21400854405FF4FF0E0221561019B0E49A1FB0313C2
S2140085549B0953610C4B1B7813B195610A4A15703D
S2140085644FF0E02307221A61084B1A681B689B1A0F
S214008574A34204D205490B689B1A9C42FBD803B05D
S21400858430BD00BFD34D6210100BFF1F8809FF1FBC
S21400859410B50446FEF7ECFA2378DBB2FF2B08D0BE
S2140085A423780133DBB223700024FEF7D3FA204687
S2140085B410BD0124F9E738B504460D46FEF7D8FA8F
S2140085C42570FEF7C7FA002038BD70472DE9F04F36
S2140085D483B006460F4601929846DDF83090DDF8E3
S2140085E438A00F9B13F0030F14D10D9B534528BFDF
S2140085F4154610D20D9BAAEB0305019C25444FF0AB
S214008604200B22460134434639465846B047AC420E
S214008614F7D100E0019D0D9B7BB10D9B09EB030B8D
S2140086245C46AB44ABEB04024346394614F8010DF2
S214008634B0474C45F6D10D9B1D440F9B13F0020F1B
S2140086440ED0019BEC1AA2450AD94FF020092A46FF
S2140086544346013539464846B04701345445F6D3B7
S214008664284603B0BDE8F08F2DE9F04385B0DDF869
S21400867430E00D9C9DF83880109F119D129E16F0D8
S214008684020F38D17DB116F0010F00F08A80B8F1E0
S214008694000F02D116F00C0F00D0013DBC4215D2DB
S2140086A41F2C04D912E0BC420DD21F2C0BD804F1A7
S2140086B4FF3CF4444FF0300901340CF8019FA74204
S2140086C401D9202CF8D116F0010F14D0A54212D9E6
S2140086D41F2C0BD804F1FF3CF4444FF0300901344E
S2140086E40CF8019FAC4205D0202CF8D116F0100FE0
S2140086F404D120E02C4616F0100F13D016F4806F29
S21400870404D11CB1A74220D0AC421ED00F9F102F1C
S21400871424D00F9F022F2DD01F2C0CD830270EF8F4
S214008724047001341F2C06D8B8F1000F29D02D2769
S2140087340EF804700134039602950194CDF800E017
S214008744FFF744FF05B0BDE8F083B4F1010C0FD089
S2140087540F9F102F01D06446DBE7023C16F0200F73
S21400876424D11F2CD8D878270EF804700134D3E708
S2140087746446CBE71F2CDED862270EF8047001345B
S214008784CAE716F0040F04D02B270EF80470013441
S214008794D1E716F0080FCED020270EF80470013467
S2140087A4C9E7BC42A7D21F2C81D9A4E71F2CC2D884
S2140087B458270EF804700134AEE72DE9F04190B066
S2140087C4169C189DDDF86C802CB928F0100618F459
S2140087D4806F34D1B04618F0200F14BF41276127AC
S2140087E40DF1200E00260A3F00E06446B4FBF5FCBB
S2140087F405FB1C4C5FFA8CFCBCF1090F94BF0CF112
S214008804300CBC445FFA8CFC01360EF801CBB4FB8A
S214008814F5FCAC4201D3202EE7D1CDF818801A9C83
S2140088240594199C049403959DF85C400294019663
S21400883408AC0094FFF718FF10B0BDE8F081B0460E
S2140088442646EAE72DE9F04F95B0089009910A927A
S2140088540B931E9C1F9D229EDDF88C80DDF898B03D
S21400886454EA050305D12BF010031BF4806F40D1A6
S2140088749B461BF0200F14BF4FF0410A4FF0610ACD
S2140088840DF130090027AAF10A0A01E004460D4654
S2140088943246434620462946FCF7BAFFD2B2092A96
S2140088A494BF30325244D2B2013709F8012B324613
S2140088B4434620462946FCF7ABFFB44275EB080353
S2140088C401D3202FE2D1CDF818B0259B0593249B25
S2140088D4049303969DF88030029301970CAB0093A3
S2140088E40B9B0A9A09990898FFF7BEFE15B0BDE8D7
S2140088F4F08F9B460027E6E7000000002DE9F04FC6
S21400890491B004460D460B921E461A9F0797DDF853
S2140089146C80CDF820803A46434638464146FCF7FC
S2140089247FFC002800F0A7814FF0FF32A34B3846A7
S2140089344146FCF79DFC002840F09D814FF0FF3235
S2140089446FF4801338464146FCF774FC002840F068
S214008954928100220023079F3846DDF82080414696
S214008964FCF768FC002840F09B81079A089B099254
S2140089740A931E9B13F480630F931C9B08BF062365
S2140089841C93DDF824A00A9FC7F30A50A0F2FF3018
S214008994FCF774F979A3D3E90023FCF7D9F979A392
S2140089A4D3E90023FCF71EF880468946C7F313076D
S2140089B4504647F07F5141F440110022804BFCF7AB
S2140089C40FF872A3D3E90023FCF7C2F902460B465C
S2140089D440464946FCF706F8FCF754FC0E90FCF7B4
S2140089E44DF9804689466BA3D3E90023FCF7B0F91A
S2140089F40022744BFBF7F6FFFCF744FC074667A31C
S214008A04D3E9002340464946FCF7A2F98046894646
S214008A143846FCF733F963A3D3E90023FCF798F947
S214008A2402460B4640464946FBF7DAFF82468B462B
S214008A3402460B46FCF78CF98046894652465B464E
S214008A4450465946FBF7CEFFCDE90C0100225E4B9B
S214008A5440464946FCF7A6FA00225C4BFBF7C2FFE9
S214008A6402460B4640464946FCF79CFA0022584B01
S214008A74FBF7B8FF02460B4640464946FCF792FA17
S214008A848046894652465B4600204FF08041FBF7FD
S214008A94A7FF02460B4640464946FBF7A3FF02469D
S214008AA40B46DDE90C01FCF77DFA0022494BFBF787
S214008AB499FF07F2FF3700223B05FCF749F9804689
S214008AC48946099A0A9BFCF7D3FB002840F0ED8000
S214008AD4C246CB46DDF8388008F16303C72B34BFA3
S214008AE4042705271E9B13F4006F24D02FA3D3E975
S214008AF400230998DDF828904946FCF7AFFB0028C8
S214008B0400F0DF802BA3D3E9002309984946FCF73D
S214008B1491FB002800F0D5801C9B4345C3BF42460A
S214008B24981A00F1FF3300231C931E9B43F48063C2
S214008B341E9300270E971D9B9F4234BFA3EB070886
S214008B444FF000081E9B13F0020903D0002F18BF35
S214008B544FF000080E9B3BB152465B4609980A99B3
S214008B64FCF720FA09900A91002200230798089936
S214008B74FCF760FB002840F0B0802DE0FB799F50A6
S214008B841344D33FB3C8608B288AC63F61436F63E0
S214008B94A787D23F71A379094F930A401655B5BBF0
S214008BA4B16B0240EF39FAFE422EE63F2D431CEB32
S214008BB4E2361A3F0000000080842E41FFFFEF7F5C
S214008BC40000F83F0000E03F00002C400000244076
S214008BD4000018400000F03F1E9B23F4006304933B
S214008BE4CDF80C801C9B0293099A0A9BCDE90023BE
S214008BF43346DDF82CB05A462946204600F076F86F
S214008C048046002F48D01E9B13F0200F00F1010A67
S214008C1433460246294614BF45206520A04705234F
S214008C240593013F0497002303930A2302930E99A6
S214008C34CB0F01930029B8BF4942009133465246F0
S214008C4429462046FFF7B9FD8046B9F1000F23D028
S214008C54A0EB0B071D9BBB421ED94FF020099A467A
S214008C644246334608F1010829464846A0470137DC
S214008C745745F5D310E01E9B04931D9B03931C9B42
S214008C840293079A089BCDE9002333460B9A29469C
S214008C94204600F02BF88046404611B0BDE8F08F21
S214008CA4099708F100430A9363E60E9B013B0E9373
S214008CB400220C4B40464946FCF774F982468B4624
S214008CC408E71C9B002B3FF436AF0F9B002B3FF4AA
S214008CD432AF1C9B013B1C932DE70A9901F100431C
S214008CE40A9379E700002440000000002DE9F04FC5
S214008CF497B007900C9192469B46DDE92089424640
S214008D044B4640464946FCF78BFA002849D04FF0BC
S214008D14FF326FF4801340464946FCF78BFA00286E
S214008D244ED14FF0FF32B34B40464946FCF7A0FA0B
S214008D34002854D1ABA3D3E9002340464946FCF7A8
S214008D4497FA002863D1A9A3D3E9002340464946ED
S214008D54FCF770FA00285AD1002200234046494600
S214008D64FCF768FA002861D100230D93249B13F4C2
S214008D74806569D0229B092B63D930238DF838305F
S214008D84229B5E1E0EAAA3F1090501233021AB42E5
S214008D945BD0013302F8011F013E202BF7D11D469C
S214008DA453E0249B0393239B029303230193924B48
S214008DB400935B4652460C990798FFF707FC5BE165
S214008DC4249B0393239B0293042301938B4B0093CE
S214008DD45B4652460C990798FFF7F8FB4CE1249B38
S214008DE413F00402864B874908BF0B46002A14BFBB
S214008DF40422032224990391239902910192009359
S214008E045B4652460C990798FFF7E0FB34E1249B37
S214008E140493239B0393229B0293CDE900895B462C
S214008E2452460C990798FFF769FD25E142464B46E2
S214008E3400200021FBF7D4FD8046894601230D93CC
S214008E4494E71E46002500E0062640464946FCF701
S214008E5419FA04466C4B03EBC603D3E90023CDE9A9
S214008E640823FBF70BFF02460B4640464946FBF732
S214008E74B7FDDDE90823FBF76BFF02460B46CDE999
S214008E840A23FCF727FA0746FBF7E8FE02460B46DA
S214008E94DDE90A01FBF7A4FD02460B46CDE90A23E9
S214008EA400225A4BFCF7E4F950B301373846FBF777
S214008EB4D5FE02460B46DDE90801FCF7C5F908B104
S214008EC401340027002E6FD12046FBF7D7FE02465A
S214008ED40B4640464946FBF783FD06460F460022EE
S214008EE44A4BFCF7A7F930B10022484B30463946C6
S214008EF4FCF7BEF960B314F0010F29D0013427E063
S214008F040022424BDDE90A01FCF794F90028D9D186
S214008F1417B117F0010FD5D00137D3E71F2900F298
S214008F24AE80BCF1000F3DD00EAB5A190D46302072
S214008F34013502F8010F202D0AD0EB430B44F3420F
S214008F44F6D105F158036B442E2203F8202C013584
S214008F5405F158030DEB0302213A2D491F2D79D84C
S214008F64013581FB0430E317C3EBA00303EB830056
S214008F74A4EB4004303402F8014F1C46002BEDD11C
S214008F84249B03F00303012B46D01F2D67D80D9BAB
S214008F94002B47D005F158036B442D2203F8202CF0
S214008FA401355CE00D46CCE705F158030DEB0300F4
S214008FB42138DFF860E01F2DCAD806F1FF3C691C93
S214008FC4AEFB0732D20802EB8203A7EB430330332F
S214008FD400F8013F092FA1D9664617460D46EAE771
S214008FE4AFF300800000000065CDCD410000000016
S214008FF465CDCDC1FFFFEF7FB0480000B448000048
S214009004A4480000AC480000C04800000000E03F50
S21400901467666666CDCCCCCC239B002BB5D033E0FC
S214009024239DB2E7249B13F0040F07D005F15803E1
S2140090346B442B2203F8202C013510E0249B13F0FC
S214009044080F0CD005F158036B44202203F8202C9B
S214009054013504E0249B03F00303012B11D0249B69
S2140090640393239B029301950EAB00935B465246F3
S2140090740C990798FFF7AAFA17B0BDE8F08F0D46CB
S21400908466E7239B002BEAD00D9B1BB9249B13F0A9
S2140090940C0F02D0239B013B2393239BAB427FF60A
S2140090A474AF1F2DDBD805F158036B44213B3022E7
S2140090B42399013503F8012F8D42B1D0202DF8D124
S2140090C4CDE700BF00B9704708B5FCF7FFFF08BD41
S2140090D42DE9F04F91B017461C46DDF86880B1F1D3
S2140090E40009804B14BF82469A462078002800F078
S2140090F4CE824FF0000B2EE1621C4FF0000C14469B
S21400910412F8013BA3F1200110290AD8DFE801F088
S2140091142E090931090909090909092B0928090928
S2140091242500A3F13002D2B2092A25D92A2B31D040
S214009134002523782E2B36D000262378683B122B66
S2140091445DD8DFE803F0B85CC65C535C5C5C5C5CD2
S2140091545C5CC25C5C5C5C5CCA004CF0010CCEE7F8
S2140091644CF0020CCBE74CF0040CC8E74CF0080CAF
S214009174C5E74CF0100CC2E7002505EB850503EBAC
S2140091844505303D14F8013FA3F13002D2B2092A56
S214009194F3D9CEE758F8045B002DBCBF4CF0020CA4
S2140091A46D420134C5E74CF4806C611C6378A3F10E
S2140091B43002D2B2092A04D92A2B11D00C46002632
S2140091C4BBE7002606EB860603EB4606303E11F8A0
S2140091D4013FA3F13002D2B2092AF3D90C46ACE718
S2140091E458F8046B26EAE6760234A6E763786C2B16
S2140091F419BF4CF4807C01344CF4407C0234207853
S214009204A0F12503532B00F23982DFE813F02D0278
S214009214370237023702370237023702370237027D
S214009224370237023702370237023702370237026D
S214009234370237023702370237023702370237025D
S2140092443702370237023702370237023702400145
S2140092542701400137023702370237023702370246
S214009264370237023702370237023702370237022D
S214009274370237026D0037023702370237023702E9
S21400928437023702370237026D0064016D00400171
S2140092942701400137026D003702370237023702D2
S2140092A437026D001702370237029F0137026D003E
S2140092B4370237026D006378682B19BF4CF0800CB8
S2140092C401344CF0C00C023499E74CF4807C013431
S2140092D495E74CF4007C013491E74CF4807C01342F
S2140092E48DE700BFCF850000782800F0218258283B
S2140092F400F0DC816F2800F01D82622800F01C82DA
S2140093042CF01003692832D11CF4806F40F00C82D4
S2140093140A2213F4007F35D113F4807F54D113F05E
S214009324400F65D058F8041BC9B2059304950396FC
S2140093340292CB0F01930029B8BF494200913B46E5
S2140093445A4649465046FFF738FA83460134207891
S214009354002800F09E8125283FF4CEAE0BF10105CF
S2140093643B465A464946D0470134AB46EFE76428A5
S21400937405D11CF4806F40F0D3810A22C9E79C46CD
S2140093840A2296E108F1070020F00700804658F804
S214009394081B4068089307950696049200230593D5
S2140093A4C30F02930246002809DB009101923B4654
S2140093B45A4649465046FFF745FA8346C6E74B42A7
S2140093C4194660EB4002F0E758F8041B0593049531
S2140093D403960292CB0F01930029B8BF494200912D
S2140093E43B465A4649465046FFF7E7F98346ADE7FB
S2140093F413F0800F58F8041B18BF09B295E708F15C
S214009404070828F007080893079506960023049291
S21400941405930293F8E80223CDE900233B465A4617
S21400942449465046FFF70EFA83468FE705930495A0
S214009434039602920023019358F8043B00933B469C
S2140094445A4649465046FFF7B8F983467EE713F076
S214009454800F58F8041B18BF89B246E1462808BF97
S2140094644CF0200C08F1070828F00708CDF810C0C7
S21400947403950296F8E80223CDE900233B465A46B4
S21400948449465046FFF732FC834601345FE700F056
S214009494DF03472B02D0452808D105E04CF4006CC6
S2140094A400F0FD00452801D14CF0200C08F1070817
S2140094B428F00708CDF810C003950296F8E80223B2
S2140094C4CDE900233B465A4649465046FFF716FA6E
S2140094D4834601343BE71CF0020F1CD043460BF1D5
S2140094E4010653F8040B0B933B465A464946C0B252
S2140094F4D047012D88BF05EB0B0840F205813246A4
S21400950401363B4649462020D047B045F7D1AB4408
S214009514DDF82C8018E0012D40F2FA800BF1FF33C1
S2140095241D4420265A460BF1010B3B46494630465D
S214009534D0475D45F6D105F1010B58F8040B3B46C0
S2140095442A464946C0B2D047013400E7434653F89A
S214009554048B0C93002E14BF31464FF0FF3198F85D
S2140095640000002800F0DA80434613F8012F1AB1F1
S214009574A8EB0302CA42F8D1A3EB08030B931CF42E
S21400958480620D9203D0B34228BF33460B931CF07F
S21400959402030E9306D0002800F0BC805A460F95AE
S2140095A40D9D29E00B9A531C954240F2B58005EBBD
S2140095B40B039B1A0F93CDF82C8098465A460BF152
S2140095C4010B3B4649462020D047C345F6D1DDF87B
S2140095D42C806B1C0B93DDF83CB098F80000002838
S2140095E4DCD114E01E4602F1010B3B464946D04747
S2140095F418F8010F40B15A46002DF4D0731E002E01
S214009604F0D10F9D934600E00F9D0E9B1BB90134CD
S214009614DDF830809BE65E460B9B9D420CD93544B4
S214009624A5EB030B2025324601363B464946284621
S214009634D047B345F7D1EAE7B346E8E74CF0210351
S214009644059308230493039610230293002301939F
S21400965458F8043B00933B465A4649465046FFF7A3
S214009664ACF88346013472E60BF101053B465A46D4
S21400967449462520D0470134AB4668E60BF1010580
S2140096843B465A464946D0470134AB465FE64FF060
S214009694000B5F4594BF07F1FF325A463B464946E6
S2140096A40020D047584611B0BDE8F08F4CF0200C8F
S2140096B410222CF00C031CF4806F07D02CF00D0342
S2140096C469283FF426AE64283FF423AE13F4007FE3
S2140096D47FF495AE13F4807F7FF4A8AE13F0400FAA
S2140096E43FF4B5AE58F8041BC9B205930495039627
S2140096F402920023019300913B465A46494650463F
S214009704FFF75BF8834621E6DDF82C80B3461BE7BB
S2140097145D4610E75E467FE70B935EE743462BE71E
S2140097242CF011030A22F4E52CF011030A22F0E5CA
S2140097341022BEE70822BCE70222BAE70FB400B53F
S21400974485B006AA52F8043B039200924FF0FF320B
S21400975402A90448FFF7BCFC05B05DF804EB04B0AE
S214009764704700BFC99000000000000001B4024822
S214009774844601BC604700BF9109FF1FC4C0FF7F39
S2140097840100000038B5494B53F82040E368102B1D
S2140097940AD0E56A204600F091F8A84214D023784F
S2140097A4002B70D1062038BD2369C3F3090333B9EF
S2140097B4E369C3F3090313B9E369002BE9DCE36A3D
S2140097C4204600F07BF8EAE7EFF3108572B6384BD4
S2140097D400229A604F225A60BFF35F8F354B5A6A55
S2140097E422F480325A62D3F8942022F00102C3F89D
S2140097F49420BFF34F8FBFF36F8FA36953B1002339
S2140098046169226951F8231042F823100133A269D2
S2140098149A42F5D8BFF35F8F264B0522C3F89420EF
S2140098245A6A42F480325A62BFF34F8FBFF36F8F87
S2140098341F4B214AC3F80022E368FE2B1FD0E368BF
S214009844DBB21B4A9360637823BB85F310882378C6
S21400985443B9174B5A6812F0010F03D15A6812F035
S214009864080FF7D0124B5B6813F04C0F14BF01209F
S21400987400206378002B96D085F3108893E70C4B72
S21400988410229A60DFE704222146094800F01EF8F9
S214009894062088E72378002BDBD0054B5B6813F0A3
S2140098A44C0F14BF01200020E6E700BF8409FF1F09
S2140098B40000014000ED00E0F57395FD01B4024898
S2140098C4844601BC604700BF1580000001B402480E
S2140098D4844601BC604700BF3180000003000000DE
S2140098E4F80AFF1FB4460000944600000301010076
S2140098F40B01000032010000E80AFF1F78563412FC
S209009904006CDC02010E
S21407F8005AA55AA5C100020030F8070000000000FC
S21407F810004000000000000000000000000000009C
S21407F8200000000000000000B80B00000000000009
S21407F830DDEFBEAC05010000A0F8070090F8070052
S21407F84080F8070070F8070060F80700000000005F
S21407F850000000000000000000000000000000009C
S21407F860DE1B18AF2E35BBE28FE8B6EDBB47A2DE30
S21407F870E4182A98FCFD98FC2B9CFBCEA64D0FDBC4
S21407F8807D637EC2058AA2B1F66337BA4F73D97312
S21407F8900405EB40299CDE98D2E24B9DBB277719DF
S21407F8A08956FEBABBBF874303E19BFF079E71C617
