:100000000000012041030000A1030000A103000043
:10001000A1030000A1030000A103000000000000F4
:10002000000000000000000000000000A10300002C
:10003000A103000000000000A1030000B51D0000A6
:10004000430700004D07000057070000610700004C
:100050006B070000750700007F070000890700009C
:10006000930700009D070000A7070000B1070000EC
:10007000BB070000C5070000CF070000D90700003C
:10008000E3070000A1030000C9090000E509000022
:10009000A1030000A1030000A1030000A1030000D0
:1000A000A1030000A1030000A1030000A1030000C0
:1000B000A1030000A1030000A1030000A1030000B0
:1000C000A1030000A1030000A1030000A1030000A0
:1002B000A103000061150000A1030000A1030000DC
:1002C000A1030000A1030000A1030000A10300009E
:1002D000A1030000A1030000A1030000A10300008E
:1002E000A1030000A1030000A1030000A10300007E
:1002F000A1030000A1030000A1030000A10300006E
:10030000A1030000A1030000A1030000A10300005D
:10031000A1030000A1030000A1030000A10300004D
:10032000A1030000A1030000A1030000A10300003D
:10033000A1030000A1030000A1030000A10300002D
:1003400072B64FF000014FF000024FF000034FF083
:1003500000044FF000054FF000064FF00007B846CC
:10036000B946BA46BB46BC4609490A4A521A013A3E
:1003700005DD0020042308601944043AFBDA06482E
:1003800085460648804762B602F0A0F8FEE7000006
:1003900000F000200000012000000120DD1D000011
:1003A000FFF7FEBF10B4064B1B6853F82040616096
:1003B00053F820309A6000205DF8044B704700BF6E
:1003C00000F5002010B50446094B1B6853F8203097
:1003D00023B15A6812B1197B9868904704F00F0452
:1003E000012000FA04F4034B5C625C6010BD00BFA6
:1003F00000F500200080004038B5044600F00F05ED
:10040000002229460A4800F003F90A4B1B6853F8FA
:10041000243063B101221A735A6812B1197B9868AB
:1004200090470121A940024B59625960D96038BDFB
:100430000080004000F500202DE9F04F85B00292C9
:1004400003939DF838900F9F012404FA09F4E2B257
:10045000B7FBF2F302FB13731BB1012005B0BDE83B
:10046000F08F06460D4600F00F08DFF808B1414650
:10047000584600F0DDF84FEA481A0BEB4812B2F884
:100480001C3423F030031B041B0C43F02003A2F8A0
:100490001C34DBF8003043F48063CBF800300AF101
:1004A000804A0AF5004A029BCAF80034039BC2F84E
:1004B0001034CDF80490CDF8009000231A46414640
:1004C000584600F0CFF8022D47D00ED8DDB164B207
:1004D000A4B2AAF804444FEA481303F1804303F599
:1004E00000430022A3F814241AE0032D18D100229F
:1004F000AAF804244FEA481303F1804303F50043AC
:10050000A3F814240CE00023AAF8043464B2A4B2C3
:100510004FEA481303F1804303F50043A3F8144462
:10052000144C3A464146204600F0B3F801224146B9
:10053000204600F0D9F804EB4814B4F81C346FEAF4
:1005400043436FEA53439BB2A4F81C340A4B1B6825
:1005500053F826300020187380E764B2A4B2AAF8DA
:1005600004444FEA481303F1804303F50043A3F822
:100570001444D5E70080004000F5002070B582B03B
:100580000446079D01959DF818500095FFF754FF0C
:10059000054610B1284602B070BD04F00F040E4E9F
:1005A000089A2146304600F09FF806EB4416B6F84C
:1005B0001C3423F008031B041B0C9DF82420002A84
:1005C00014BF082200221343640104F1804404F59F
:1005D0000044A4F81C34DDE70080004008B5012287
:1005E00000F00F01024800F013F8002008BD00BF22
:1005F0000080004000F00F00400100F1804000F555
:100600000040C0F80C14704700487047008000405C
:1006100032B18269012303FA01F11143816170470C
:100620008369012202FA01F123EA01018161704725
:1006300000EB41110023C1F80834C1F80034A1F8DF
:100640000434A1F80634C1F80C34C1F81034A1F810
:100650001434A1F81634C1F81834A1F81C34A1F8E8
:100660001E347047DB005FFA83FC9DF8043003F012
:10067000070343EA0C0343EAC2239DF80020120259
:1006800002F4E06213439BB2203100EB4110C380BF
:100690007047036813F4806F21D000EB4113D3F847
:1006A0000834002B0DDB00EB4113D3F8083413F0B2
:1006B000804F06D122F0404200EB4110C0F80824E0
:1006C000704700EB4110D0F8083423F47F7323F017
:1006D0000303C2F309021A43C0F80824704700EB71
:1006E0004110C0F80824704700EB4113B3F81E34E2
:1006F00013F4004F12D100EB4110B0F81E34C2F3D6
:100700000E0203F400431343A0F81E34B0F816346D
:1007100003F400431A43A0F81624704700EB41107D
:10072000B0F81E34C2F3080203F47E431343A0F86A
:100730001E34B0F8163403F47E431A43A0F816248E
:10074000704708B50020FFF73DFE08BD08B5012041
:10075000FFF738FE08BD08B50220FFF733FE08BDDD
:1007600008B50320FFF72EFE08BD08B50420FFF7EB
:1007700029FE08BD08B50520FFF724FE08BD08B511
:100780000620FFF71FFE08BD08B50720FFF71AFE79
:1007900008BD08B50820FFF715FE08BD08B50920FB
:1007A000FFF710FE08BD08B50A20FFF70BFE08BDD5
:1007B00008B50B20FFF706FE08BD08B50C20FFF7B3
:1007C00001FE08BD08B50D20FFF7FCFD08BD08B50A
:1007D0000E20FFF7F7FD08BD08B50F20FFF7F2FD6B
:1007E00008BD38B50020FFF70FFFC568002404E0FE
:1007F0006D080134E4B2102C06D015F0010FF7D0CB
:100800002046FFF7F9FDF3E738BD0000002808DBBC
:10081000420900F01F00012303FA00F0014B43F8E6
:100820002200704700E100E000280DDB430900F0E2
:100830001F00012202FA00F02033044A42F823008C
:10084000BFF34F8FBFF36F8F704700BF00E100E031
:10085000054B1B68002B04DD013B034A1360002B92
:1008600000DD704762B6FCE704F5002072B6024A6C
:10087000136801331360704704F5002008B5034680
:1008800008468A1ED2B2022A9CBF00221A725B68F6
:1008900003B1984708BD00000B4B98420ED9A0F554
:1008A0008012A3F540239A420BD900F17040074B08
:1008B000984294BF4FF48060002070474FF400606E
:1008C00070474FF480607047FEFF0F00FE03040185
:1008D00070B584B0324B53F82040324B01225A603D
:1008E0002378002B4FD005462E4B5B6813F04E0F3C
:1008F00015D1E368132B1FD8112B32D8032B13D932
:10090000103B012B12D826693046FFF7C5FFE3697B
:100910001B1AE36120F003003044206106E004214B
:100920002046FFF7ABFF38E0012B1DD8E3692BB35E
:10093000284601F039FE30E0402BF7D1E369083B4F
:10094000E36101AB6361636A08336362A36A03F125
:100950000802A262626A01929A680292DB680393BB
:10096000E4E70023E361E1E7E369083BE36123692E
:1009700008332361636908336361D7E702212046A6
:10098000FFF77CFF09E0074B5B6813F04E0F14BFC5
:10099000042102212046FFF771FF04B070BD00BFA3
:1009A00008F500200000014008B5054B53F8200071
:1009B000044B08225A600321FFF760FF08BD00BF07
:1009C00008F500200000014008B5054B5B6813F0F6
:1009D000010F00D108BD0020FFF77AFFFAE700BF42
:1009E0000000014008B5054B5B6813F0080F00D10B
:1009F00008BD0020FFF7D8FFFAE700BF0000014064
:100A0000024A136843F0010313607047000001407D
:100A1000024A136843F00803136070470000014066
:100A2000164B5B6813F0800F24D010B50446134BAF
:100A30004E20586001205860114B43F824200B7859
:100A400013704868506049785170002111720BB9D9
:100A5000002010BD2046FFF7D3FF1220FFF7D6FE7F
:100A60002046FFF7D5FF074B33F91400FFF7CEFE02
:100A70000020EEE740F60310704700BF0000014081
:100A800008F50020B825000000B583B00191174B90
:100A900053F820304122DA60154A1A6101AA5A61DE
:100AA00001229A611A7882B1124A526812F0800FBC
:100AB00018D01A7A12B140F603100DE001221A7212
:100AC0000022DA6101F070FD06E00A4B5B6813F06A
:100AD000800F04D140F6031003B05DF804FB01F071
:100AE00063FDF9E740F60310F6E700BF08F50020C4
:100AF00018000140000001402DE9F04784B0804615
:100B00008A469146244A52F820204021D160234948
:100B1000116101A95161032191611178E9B903F1D2
:100B200008074C4600201E4E40F603150AEB090349
:100B30001A1B44B338BB7368284613F0800FF8D0F3
:100B4000019257F8083C029357F8043C039340463F
:100B500001F02AFD083C0837E8E71149496811F01F
:100B6000800F13D0117AA1B901211172C2F81C9023
:100B7000C2F824A09362526A01921A6802925B68DA
:100B8000039301F011FD04B0BDE8F08740F60310B7
:100B9000F9E740F60310F6E708F5002018000140D9
:100BA000000001402DE9F04782B0814601911446D2
:100BB0001E4A52F8207097F800A04222FA601C4AA0
:100BC0003A6101AA7A610122BA6100223A70194998
:100BD0000A6822F001020A6098460D4640F60316A4
:100BE0000020B4B1A8B96B68304613F0800FF8D07C
:100BF000484601F0D9FC08F1080850B9EB6948F8FB
:100C0000083C2B6A48F8043C083C019B08330193DC
:100C1000E6E787F800A0BAF1000F04D0054A136890
:100C200043F00103136002B0BDE8F08708F500202F
:100C3000180001400000014011F01F0F2BD138B502
:100C4000164B5B6813F0800F02D140F6031038BDDD
:100C5000134B53F8204025782023E3600F4B1A688C
:100C600022F0F8521A601A68C90401F0F8511143D1
:100C700019600022A26122701A6822F001021A6033
:100C800001F092FC2570002DE1D0044A136843F076
:100C900001031360DBE70120704700BF0000014043
:100CA00008F500202DE9F0419DF818C09DF81CE0E2
:100CB0009DF82070334C246814F0010F5DD1324C44
:100CC00024682578002D5AD1012525702D4D6E6898
:100CD00026F4704626F0F2066E60D5F804807E0099
:100CE00006F0020646EA08064FEA0E381FFA88F8B0
:100CF00046EA08064FEA0C185FFA88F846EA080642
:100D00006E606E6846F480266E606E6846F04046FF
:100D10006E606E6826F040466E6041EA0242EA600C
:100D200084F83E700022A161E26121626262A162E8
:100D3000E262206163610EF101030CF1FF32920067
:100D40009340A4F84030BCF1030F0DD00D4A536915
:100D500023F01F135361536943F4802343F00303CB
:100D600053610020BDE8F081BEF1010F14BF3022B5
:100D700020220023C4E90A23E8E70220F2E7022048
:100D8000F0E700BF007006400CF50020284B1B6800
:100D900093F83E20012A09D0264AD26912F0020FA8
:100DA0000CBF4FF43160002098877047B3F84020A3
:100DB000042A03D0052A1ED0002070475A6B002158
:100DC000AAB192F814C0C8B2844512D95FFA81FC66
:100DD0000CF1804000F5CE2090F87000126902F806
:100DE0000C005A6B0131002AEBD100207047002023
:100DF0007047002070479A6B0021AAB192F804C096
:100E0000C8B2844512D95FFA81FC0CF1804000F52C
:100E1000CE2090F87000126802F80C009A6B013135
:100E2000002AEBD100207047002070470020704757
:100E30000CF500200070064008B5012928D01C4B95
:100E40001B6893F8302090422CD01A4A516821F048
:100E500080515160516821F0005151600020002103
:100E6000C3E90A0100221A70B3F8402022F480720C
:100E700092B2B2F5007F14D00E4A0121D161B3F8CD
:100E80004020042A0DD15B785BB1FFF77FFF08E0BB
:100E9000084B5A6822F080525A605A6822F08052F9
:100EA0005A6008BD00200021C3E90801F9E700BF2E
:100EB0000CF50020007006403D4BDB6913F4804FB9
:100EC0001ED03C4B1B683A495A69CAB1D1F8B400EC
:100ED0001060D1F8B4005060D1F8B4009060D1F83F
:100EE000B400D0605A6910325A619A6AD86A103ACE
:100EF00040F1FF309A62D862CA6912F4804FE3D1A0
:100F00002B4BDB6913F0010F24D1294BDB6913F460
:100F1000004F48D0274B1B68196A5A6A0A4344D0CD
:100F200019690868224AC2F8B0004868C2F8B000DF
:100F30008868C2F8B000C968C2F8B0101A691032E7
:100F40001A611A6A596A103A41F1FF311A625962FC
:100F500002207047164BDB6913F4804F1ED0154BEF
:100F60001B6813495A69CAB1D1F8B4001060D1F8AE
:100F7000B4005060D1F8B4009060D1F8B400D060F3
:100F80005A6910325A619A6AD86A103A40F1FF30B1
:100F90009A62D862CA6912F4804FE3D1044B0122ED
:100FA000DA6100207047022070470220704700BFBE
:100FB000007006400CF5002010B584B02B4B1A6869
:100FC00082F8300082F83110536903B38C46012156
:100FD0000391926A12090292102201920222009257
:100FE000234A00216046FFF7C9FA204C236893F892
:100FF000310002461F49FFF7D5F9236893F8310005
:10100000FFF7ECFA1C4A536843F000535360174B48
:101010001B681A693AB393F83000002103911B6AE8
:101020001B0902931023019302230093134B012108
:10103000FFF7A4FA0D4C23689969494293F83000F0
:10104000FFF7D8FA236893F8300002460949FFF702
:10105000A9F9236893F83000FFF7C0FA064A5368ED
:1010600043F080535360002004B010BD0CF5002005
:10107000B4700640390E000000700640B0700640A3
:1010800070B50546104E336800241C709C705C706F
:101090005C609C601C615C6100200021C3E906016A
:1010A000C3E90801C3E90A015C639C639C879D2036
:1010B000FFF7BAFB3460054B5C609C6105F10C00E6
:1010C00000F08AFE70BD00BF0CF5002000700640E5
:1010D000044A536823F00C03800000F00C0018430E
:1010E000506070470070064038B50C46154B1960CB
:1010F00000250D708D704D704D608D600D614D61DE
:1011000000220023C1E90623C1E90823C1E90A231B
:101110004D638D638D87437881F83F30837881F804
:101120003030C37881F831300078FFF7D1FF29469D
:1011300004F10C0000F046FE012814BF002001203D
:1011400038BD00BF0CF5002030B585B01346002235
:10115000029201920124009489B2FFF7A3FD044694
:10116000B0B9164B1A6892F83F30012B13D0022BFE
:101170001CD0134B01221A60104B1D6895F83F30AC
:1011800033B9FFF799FE04460228FAD000232B70EA
:10119000204605B030BD0A4A936943F4404343F00A
:1011A000010393619D20FFF731FBE2E792F83110D4
:1011B00092F83000FFF700FFDBE700BF0CF50020DE
:1011C00000700640F0B589B016461F460022029214
:1011D00004230193012300931346FFF763FD0446A4
:1011E00000284FD13B68CBB1394B1B689F633D68EA
:1011F0005DB1294604A897F804E0AE4403E011F875
:1012000001CB00F801CB7145F9D1324B049A1A6732
:10121000059A5A67069A9A67079ADA6716F00105DF
:101220002B4B1B6814BF012200225A703A79294BBC
:10123000596821F0706159605968120602F07062B5
:101240000A435A605A6822F440325A605A6842EAA5
:1012500006465E601E4B1B6893F83F30012B14D08E
:10126000022B1FD01B4B01221A60194B1E6896F8E7
:101270003F303BB9FFF720FE04460228FAD015BBE9
:1012800000233370204609B0F0BD124B9A6942F03A
:1012900001029A619A6942F400429A619D20FFF727
:1012A000B5FADFE70B4A936943F0010393619D2090
:1012B000FFF7ACFA064B1B6893F8311093F8300037
:1012C000FFF77AFECEE7FFF761FD0446D8E700BFDF
:1012D0000CF500200070064010B5684BDB6913F474
:1012E000004F26D0654B9B6913F4004F21D0644B0F
:1012F0001B68196A5A6A0A4300F0868019690868EF
:101300005E4AC2F8B0004868C2F8B0008868C2F807
:10131000B000C968C2F8B0101A6910321A611A6AAE
:10132000596A103A41F1FF311A62596252EA0103D7
:101330006AD0524BDB6913F4804F25D04F4B9B6929
:1013400013F4804F20D04E4B1B68996ADA6A0A4327
:101350006BD05A69C2B14949D1F8B4001060D1F8D4
:10136000B4005060D1F8B4009060D1F8B410D160EE
:101370005A6910325A619A6AD96A103A41F1FF31BA
:101380009A62D9620A4350D03C4BDB6913F0010FDB
:1013900064D03A4B9B6913F0010F5FD0374B0122A9
:1013A000DA619A6922F001029A619A6922F4004294
:1013B0009A61334B1C68B4F84030052B43D0042BA2
:1013C00056D023F480739BB2B3F5007F46D12B4AED
:1013D000536823F08053536063787BB194F83E30B8
:1013E0003BB9D36913F0040F14BF4FF432630023E9
:1013F000A387636813B1A168A08F9847204B1B682F
:101400005A695ABB1A7029E01C4B9A6922F40042AF
:101410009A610022C3F8B020C3F8B020C3F8B0200E
:10142000C3F8B020C3F8B02083E700221A70134934
:101430008A6922F480428A615A68002AA4D0996895
:1014400000209047A0E70D4A536823F08053536073
:10145000637823B90A4B1B6800221A7010BDFFF78E
:1014600095FC6368002BF5D0A168A08F9847F1E741
:101470006378002BF2D0FFF789FCEFE7007006409D
:101480000CF5002010B54B791BB18A68CB689A42E5
:101490000ED2CB6813B90124204610BD054800F0D8
:1014A0000BF804460028F7D11620FFF7AFF9F3E751
:1014B0000124F1E700A00640F8B504460E4647684F
:1014C0008568FFF7D3F905F0020307F00102134323
:1014D00023D13278D20002F00802717900290CBFC2
:1014E000194620210A43317900290CBF19461021E1
:1014F0000A43317C002918BF40231343B2780AB94C
:1015000043F0020372780AB943F0040343F0010385
:101510004BF231604CF2782106E00124FFF798F994
:101520002046F8BD20602160A26812F0010FF9D1B9
:10153000A26812F0020FF5D1F268E26072790AB186
:10154000B2682261A26942F00102A2616360F3788D
:1015500083F001035B0043F00103A3600024DDE797
:1015600008B5FFF7B9FE08BD0A490A6822F0030270
:1015700000F0030313430B60074A8B6803F0030377
:10158000984204D0013AF8D140F60120704700207B
:10159000704700BF00C00740FFFF0100104B9B6871
:1015A00013F0200F17D00E4B1B6A13F0100F06BF5D
:1015B0000C4B1B680C4B0A4A116A126AC1F30541B5
:1015C00001FB0333C2F303220132B3FBF2F35B08E6
:1015D000036000207047002303604FF48070704761
:1015E00000C0074020F5002000D8B80538B50446F3
:1015F0000D463B283DD8504B33F810204F4B53F845
:10160000224014F0010F0FD0220AC4F30223032B4F
:1016100022D012F0040F0CD0042B22D0052B25D1A0
:101620000846FFF7BBFF0FE000230B604FF480700C
:1016300011E0012B05D0022B18D1414B0B6000208B
:1016400002E0404B0B600020C4F3034401342B68DC
:10165000B3FBF4F42C6038BD3B4B1B680B600020DF
:10166000F2E73A4B1B680B600020EDE70020286092
:10167000EAE7412821D83F2812D005D9402814D0C4
:101680000846FFF78BFFE6E73D2805D03E2811D13D
:101690002C4B0B600020DEE7294B0B600020DAE7C3
:1016A000294B1B680B600020D5E7284B1B680B609B
:1016B0000020D0E700200860CDE745283AD8244B29
:1016C0009B6803F00303022B28D02CD82BB1012BED
:1016D0002DD10846FFF762FF02E01A4B0B60002095
:1016E0001B4BDB68C3F303435A1C2B68B3FBF2F3B9
:1016F0002B60432CAFD0164AD268C2F303220132CA
:10170000B3FBF2F32B60452CA5D1114AD26802F04D
:101710000F020132B3FBF2F32B609CE70A4B1B680C
:101720000B600020DCE7064B0B600020D8E70020B0
:101730000860D5E700208EE7C025000000D00740F4
:10174000001BB70000D8B80520F5002024F50020C4
:1017500000C0074010B4054C20602171A2602373C3
:10176000637300205DF8044B704700BF10F5002044
:1017700008B5FFF73BFF08BD70B582B0844660B383
:10178000436853B3036843B30022A14DA14CDCF876
:10179000043013F8223035F8131054F8213023F0B8
:1017A000010344F82130DCF8046006EB8200837802
:1017B0001B0203F4E063C178090401F470210B43B8
:1017C00041780B4316F8221035F8111044F82130F7
:1017D0000132DCF800309A42D9D3DCF80840002C02
:1017E00000F09581DCF80C508B4B00221A645A6C87
:1017F0005A640320FFF7B8FE0646002840F08881AF
:10180000854B5B6923F002032278002A14BF022271
:1018100000221343804A5361536923F00403627822
:10182000002A14BF0422002213437B4A53615369E8
:1018300023F00803A278002A14BF082200221343D1
:10184000754A5361116921F00101E3780B4313617B
:10185000136923F002032279002A14BF0222002216
:1018600013436D4A1361D36913F0010F42D1D1695B
:1018700021F48071637C1B0203F480730B43D361FA
:10188000D36923F01003A17C81F0010143EA011325
:10189000D361D36923F00403E27C002A14BF04223D
:1018A000002213435C4AD361D36923F00203227DF3
:1018B000002A14BF022200221343574AD361D3697E
:1018C00023F00803627D002A14BF0822002213437C
:1018D000514AD361D16921F00101237C0B43D361CB
:1018E000237C1BB1A2694D4B1A6006E04B4B0022D2
:1018F0001A6002E0A269494B1A60002D52D0AA89F1
:10190000454B1A65EA895A651A6CA97A22F40032A5
:1019100042EA41421A641A6C697A22F4007242EA7D
:1019200041221A641A6C297A22F0020242EA410228
:101930001A64237A002B7BD0374B996921F47061AC
:10194000A27A120202F470620A439A619A6922F43E
:101950008052617A81F0010142EA01329A619A690A
:1019600022F01002617A81F0010142EA01129A61CB
:10197000996921F00101227A0A439A61284B26498C
:101980008A6812F0080F40F06381013BF8D1224AC7
:10199000936923F001039361224B00221A6040F601
:1019A0000626B5E01C4B4FF4A0621A654FF4407256
:1019B0005A651A6C22F400321A641A6C42F40072EE
:1019C0001A641A6C42F002021A64B2E7164AA2FBC9
:1019D00003239B0C03EB8301C901144AA2FB010101
:1019E000490903EB4303DB01A2FB03235B090A4A1A
:1019F00011665366136C23F400231364136C43F4D1
:101A000000631364136C43F00803136418E000BF11
:101A1000C025000000D0074000C0074024F500208A
:101A2000FFFF010020F5002083DE1B43ABAAAAAA1A
:101A3000984A936923F001039361974B00221A603F
:101A4000944A136A23F001031362237F002B00F0F2
:101A5000CA80116A21F01001637F1B0103F010039B
:101A60000B431362116A21F47C11A37F013B1B0419
:101A700003F47C130B431362116A21F47061E37F5A
:101A8000013B1B0203F470630B431362116A21F0E4
:101A90000101237F0B431362804B11468A6812F0C9
:101AA000200F40F08480013BF8D17A4B4FF4803214
:101AB0001A6240F603262BE001A8FFF76FFD019B99
:101AC000774AA2FB03239B0C03EB8301C901754AF0
:101AD000A2FB0101490903EB4303DB01A2FB032342
:101AE0005B096C4A9165D365136C23F480231364FE
:101AF000136C43F480631364136C43F004031364A6
:101B000071E0644AD36A23F00703D36239E0002608
:101B1000304602B070BD6079FFF726FD064600280A
:101B2000F6D1C5B1AA885B4B9A64EA88DA641A6C6C
:101B3000A97822F4803242EA01421A641A6C697868
:101B400022F4807242EA01221A641A6C22F0010225
:101B500029780A431A6494F82530002BD1D04D4AD5
:101B6000D16A21F0070194F8273003F007030B43F3
:101B7000D362D36A23F47F4394F8261043EA012307
:101B8000D36249494320FFF7F3FD01A94320FFF742
:101B9000EFFD46490A68019B4148A0FB0303DB08AF
:101BA00003F47F0322F47F0213430B60B0E7002DA0
:101BB00082D0AA8A374B9A65EA8ADA651A6CA97CC0
:101BC00022F4802242EA81421A641A6C697C22F46F
:101BD000806242EA81221A641A6C297C22F0040293
:101BE00042EA81021A642B4A516821F4702194F868
:101BF00020301B0403F470230B435360516821F41D
:101C0000706194F821301B0203F470630B4353603E
:101C1000516821F00F0194F8223003F00F030B43B9
:101C2000536022490A6894F823301B0203F470635E
:101C300022F4706213430B60184B164AD068516847
:101C400088423FF468AF013BF8D140F603265FE7D6
:101C5000E368114A1360002D3FF4B8AEAA8B0D4B18
:101C60001A66EA8B5A661A6CA97E22F4002242EAAE
:101C7000C1421A641A6C697E22F4006242EAC122EF
:101C80001A641A6C297E22F0080242EAC1021A6420
:101C9000D6E600BF00C0074020F50020FFFF01008E
:101CA00083DE1B43ABAAAAAA00F400200000014077
:101CB0002DE9F04182B080460F468DF804008DF882
:101CC0000510FEF7D3FD3A4A137B537301228DF8BA
:101CD0000620002B56D00024354D04E001342A7B29
:101CE000E3B29A424ED9E6B2AB6853F82630002BE5
:101CF000F4D01A79022AF1D01A68996801A890479D
:101D00000028EBD06E73002FE8D140F2031544E0B9
:101D100002238DF80630264B1B7BEBB10024244EAA
:101D200004E00134327BE3B29A4215D95FFA84F8B9
:101D3000B36853F82830002BF3D01A79012AF0D079
:101D40001A68996801A890470028EAD086F80D80A3
:101D5000002FE6D14FF48275FEF77AFD284602B0D7
:101D6000BDE8F0810134327BE3B29A42F4D9E3B2A8
:101D7000B26852F82330002BF4D01A68996801A891
:101D80009047EFE70A4C236853F82800FFF7F4FC6C
:101D900084F8058005460028BAD000238DF8063067
:101DA000034B1B7B002BD7D00024014EDFE700BF85
:101DB00010F50020024A136801331360704700BF1A
:101DC00028F5002038B504460D46FEF74FFD257076
:101DD000FEF73EFD002038BD0020704710B4314AA8
:101DE000314B9A4208D0981A304B184452F8041BD1
:101DF00043F8041B8342F9D12D4A2E4B9A4208D056
:101E0000981A2D4B184452F8041B43F8041B8342C4
:101E1000F9D12A4A2A4B9A420BD21346294AD21A9E
:101E200022F0030204321A44002143F8041B9342B7
:101E3000FBD1254A254B9A4208D0981A244B1844C6
:101E400052F8041B43F8041B8342F9D1214A224B68
:101E50009A4208D0981A214B184452F8041B43F8B0
:101E6000041B9842F9D11E4A1E4CA24214D01E4BAC
:101E70004FEA930C032B08D92146002352F8040B98
:101E800041F8040B01336345F8D34FF0E023C3F866
:101E9000084D5DF8044B70474FF0E023C3F8082D60
:101EA000F7E700BFCC2600000827000000F4002060
:101EB00008270000CC2700003CF4002000F500209B
:101EC000C4F90020C3F90020CC270000CC27000073
:101ED00000000020CC270000CC27000000F50020E7
:101EE0000000000000F0002000040000094BB3F8DF
:101EF0006420094B022143F8221053F8221021F0EC
:101F0000010143F8221053F8221021F0020143F896
:101F100022107047C025000000D0074010B50446CD
:101F2000FFF7E4FF636872B6226882F30888984777
:101F300010BD00004FF4FF230F4A13601A680F4BC7
:101F40009A4214D00E4B0C4A13601A680B4B9A42FB
:101F50000FD00C4B084A13601868084B984214BF06
:101F600003200220022894BF002001207047002097
:101F7000F8E70120F6E700BF30F500205AA55AA582
:101F800000F80F0000FC130008B5FFF7D3FF00288E
:101F90003AD11F4B1B685B6813F4003F24D01D4BE4
:101FA0001A6942F001021A611A6A22F001021A62E9
:101FB0001A6A42F010021A621A6A22F470621A62F5
:101FC0001A6A42F480721A621A6A22F47C121A6245
:101FD0001A6A42F480221A621A6A42F001021A62F4
:101FE0001A6842F001021A60094B1B685A68930A8A
:101FF000C2F38322012A06D01B0403F4702343F0AA
:102000000103044A536008BDFFF770FFFEE700BFFD
:1020100030F5002000C0074008B5FFF78BFF00280F
:102020005ED1314B1B685B6813F4003F24D02F4B0B
:102030001A6942F001021A611A6A22F001021A6258
:102040001A6A42F010021A621A6A22F470621A6264
:102050001A6A42F480721A621A6A22F47C121A62B4
:102060001A6A42F480221A621A6A42F001021A6263
:102070001A6842F001021A601B4B19684A68930AF9
:10208000C2F38322012A06D01B0403F4702343F019
:102090000103164A53604B6813F0400F0FD1124BE7
:1020A0001B685A6812F4807F10D10F4B1B685A6866
:1020B00012F0010F11D01869FFF730FF08BD00F0D2
:1020C00039F80028EBD0FFF711FFFEE708499B6ABB
:1020D000CB600020FFF7D6F9E7E7FFF707FFFEE741
:1020E000FFF704FFFEE700BF30F5002000C0074007
:1020F0001CF4002008B5FFF747FF0B4B5A680B4B49
:102100009A420ED9084B5A68094B9A4209D2064B9B
:102110005B68C3F3090323B9034B5868FFF7FEFE5E
:1021200008BDFFF7E3FEFEE700100640FFBFFF1FFC
:10213000004000202DE9F04F87B0A84B1B68D3F872
:102140000880A749A748FEF7CFFFD8F80020A64B84
:102150009A4240F0AC81064698F80430002B00F01B
:10216000A78108F1080A4FF00009DFF890B20BF1DF
:102170000F05E1E098F807309C4C54F8231000203C
:10218000FEF75AFD0643B6B298F80630984A5168F1
:1021900021F44071516051681B0203F440730B43FA
:1021A0005360002E40F0B18002AA1021DAF800003E
:1021B000FEF7CAFF0646002840F0A280BDF80820BE
:1021C00045F6A5239A4240F096809DF80B3054F8CE
:1021D0002310FEF731FD002840F088809DF80A307A
:1021E000834A516821F44071516051681B0203F425
:1021F00040730B4353600BF110005B460599A1EB54
:102200000B01CA5C03F8012B8342FAD1794B1022EF
:102210001A710499B1F5F04F1FD9B1F5704F22D85A
:10222000744E334602224FF4F0410398FEF7CAFF82
:102230000446049BA3F5F0413346012289B203987A
:1022400000F5F040FEF7BEFF204380B2002869D0C1
:102250006348FEF715FF01202EE1032289B203989F
:10226000FEF7B0FFF2E7634B02224FF4F041039810
:10227000FEF7A8FF0446049A5F4BA3FB02139B0BD7
:10228000C3EB0313B2EBC32F29D15B4FA7FB02377C
:10229000BF0B013F012F27D90126C6EB061C554B6A
:1022A00000224FF4F041039800EBCC20FEF78AFFA8
:1022B000204384B20136B742EFD1C6EB0611049B2E
:1022C000A3EBC121C6EB06164A4B012289B2039843
:1022D00000EBC620FEF776FF204380B2B6E7464FFC
:1022E000A7FB0232970BD5E70126E6E73C48FEF74D
:1022F000C7FE0120E0E03A48FEF7C2FE0120DBE025
:102300003748FEF7BDFEF0B2D6E03548FEF7B8FE1E
:10231000F0B2D1E0032289B26068FEF753FF0028D3
:1023200040F0B68009F101090AF1040A002698F884
:1023300004304B4540F2BC8098F80530002B7FF408
:1023400019AFDAF80040228845F6A5239A4240F0FA
:10235000A980E378254A52F823100020FEF76CFC90
:1023600040EA06039BB2002B40F09780A378204AF6
:10237000516821F44071516051681B0203F44073AD
:102380000B4353600BF1FF33CBF10100E2681918E6
:102390008A5C03F8012F9D42F8D1164B10221A7166
:1023A000A168B1F5F04FB5D9B1F5704F28D8114FEC
:1023B0003B4602224FF4F0416068FEF703FF0646F9
:1023C000A168A1F5F04160683B46012289B200F5A1
:1023D000F040FEF7F7FE304380B2A0E730F5002072
:1023E00038F5002038F40020DDEFBEAC4C260000AC
:1023F0000070064030F400208988888880F500202D
:102400002F4B02224FF4F0416068FEF7DBFE0646D8
:10241000A2682C4BA3FB02139B0BC3EB0313B2EB81
:10242000C32F2ED1274BA3FB02239B0B013B012B78
:102430002CD90127CDF804A09A46C7EB071C606889
:102440001F4B00224FF4F04100EBCC20FEF7BAFE08
:102450000643B6B20137BA45EFD1DDF804A0A36850
:10246000C7EB0711A3EBC121C7EB07176068144B3B
:10247000012289B200EBC720FEF7A4FE304380B2F0
:102480004DE7104BA3FB0232930BD0E70127E6E7A1
:102490000D48FEF7F5FD01200EE00B48FEF7F0FDBC
:1024A000012009E00848FEF7EBFD012004E00126C9
:1024B0000548FEF7E5FDF0B207B0BDE8F08F00BFBC
:1024C00030F400208988888838F5002038B500234A
:1024D000294A01212948FFF73DF904460021084611
:1024E000FFF7E6FB0443A4B20CB1012038BD244A37
:1024F00024490020FEF794FA234B5B6A13F0010F86
:1025000007D1224B1A68224B9A4232D0FFF784FD42
:10251000FEE7FEF7ABF91C4B1E4AC3F804221E4C23
:102520001E4D23464FF4806229460020FEF73AFBF9
:1025300029460020FEF7A8FAA36823F00103A36050
:102540004FF05A33E36023464FF48062294600205F
:10255000FEF7D2FAFEF77CF9BFF34F8F1049CA6835
:1025600002F4E0620F4B1343CB60BFF34F8F00BF09
:10257000FDE7FFF7BFFDCBE72CF5002014F40020AA
:1025800098F5002090F50020000001400010064062
:102590006F6E5B5A32FF4D00C4F50020000003103F
:1025A00000ED00E00400FA0501B40248844601BCD5
:1025B000604700BF3DF40020130000000000000051
:1025C00008000F0010001100120013001400150085
:1025D00016001B001C001D001E001F002000230011
:1025E000240025002A002B002C002D002E002F0097
:1025F0003000340038003C003D003E004000410007
:10260000430046004700480049004A004B004C0088
:102610004D004E0054005A005D00600061006200F1
:102620006500660067006A006B0071007200770049
:102630007B007C007E007F008000810082008300A0
:102640008400850086008700880089000000001053
:1026500020000010400000106000001080000010FA
:10266000A0000010C0000010E000001000010010E9
:1026700020010010400100106001001080010010D6
:10268000A0010010C0010010E001001000020010C5
:1026900020020010400200106002001080020010B2
:1026A000A0020010C0020010E002001000030010A1
:1026B000200300104003001060030010800300108E
:0C26C000A0030010C0030010E003001095
:1026CC00006CDC020100000018F400200000000087
:1026DC000000000004F400203201010000000001A1
:1026EC000000000000000000804F120001000000FC
:0C26FC0080F5002010000000000000012C
:102708002C4B53F82020EFF3108C72B62A4B4F2134
:102718005960BFF35F8F294B596A21F480315962A0
:10272800D3F8941021F00101C3F89410BFF34F8F30
:10273800BFF36F8F936953B100235069116950F843
:10274800230041F82300013391699942F5D8BFF37A
:102758005F8F1A4B0521C3F89410596A41F48031F0
:102768005962BFF34F8FBFF36F8F1349144BC1F8F2
:102778000032D368DBB28B605378A3B98CF310882E
:10278800137873B90C494B6813F0800FFBD00A4BD0
:102798005B6813F04E0F14BF01200020537833B943
:1027A80070470020FAE71378002BEBD000208CF359
:1027B8001088704708F500200000014000ED00E097
:0427C800F57395FD13
:0400000300000341B5
:00000001FF
