:100000000000012099070000171B0000191B0000C9
:100010001B1B00001D1B00001F1B0000151B000008
:10002000151B0000151B0000151B0000211B000004
:10003000231B0000151B0000251B0000A140000031
:10004000852C00008F2C0000992C0000A32C0000B0
:10005000AD2C0000B72C0000C12C0000CB2C000000
:10006000D52C0000DF2C0000E92C0000F32C000050
:10007000FD2C0000072D0000112D00001B2D00009D
:10008000252D0000271B0000753C0000893D000065
:10009000291B00002B1B00002D1B00002F1B000044
:1000A000311B0000331B0000351B0000371B000014
:1000B000391B00003B1B00003D1B00003F1B0000E4
:1000C000151B0000411B0000151B0000431B000016
:1000D000151B0000151B0000151B0000451B000030
:1000E000471B0000491B0000151B0000151B0000EA
:1000F0004B1B0000151B00004D1B00004F1B000098
:10010000511B0000531B0000551B0000571B000033
:10011000591B0000151B0000151B0000151B0000DB
:10012000151B00005B1B00005D1B00005F1B000037
:10013000611B0000631B0000651B0000671B0000C3
:10014000151B0000151B0000151B0000151B0000EF
:10015000691B0000151B0000151B0000151B00008B
:10016000151B0000151B0000151B0000151B0000CF
:10017000151B0000151B00006B1B00006D1B000011
:100180006F1B0000711B0000731B0000751B00003B
:10019000771B0000791B00007B1B00007D1B00000B
:1001A0007F1B0000811B0000831B0000851B0000DB
:1001B000871B0000891B00008B1B00008D1B0000AB
:1001C0008F1B0000911B0000931B0000951B00007B
:1001D000971B0000991B00009B1B00009D1B00004B
:1001E0009F1B0000A11B0000A31B0000A51B00001B
:1001F000A71B0000A91B0000AB1B0000AD1B0000EB
:10020000AF1B0000B11B0000B31B0000B51B0000BA
:10021000B71B0000B91B0000BB1B0000BD1B00008A
:10022000BF1B0000C11B0000C31B0000C51B00005A
:10023000C71B0000C91B0000CB1B0000CD1B00002A
:10024000CF1B0000D11B0000D31B0000D51B0000FA
:10025000D71B0000D91B0000DB1B0000151B000092
:10026000151B0000151B0000151B0000151B0000CE
:10027000151B0000151B0000151B0000151B0000BE
:10028000151B0000151B0000151B0000151B0000AE
:10029000151B0000151B0000151B0000151B00009E
:1002A000151B0000151B0000151B0000151B00008E
:1002B000DD1B0000013C0000DF1B0000E11B000013
:1002C000E31B0000E51B0000E71B0000E91B00002A
:1002D000EB1B0000ED1B0000EF1B0000F11B0000FA
:1002E000F31B0000F51B0000F71B0000F91B0000CA
:1002F000FB1B0000FD1B0000FF1B0000011C000099
:10030000151B0000151B0000031C0000051C00004D
:10031000071C0000091C00000B1C0000151B00003E
:10032000151B00000D1C00000F1C0000111C00001C
:0C033000131C0000151C0000171C00002E
:1004000006000000E1FF130053656375726520620A
:100410006F6F7420707265706172652064656D6FB6
:10042000210A0000536F667477617265206B6579ED
:10043000206D69736D61746368210A00486172649C
:1004400077617265206B6579206D69736D61746386
:1004500068210A00484355206B6579206C6F616400
:100460002073756363657373210A000084578DC41C
:100470008816BBF618ACF6A113B4DAEEF3B8CB3994
:10048000258CAB7F501E1C3BD0E9538C153027DFE9
:1004900013F90336278D29D4FAF691BBD0315BF9D5
:1004A000F1DF5390EF424A210D082AF216157E2BF8
:1004B000A6D2AE288815F7AB3C4FCF09FFFFFFFF50
:1004C000FFFFFFFFFFFFFFFFFFFFFFFF0001020332
:1004D0000405060708090A0B0C0D0E0FFFFFFFFFAE
:1004E000FFFFFFFFFFFFFFFFFFFFFFFF00112233B2
:1004F000445566778899AABBCCDDEEFFFFFFFFFF6E
:10050000FFFFFFFFFFFFFFFFFFFFFFFF10325476EB
:1005100098BADCFE67452301EFCDAB89FFFFFFFFF3
:10052000FFFFFFFFFFFFFFFFFFFFFFFF7223E1ADB4
:100530002331D2FE411F23AF9810F2CD16157E2B2A
:100540000C0D0E0FFFFFFFFFFFFFFFFF3423FCAE7C
:100550002421FE34FE053821C2B2EF232331D2FE1E
:10056000445566773423FCAEEFCDAB89E2BEC16B58
:10057000969F402E117E3DE92A179373578A2DAE20
:100580009CAC031EAC6FB79E518EAF45461CC83065
:1005900011E45CA319C1FBE5EF520A1A45249FF64A
:1005A000179B4FDF7B412BAD10376CE6000100003D
:1005B0000000000000010000000000000001000039
:1005C0000000000000010000000000000101010126
:1005D000000100000100050000366E01000000006F
:1005E00000000000000000000080000001000A017F
:1005F0000000020300000105002001400800000087
:100600000000000002000000000000000010014097
:100610000000000000200140090000000000000070
:100620000200000000000000001001400000000077
:100630009005FF1FA0520000F853000001000000C9
:10064000E806FF1FF85300002054000001000000DE
:1006500000C20100000000010101000000000000D4
:1006600008000F0010001100120013001400150004
:1006700016001B001C001D001E001F002000230090
:10068000240025002A002B002C002D002E002F0016
:100690003000340038003C003D003E004000410086
:1006A000430046004700480049004A004B004C0008
:1006B0004D004E0054005A005D0060006100620071
:1006C0006500660067006A006B00710072007700C9
:1006D0007B007C007E007F00800081008200830020
:1006E00084008500860087008800890000B00140F2
:1006F00000C0014000D0014000E0014000F0014096
:100700000000024044444444444400001F002100CF
:100710002300A300A400A500D5340000DF340000AE
:10072000E9340000F3340000FD3400000735000018
:10073000666E692B00000000666E69006E616E00D7
:10074000666E692D00000000000000000000F03F10
:10075000000000000000244000000000000059409C
:100760000000000000408F40000000000088C340EF
:1007700000000000006AF8400000000080842E4164
:1007800000000000D01263410000000084D79741B0
:100790000000000065CDCD4172B64FF000014FF072
:1007A00000024FF000034FF000044FF000054FF03F
:1007B00000064FF00007B846B946BA46BB46BC46ED
:1007C00000F018F8064885460648804706488047E6
:1007D000064880470648804762B601F0EDF8FEE71C
:1007E00000000120191C0000DD1A00000D4000006F
:1007F0001D1D000014490C684FF001031C401349F3
:10080000134A521A013A06DD4FF05A304FF05A336C
:1008100009C1083AFCDA0F490F4A521A013A06DDBB
:100820004FF05A304FF05A3309C1083AFCDA0B49FD
:100830000B4A521A013A06DD4FF05A304FF05A3344
:1008400009C1083AFCDA704700F007400000FF1FBA
:100850000004FF1F00FC0020000001200004FF1F17
:1008600000FC002081F0004102E000BF83F0004363
:1008700030B54FEA41044FEA430594EA050F08BF3B
:1008800090EA020F1FBF54EA000C55EA020C7FEAFF
:10089000645C7FEA655C00F0E2804FEA5454D4EB7C
:1008A0005555B8BF6D420CDD2C4480EA020281EA46
:1008B000030382EA000083EA010180EA020281EA7E
:1008C0000303362D88BF30BD11F0004F4FEA0131D0
:1008D0004FF4801C4CEA113102D0404261EB4101DF
:1008E00013F0004F4FEA03334CEA133302D0524265
:1008F00063EB430394EA050F00F0A780A4F1010421
:10090000D5F1200E0DDB02FA0EFC22FA05F280185A
:1009100041F1000103FA0EF2801843FA05F3594140
:100920000EE0A5F120050EF1200E012A03FA0EFCBF
:1009300028BF4CF0020C43FA05F3C01851EBE371E9
:1009400001F0004507D54FF0000EDCF1000C7EEB06
:1009500000006EEB0101B1F5801F1BD3B1F5001F44
:100960000CD349085FEA30004FEA3C0C04F1010463
:100970004FEA445212F5800F80F09A80BCF1004F8C
:1009800008BF5FEA500C50F1000041EB045141EA0E
:10099000050130BD5FEA4C0C404141EB0101013CD7
:1009A00028BFB1F5801FE9D291F0000F04BF0146C6
:1009B0000020B1FA81F308BF2033A3F10B03B3F198
:1009C00020020CDA0C3208DD02F1140CC2F10C0228
:1009D00001FA0CF021FA02F10CE002F11402D8BF86
:1009E000C2F1200C01FA02F120FA0CFCDCBF41EA52
:1009F0000C019040E41AA2BF01EB0451294330BD21
:100A00006FEA04041F3C1CDA0C340EDC04F11404FD
:100A1000C4F1200220FA04F001FA02F340EA0300D4
:100A200021FA04F345EA030130BDC4F10C04C4F11A
:100A3000200220FA02F001FA04F340EA03002946FA
:100A400030BD21FA04F0294630BD94F0000F83F444
:100A5000801306BF81F480110134013D4EE77FEA27
:100A6000645C18BF7FEA655C29D094EA050F08BF73
:100A700090EA020F05D054EA000C04BF1946104654
:100A800030BD91EA030F1EBF0021002030BD5FEA98
:100A9000545C05D14000494128BF41F0004130BDC0
:100AA00014F580043CBF01F5801130BD01F0004514
:100AB00045F0FE4141F470014FF0000030BD7FEA87
:100AC000645C1ABF194610467FEA655C1CBF0B4682
:100AD000024650EA013406BF52EA033591EA030F99
:100AE00041F4002130BD00BF90F0000F04BF002191
:100AF000704730B54FF4806404F132044FF00005C4
:100B00004FF0000150E700BF90F0000F04BF00213C
:100B1000704730B54FF4806404F1320410F00045A2
:100B200048BF40424FF000013EE700BF42004FEA9D
:100B3000E2014FEA31014FEA02701FBF12F07F431A
:100B400093F07F4F81F06051704732F07F4208BFD1
:100B5000704793F07F4F04BF41F40021704730B5D8
:100B60004FF4607401F0004521F000411CE700BF24
:100B700050EA010208BF704730B54FF000050AE0A7
:100B800050EA010208BF704730B511F0004502D5A8
:100B9000404261EB41014FF4806404F132045FEAAA
:100BA000915C3FF4D8AE4FF003025FEADC0C18BF53
:100BB00003325FEADC0C18BF033202EBDC02C2F145
:100BC000200300FA03FC20FA02F001FA03FE40EAD7
:100BD0000E0021FA02F11444BDE600BF70B54FF0DB
:100BE000FF0C4CF4E06C1CEA11541DBF1CEA1355B9
:100BF00094EA0C0F95EA0C0F00F0DEF82C4481EA21
:100C0000030621EA4C5123EA4C5350EA013518BF40
:100C100052EA033541F4801143F4801338D0A0FB2D
:100C200002CE4FF00005E1FB02E506F00042E0FBDA
:100C300003E54FF00006E1FB03569CF0000F18BFE0
:100C40004EF0010EA4F1FF04B6F5007F64F5407488
:100C500004D25FEA4E0E6D4146EB060642EAC6211B
:100C600041EA55514FEAC52040EA5E504FEACE2E88
:100C7000B4F1FD0C88BFBCF5E06F1ED8BEF1004F8B
:100C800008BF5FEA500E50F1000041EB045170BD07
:100C900006F0004646EA010140EA020081EA03014B
:100CA000B4EB5C04C2BFD4EB0C0541EA045170BD47
:100CB00041F480114FF0000E013C00F3AB8014F1C1
:100CC000360FDEBF002001F0004170BDC4F100040A
:100CD000203C35DA0C341BDC04F11404C4F120058B
:100CE00000FA05F320FA04F001FA05F240EA0200E6
:100CF00001F0004221F0004110EBD37021FA04F61C
:100D000042EB06015EEA430E08BF20EAD37070BDD5
:100D1000C4F10C04C4F1200500FA04F320FA05F034
:100D200001FA04F240EA020001F0004110EBD37036
:100D300041F100015EEA430E08BF20EAD37070BDA6
:100D4000C4F1200500FA05F24EEA020E20FA04F37F
:100D500001FA05F243EA020321FA04F001F000412E
:100D600021FA04F220EA020000EBD3705EEA430E9F
:100D700008BF20EAD37070BD94F0000F0FD101F0CE
:100D80000046400041EB010111F4801F08BF013C07
:100D9000F7D041EA060195F0000F18BF704703F045
:100DA0000046520043EB030313F4801F08BF013DCC
:100DB000F7D043EA0603704794EA0C0F0CEA135588
:100DC00018BF95EA0C0F0CD050EA410618BF52EA42
:100DD0004306D1D181EA030101F000414FF0000048
:100DE00070BD50EA410606BF1046194652EA430656
:100DF00019D094EA0C0F02D150EA013613D195EACA
:100E00000C0F05D152EA03361CBF104619460AD111
:100E100081EA030101F0004141F0FE4141F470011B
:100E20004FF0000070BD41F0FE4141F4780170BD0B
:100E300070B54FF0FF0C4CF4E06C1CEA11541DBF70
:100E40001CEA135594EA0C0F95EA0C0F00F0A7F872
:100E5000A4EB050481EA030E52EA03354FEA01319F
:100E600000F088804FEA03334FF0805545EA1313B2
:100E700043EA12634FEA022245EA111545EA10657A
:100E80004FEA00260EF000419D4208BF964244F111
:100E9000FD0404F5407402D25B084FEA3202B61A30
:100EA00065EB03055B084FEA32024FF480104FF404
:100EB000002CB6EB020E75EB030E22BFB61A754678
:100EC00040EA0C005B084FEA3202B6EB020E75EB0B
:100ED000030E22BFB61A754640EA5C005B084FEA73
:100EE0003202B6EB020E75EB030E22BFB61A754640
:100EF00040EA9C005B084FEA3202B6EB020E75EB4B
:100F0000030E22BFB61A754640EADC0055EA060E0B
:100F100018D04FEA051545EA16754FEA06164FEA4E
:100F2000C30343EA52734FEAC2025FEA1C1CC0D1FA
:100F300011F4801F0BD141EA00014FF000004FF087
:100F4000004CB6E711F4801F04BF01430020B4F148
:100F5000FD0C88BFBCF5E06F3FF6AFAEB5EB030C00
:100F600004BFB6EB020C5FEA500C50F1000041EBFD
:100F7000045170BD0EF0004E4EEA113114EB5C04CA
:100F8000C2BFD4EB0C0541EA045170BD41F480119D
:100F90004FF0000E013C90E645EA060E8DE60CEAA5
:100FA000135594EA0C0F08BF95EA0C0F3FF43BAFC2
:100FB00094EA0C0F0AD150EA01347FF434AF95EA79
:100FC0000C0F7FF425AF104619462CE795EA0C0F5D
:100FD00006D152EA03353FF4FDAE1046194622E72A
:100FE00050EA410618BF52EA43067FF4C5AE50EA04
:100FF00041047FF40DAF52EA43057FF4EBAE12E7F4
:101000004FF0FF3C06E000BF4FF0010C02E000BFD4
:101010004FF0010C4DF804CD4FEA410C7FEA6C5CB7
:101020004FEA430C18BF7FEA6C5C1BD001B050EA5A
:10103000410C0CBF52EA430C91EA030F02BF90EA45
:10104000020F0020704710F1000F91EA030F58BF04
:10105000994208BF90422CBFD8176FEAE37040F066
:10106000010070474FEA410C7FEA6C5C02D150EA04
:10107000013C07D14FEA430C7FEA6C5CD6D152EABF
:10108000033CD3D05DF8040B704700BF8446104684
:1010900062468C461946634600E000BF01B5FFF783
:1010A000B7FF002848BF10F1000F01BD4DF808ED53
:1010B000FFF7F4FF0CBF012000205DF808FB00BF24
:1010C0004DF808EDFFF7EAFF34BF012000205DF87E
:1010D00008FB00BF4DF808EDFFF7E0FF94BF0120CB
:1010E00000205DF808FB00BF4DF808EDFFF7CEFFCC
:1010F00094BF012000205DF808FB00BF4DF808ED0B
:10110000FFF7C4FF34BF012000205DF808FB00BFDB
:101110004FEA410212F5001215D211D56FF478731F
:10112000B3EB625212D94FEAC12343F0004343EAC2
:10113000505311F0004F23FA02F018BF404270479D
:101140004FF00000704750EA013005D111F0004027
:1011500008BF6FF0004070474FF00000704700BFBD
:101160004A0011D212F5001211D20DD56FF4787326
:10117000B3EB62520ED44FEAC12343F0004343EA7B
:10118000505323FA02F070474FF00000704750EAC6
:10119000013002D14FF0FF3070474FF00000704730
:1011A00080F0004002E000BF81F0004142001FBF1C
:1011B0005FEA410392EA030F7FEA226C7FEA236C25
:1011C0006AD04FEA1262D2EB1363C1BFD21841401A
:1011D00048404140B8BF5B42192B88BF704710F0B0
:1011E000004F40F4000020F07F4018BF404211F053
:1011F000004F41F4000121F07F4118BF494292EABB
:10120000030F3FD0A2F1010241FA03FC10EB0C00E6
:10121000C3F1200301FA03F100F0004302D5494273
:1012200060EB4000B0F5000F13D3B0F1807F06D320
:1012300040084FEA310102F10102FE2A51D2B1F118
:10124000004F40EBC25008BF20F0010040EA03000D
:101250007047490040EB0000013A28BFB0F5000F8D
:10126000EDD2B0FA80FCACF1080CB2EB0C0200FA43
:101270000CF0AABF00EBC25052421843BCBFD04092
:101280001843704792F0000F81F4000106BF80F40C
:1012900000000132013BB5E74FEA41037FEA226CCF
:1012A00018BF7FEA236C21D092EA030F04D092F09A
:1012B000000F08BF0846704790EA010F1CBF0020CE
:1012C000704712F07F4F04D1400028BF40F000402B
:1012D000704712F100723CBF00F50000704700F04B
:1012E000004343F0FE4040F4000070477FEA226272
:1012F00016BF08467FEA23630146420206BF5FEA43
:10130000412390EA010F40F4800070474FF0000342
:1013100004E000BF10F0004348BF40425FEA000C09
:1013200008BF704743F0964301464FF000001CE0B1
:1013300050EA010208BF70474FF000030AE000BF07
:1013400050EA010208BF704711F0004302D5404245
:1013500061EB41015FEA010C02BF844601460020B7
:1013600043F0B64308BFA3F18053A3F50003BCFAD2
:101370008CF2083AA3EBC25310DB01FA02FC63447F
:1013800000FA02FCC2F12002BCF1004F20FA02F286
:1013900043EB020008BF20F00100704702F1200279
:1013A00001FA02FCC2F1200250EA4C0021FA02F2DA
:1013B00043EB020008BF20EADC7070474FF0FF0CDF
:1013C0001CEAD0521EBF1CEAD15392EA0C0F93EADA
:1013D0000C0F6FD01A4480EA010C400218BF5FEA7C
:1013E00041211ED04FF0006343EA501043EA5111EF
:1013F000A0FB01310CF00040B1F5000F3EBF4900E9
:1014000041EAD3715B0040EA010062F17F02FD2AEC
:101410001DD8B3F1004F40EBC25008BF20F00100CF
:10142000704790F0000F0CF0004C08BF49024CEAE6
:10143000502040EA51207F3AC2BFD2F1FF0340EA78
:10144000C250704740F400004FF00003013A5DDCE9
:1014500012F1190FDCBF00F000407047C2F100022A
:10146000410021FA02F1C2F1200200FA02FC5FEA17
:10147000310040F1000053EA4C0308BF20EADC7061
:10148000704792F0000F00F0004C02BF400010F4D3
:10149000000F013AF9D040EA0C0093F0000F01F080
:1014A000004C02BF490011F4000F013BF9D041EAA2
:1014B0000C018FE70CEAD15392EA0C0F18BF93EAA4
:1014C0000C0F0AD030F0004C18BF31F0004CD8D1CE
:1014D00080EA010000F00040704790F0000F17BF55
:1014E00090F0004F084691F0000F91F0004F14D09B
:1014F00092EA0C0F01D142020FD193EA0C0F03D1F3
:101500004B0218BF084608D180EA010000F00040F5
:1015100040F0FE4040F40000704740F0FE4040F4D0
:10152000400070474FF0FF0C1CEAD0521EBF1CEA6F
:10153000D15392EA0C0F93EA0C0F69D0A2EB03028D
:1015400080EA010C49024FEA402037D04FF0805327
:1015500043EA111143EA10130CF000408B4238BFEC
:101560005B0042F17D024FF4000C8B4224BF5B1AFA
:1015700040EA0C00B3EB510F24BFA3EB510340EA48
:101580005C00B3EB910F24BFA3EB910340EA9C00F6
:10159000B3EBD10F24BFA3EBD10340EADC001B0166
:1015A00018BF5FEA1C1CE0D1FD2A3FF650AF8B420A
:1015B00040EBC25008BF20F0010070470CF0004C17
:1015C0004CEA50207F32C2BFD2F1FF0340EAC25042
:1015D000704740F400004FF00003013A37E792F003
:1015E000000F00F0004C02BF400010F4000F013A61
:1015F000F9D040EA0C0093F0000F01F0004C02BF5C
:10160000490011F4000F013BF9D041EA0C0195E7C4
:101610000CEAD15392EA0C0F08D142027FF47DAF5D
:1016200093EA0C0F7FF470AF084676E793EA0C0F4D
:1016300004D14B023FF44CAF08466EE730F0004C4B
:1016400018BF31F0004CCAD130F000427FF45CAFDB
:1016500031F000437FF43CAF5FE700BF42000ED2A1
:10166000B2F1FE4F0BD34FF09E03B3EB126209D4DD
:101670004FEA002343F0004323FA02F070474FF093
:101680000000704712F1610F01D1420202D14FF008
:10169000FF3070474FF00000704700BF53B94AB9A0
:1016A000002908BF00281CBF4FF0FF314FF0FF306A
:1016B00000F080B9ADF1080C6DE904CE00F006F839
:1016C000DDF804E0DDE9022304B070472DE9F04FB6
:1016D000099E0D4604460F46002B47D18A42944688
:1016E0005FD9B2FA82F343B1C3F120019F4002FAFD
:1016F00003FC9C4020FA01F10F434FEA1C451FFAFE
:101700008CFE220CB7FBF5F105FB117701FB0EF007
:1017100042EA0742904208D91CEB020201F1FF376E
:1017200002D2904200F234813946121AA4B2B2FBBE
:10173000F5F005FB102200FB0EFE44EA0244A6452C
:1017400008D91CEB040400F1FF3202D2A64500F2D6
:101750001981104640EA0140A4EB0E0400211EB19D
:10176000DC400023C6E90043BDE8F08F8B4208D976
:10177000002E00F0FB800021C6E900050846BDE808
:10178000F08FB3FA83F100294BD1AB42C0F0F18066
:10179000824240F2EE800846002EE5D0C6E90047BE
:1017A000E2E702B9FFDEB2FA82F3002B40F09D803F
:1017B0008D1A4FEA124E97B20121B5FBFEF20EFBD5
:1017C0001250250C45EA004507FB02F0A8420FD94C
:1017D0001CEB050502F1FF382CBF4FF001094FF05B
:1017E0000009A84203D9B9F1000F00F0CE804246AB
:1017F0002D1AA4B2B5FBFEF00EFB105500FB07F747
:1018000044EA0544A74208D91CEB040400F1FF3563
:1018100002D2A74200F2B3802846E41B40EA02400D
:101820009DE7C1F120078B4005FA01F422FA07FC7D
:10183000FD408A404CEA030C20FA07F34FEA1C49AA
:101840001C431FFA8CFE00FA01F3200CB5FBF9F8DB
:1018500009FB185540EA054508FB0EF0A8420FD9D0
:101860001CEB050508F1FF3A2CBF4FF0010B4FF0C0
:10187000000BA84203D9BBF1000F00F08C80D046CA
:101880002D1AA4B2B5FBF9F009FB105500FB0EFEB2
:1018900044EA0545AE4507D91CEB050500F1FF34C8
:1018A00001D2AE457ED8204640EA0840A5EB0E05A1
:1018B000A0FB029845454C46C64602D306D14B458F
:1018C00004D20138B9EB020468EB0C0E002E6FD085
:1018D0001A1B65EB0E0522FA01F305FA07F7CD4056
:1018E00000211F43C6E900753EE702FA03FCC3F17D
:1018F000200001FA03F24FEA1C4EC14024FA00F521
:101900001FFA8CF79C401543B1FBFEF02A0C0EFB2E
:10191000101142EA014200FB07F191420ED91CEB83
:10192000020200F1FF382CBF4FF001094FF000090F
:10193000914202D9B9F1000F31D04046521AADB2EE
:10194000B2FBFEF10EFB112245EA024501FB07F254
:10195000AA4207D91CEB050501F1FF3801D2AA42C2
:1019600023D84146AD1A41EA004126E731463046C8
:10197000FAE6841A65EB030301201F460CE7644472
:1019800002384AE764440238E4E6023A65442FE745
:1019900002396244C9E6A8F10208654470E70238DA
:1019A0006244CBE7023865447EE702396544D9E7F3
:1019B0003146D9E6704700BF70B50023344A012193
:1019C000344800F0EDFA0021084600F09FFD32494E
:1019D000022000F01DFE00F0A3F93049304801F06C
:1019E00099FF304A3049002002F0F2F92F4803F005
:1019F00033FC2F4B2F4AC3F804224FF080510020B4
:101A000002F020FA2C4D2B46C0224FF080510020CE
:101A100002F05AFA00F0D8FE4FF08051002002F098
:101A2000B1FA00F0C3FE254B5A6822F440725A60A6
:101A30005A685A60224C234E22464021304601F01B
:101A4000CFFF0021284601F095FF1F4D2A46402177
:101A5000304601F0C5FF2B461C48224605F1400CDC
:101A600053F8044B50F8041B8C4209D152F8044B34
:101A7000A14209D16345F3D1154803F0EDFBFEE720
:101A8000144803F0E9FBFAE7134803F0E5FBF6E737
:101A90008004FF1F0407FF1FF8050000C804FF1F94
:101AA0005C0600001805FF1F1005FF1F080400005A
:101AB0000000014032FF4D00AC0400000070064001
:101AC0000004FF1F6C0500004004FF1F6C040000B1
:101AD00054040000240400003C0400000A4A0B4B9C
:101AE0009B1A4FEA930C0A494FF0E020C0F8081DFA
:101AF000032B07D9002352F8040B41F8040B0133E0
:101B00009C45F8D8704700BF000000003C0300006F
:101B10000000FF1FFEE7FEE7FEE7FEE7FEE7FEE749
:101B2000FEE7FEE7FEE7FEE7FEE7FEE7FEE7FEE78D
:101B3000FEE7FEE7FEE7FEE7FEE7FEE7FEE7FEE77D
:101B4000FEE7FEE7FEE7FEE7FEE7FEE7FEE7FEE76D
:101B5000FEE7FEE7FEE7FEE7FEE7FEE7FEE7FEE75D
:101B6000FEE7FEE7FEE7FEE7FEE7FEE7FEE7FEE74D
:101B7000FEE7FEE7FEE7FEE7FEE7FEE7FEE7FEE73D
:101B8000FEE7FEE7FEE7FEE7FEE7FEE7FEE7FEE72D
:101B9000FEE7FEE7FEE7FEE7FEE7FEE7FEE7FEE71D
:101BA000FEE7FEE7FEE7FEE7FEE7FEE7FEE7FEE70D
:101BB000FEE7FEE7FEE7FEE7FEE7FEE7FEE7FEE7FD
:101BC000FEE7FEE7FEE7FEE7FEE7FEE7FEE7FEE7ED
:101BD000FEE7FEE7FEE7FEE7FEE7FEE7FEE7FEE7DD
:101BE000FEE7FEE7FEE7FEE7FEE7FEE7FEE7FEE7CD
:101BF000FEE7FEE7FEE7FEE7FEE7FEE7FEE7FEE7BD
:101C0000FEE7FEE7FEE7FEE7FEE7FEE7FEE7FEE7AC
:101C1000FEE7FEE7FEE7FEE7F0B583B03A4B1D684E
:101C20000023009302230093009B002B3ED005F07D
:101C30000105364C4FF0000C31E055B35668116881
:101C400093689B1B03F003028DF807209DF8072083
:101C50009B1A5FEA930E09D0331F0A1F03EB8E070E
:101C600053F8040F42F8040FBB42F9D14FEA8E0338
:101C70009DF807206AB1F218581E0144164612F862
:101C8000013B01F8013F9DF80730DBB2901B834216
:101C9000F5D80CF1010C009B1034634506D922469F
:101CA000237B022BC9D0002BF3D0C7E7012300937D
:101CB000009B33B3164C174A121B02F003038DF836
:101CC00007309DF80730D21A920807D004EB820043
:101CD0002346002143F8041B9842FBD192009DF853
:101CE00007306BB10C4810440025034600F8015F33
:101CF0009DF80710C9B202331B1B9B1A9942F4D8F6
:101D0000009B03B0F0BD00BF00F0074030060000AC
:101D10000004FF1F8C05FF1FFF03FF1F704700001B
:101D200008B5034A0349022001F09EF908BD00BF2F
:101D3000500600008404FF1F00B583B08DF8070033
:101D400001220DF10701022001F07CFA03B05DF8D9
:101D500004FB00000A490A6822F0030200F00303B2
:101D600013430B604FF470528B6803F003039842E7
:101D700004D0013AF8D140F60120704700207047A6
:101D800000C0074030B5184A9569936923F4706321
:101D900043F4807393614FF4705C012086461446CF
:101DA00003E00F2B08BF4FF0FF3E00EB0E03D8B24D
:101DB0005BB2A26812F0080F11D1BCF1010C0BD07C
:101DC000A16921F47061020202F470620A43A26107
:101DD000012BE6D19E46E8E740F6062000E0002011
:101DE000014B9D6130BD00BF00C00740104B9B6898
:101DF00013F0200F17D00E4B1B6A13F0100F06BF05
:101E00000C4B1A680C4A0A490B6A096AC3F303238C
:101E10000133B2FBF3F3C1F3054202FB03335B086A
:101E2000036000207047002303604FF48070704708
:101E300000C007405805FF1F00D8B80538B5044654
:101E40000D463B283CD8504B33F81040A40004F119
:101E5000804404F5FA24236813F0010F0AD02368A4
:101E6000C3F30223013B042B27D8DFE803F0081457
:101E7000181D220000230B604FF480700AE0434BD2
:101E80000B6000202368C3F3034301332A68B2FBCD
:101E9000F3F32B6038BD3E4B0B600020F2E73D4B67
:101EA0001B680B600020EDE73B4B1B680B600020BC
:101EB000E8E70846FFF79AFFE4E700200860E1E75B
:101EC000412821D8A0F13D04042C1AD8DFE804F001
:101ED00003070B1015002E4B0B600020DAE72B4B8D
:101EE0000B600020D6E72B4B1B680B600020D1E76E
:101EF000294B1B680B600020CCE70846FFF776FFF4
:101F0000C8E700200860C5E745283AD8234B9B68FE
:101F100003F00303032B31D8DFE803F00223272C5F
:101F20001A4B0B6000201D4BDB68C3F303435A1CA4
:101F30002B68B3FBF2F32B60432CABD0174AD2686B
:101F4000C2F303220132B3FBF2F32B60452CA1D183
:101F5000124AD26802F00F020132B3FBF2F32B6097
:101F600098E70846FFF742FFDDE70A4B1B680B6066
:101F70000020D8E7064B0B600020D4E70020086063
:101F8000D1E7002086E700BF6006000000D8B80552
:101F9000001BB7005805FF1F5C05FF1F00C007406E
:101FA00010B4044C20602171A2602373637300207D
:101FB00010BC70474805FF1F08B5FFF73FFF08BD7D
:101FC000F0B583B0864658B343684BB303683BB360
:101FD0004FF0000C9C4CDEF8043013F82C3034F831
:101FE00013309B0003F1804303F5FA231A6822F0B3
:101FF00001021A60DEF8041001EB8C018A781202EB
:1020000002F4E062C878000400F4702002434978CA
:102010000A431A600CF1010CDEF800309C45DAD35B
:10202000DEF80840002C00F03982DEF80C60874BA7
:1020300000221A645A6C5A640320FFF78BFE05468F
:10204000002840F0D281814B5B6923F002032278A3
:10205000002A14BF0222002213437C4A53615369B1
:1020600023F004036278002A14BF042200221343E1
:10207000764A5361536923F00803A278002A14BFFB
:10208000082200221343714A5361116921F00101B2
:10209000E3780B431361136923F002032279002ACA
:1020A00014BF022200221343684A1361002E00F07D
:1020B000AB80B289654B1A65F2895A651A6CB17AA0
:1020C00022F4003242EA41421A641A6C717A22F414
:1020D000007242EA41221A641A6C317A22F002023A
:1020E00042EA41021A64237D002B00F0A180574A86
:1020F000D36923F01003A17D81F0010143EA0113AC
:10210000D361D36923F00403E27D002A14BF0422C3
:10211000002213434D4AD361D36923F00203227E88
:10212000002A14BF022200221343484AD361D36914
:1021300023F00803627E002A14BF08220022134302
:10214000424AD361D16921F00101237D0B43D36160
:10215000E2693F4B1A60237A002B00F0A0803B4AD3
:10216000916921F47061A37A1B0203F470630B433D
:102170009361936923F48053617A81F0010143EA0A
:1021800001339361926922F40052237C002B14BF27
:102190004FF4005300231A432C4B9A619A6922F0A2
:1021A0001002617A81F0010142EA01129A619A6992
:1021B00042F001029A61FFF7E5FD8446002840D114
:1021C000E268244B1A600121002E45D0B28B1F4BD0
:1021D0001A66F28B5A661A6CB07E22F4002242EA2A
:1021E000C0421A641A6C707E22F4006242EAC02275
:1021F0001A641A6C307E22F0080242EAC0021A64A5
:10220000002954D16546F0E0104B4FF4A0621A65E6
:102210004FF440725A651A6C22F400321A641A6C38
:1022200042F400721A641A6C42F002021A645AE70D
:10223000064AD36923F00103D361054B00221A60DB
:1022400089E70021C0E700BF6006000000C007402A
:102250005C05FF1F5805FF1FA64B1B68A64AA2FB83
:1022600003239B0C03EB8300C001A44AA2FB007074
:10227000400903EB4303DB01A2FB03235B09A04AF4
:1022800010665366136C23F400231364136C43F439
:1022900000631364136C43F008031364B0E7984AB7
:1022A000936923F001039361924B00221A60944AD0
:1022B000136A23F00103136294F82030002B35D108
:1022C0008F4A516821F4702194F824301B0403F4E0
:1022D00070230B435360516821F4706194F82530EA
:1022E0001B0203F470630B435360516821F00F012C
:1022F00094F8263003F00F030B43536081490A68BA
:1023000094F827301B0203F4706322F470621343C5
:102310000B604FF470537A4AD0685168884200F0DD
:10232000BF80013BF8D140F602255EE0116A21F042
:10233000100194F821301B0103F010030B431362CA
:10234000116A21F47C1194F82230013B1B0403F440
:102350007C130B431362116A21F4706194F82330EB
:10236000013B1B0203F470630B431362136A43F0D7
:10237000010313620023184608E0116A41F00101CD
:1023800011620133B3F5705F00F0AC80916811F019
:10239000200F0AD123FA00F1F029EED10130C0B2AA
:1023A000116A21F001011162EBE70227002E34D0FF
:1023B000B28A534B9A65F28ADA651A6CB17C22F4C0
:1023C000802242EA81421A641A6C717C22F4806293
:1023D00042EA81221A641A6C317C22F0040242EA39
:1023E00081021A64002F7FF46BAF47494320FFF747
:1023F000E3FD01A94320FFF7DFFD42490A68019B85
:102400003D48A0FB0303DB0803F47F0322F47F02B3
:1024100013430B60284603B0F0BD01A8FFF7E6FCAC
:10242000019B354AA2FB03239B0C03EB8301C901EB
:10243000324AA2FB0101490903EB4303DB01A2FB82
:1024400003235B092E4A9165D365136C23F4802323
:102450001364136C43F480631364136C43F004033C
:102460001364BFE794F8293093B1254AD16A21F06B
:10247000070194F82B3003F007030B43D362D36AB0
:1024800023F47F4394F82A1043EA0123D3620DE03A
:102490001B4AD36A23F00703D36207E00025B9E79C
:1024A0006079FFF757FC05460028DBD0002E9CD052
:1024B000B288134B9A64F288DA641A6CB17822F409
:1024C000803242EA01421A641A6C717822F48072F6
:1024D00042EA01221A641A6C22F0010231780A439E
:1024E0001A6482E7064B4FF480321A6240F60325E5
:1024F00000275BE75805FF1F83DE1B43ABAAAAAA90
:1025000000C00740000001400C07FF1F2DE9F0410B
:1025100082B080460F468DF804008DF8051000F05B
:1025200053F93A4A137B537301228DF80620002B8E
:1025300056D00024354D04E001342A7BE3B29A42A0
:102540004ED9E6B2AB6853F82630002BF4D01A7996
:10255000022AF1D01A68996801A890470028EBD0A8
:102560006E73002FE8D140F2031544E002238DF88A
:102570000630264B1B7BEBB10024244E04E00134D3
:10258000327BE3B29A4215D95FFA84F8B36853F804
:102590002830002BF3D01A79012AF0D01A689968F4
:1025A00001A890470028EAD086F80D80002FE6D1D8
:1025B0004FF4827500F0FAF8284602B0BDE8F081C9
:1025C0000134327BE3B29A42F4D9E3B2B26852F8F2
:1025D0002330002BF4D01A68996801A89047EFE7E0
:1025E0000A4C236853F82800FFF7EAFC84F80580BA
:1025F00005460028BAD000238DF80630034B1B7B1C
:10260000002BD7D00024014EDFE700BF4805FF1F95
:1026100060B170B506460C460025204600F008F86B
:1026200001351C34AE42F8D1002070BD0020704747
:1026300030B40468456854F82510037A012B50D053
:10264000022B53D0002B49D0427A920002F00402B0
:1026500021F014031A43837A002B14BF10230023A4
:102660001343C27A920102F0400223F4E8631A4352
:10267000037B1B0203F4E063134344F82530C37B60
:10268000002B36D14268436903EB8203D3F88020E4
:1026900022F48032C3F88020037B012B47D04268AC
:1026A000436903EB8203D3F8802022F00F02C3F8C2
:1026B00080204368426902EB8302D2F88010437B9A
:1026C00003F00F030B43C2F88030837B23B14269D0
:1026D000416801238B40D36130BC704721F0020177
:1026E000B2E721F0010141F00201ADE741F0030141
:1026F000AAE74368426902EB8302D2F8803023F0F4
:10270000F853C2F88030D2F88010037C1B0603F027
:10271000F8530B43C2F880304268436903EB8203ED
:10272000D3F8802042F48032C3F88020B4E74169B6
:102730004B69027E22B1012A08D042695361AEE79B
:10274000416801228A4023EA0203F6E74468012235
:10275000A2401343427E22B9012202FA04F48C60A3
:10276000EBE7012A04BF02FA04F44C60E5E700003D
:10277000064B9B6894462AB100F1100253F82220C0
:10278000CCF80020103043F82010704700ED00E036
:10279000002808DB420900F01F00012303FA00F0C3
:1027A000014B43F82200704700E100E0054B1B6835
:1027B000002B04DD013B034A1360002B00DD704752
:1027C00062B6FCE76005FF1F72B6024A1368013368
:1027D000136070476005FF1F10B4054B1B6853F86A
:1027E0002040616053F820309A60002010BC704790
:1027F0006405FF1F08B50E4B1B6853F820200D4BD6
:102800005B6800F00F00C34013F0010F00D108BD5A
:10281000012303FA00F0074B586258605B68002AF6
:10282000F5D05368002BF2D0117B90689847EEE703
:102830006405FF1F0080004038B5044600F00F0516
:10284000002229460B4800F037F90B4B1B6853F860
:1028500024306BB101221A735A6812B1197B98683F
:1028600090470121A940034B596259605A68D960C9
:1028700038BD00BF008000406405FF1F2DE9F04F08
:1028800085B00291174603939DF838900F9E01245E
:1028900004FA09F4E2B2B6FBF2F302FB13631BB1D4
:1028A000012005B0BDE8F08F054600F00F08DFF805
:1028B00010A100224146504600F0FEF84146504625
:1028C00000F020F94FEA481B0AEB4812B2F81C341A
:1028D0009BB223F0300343F02003A2F81C34DAF853
:1028E000003043F48063CAF800300BF1804B0BF5E5
:1028F000004BCBF80074039BC2F81034CDF8049061
:10290000CDF8009000231A464146504600F016F9D3
:10291000029B032B10D8DFE803F0022C3A47002378
:10292000ABF8043464B2A4B24FEA481303F1804315
:1029300003F50043A3F81444214C32464146204697
:1029400000F013F901224146204600F06EF904EB35
:102950004814B4F81C346FEA43436FEA53439BB204
:10296000A4F81C34174B1B6853F82530002018734B
:1029700097E764B2A4B2ABF804444FEA481303F1FA
:10298000804303F500430022A3F81424D4E764B283
:10299000A4B2ABF804444FEA481303F1804303F5B3
:1029A0000043A3F81444C7E70022ABF804244FEA1D
:1029B000481303F1804303F50043A3F81424BBE755
:1029C000008000406405FF1F70B582B00446079D7B
:1029D00001959DF818500095FFF750FF054610B17E
:1029E000284602B070BD04F00F04144E089A214628
:1029F000304600F01AF906EB4416B6F81C3423F002
:102A000008031B041B0C9DF82420002A14BF082275
:102A100000221343620102F1804202F50042A2F853
:102A20001C34074B1B6893F84030002BD8D001238F
:102A30000F222146014800F0C3F8D1E70080004092
:102A40006405FF1F08B5012200F00F01024800F0E5
:102A500033F8002008BD00BF0080004008B5002208
:102A600000F00F01024800F027F8002008BD00BF69
:102A70000080004000F00F00400100F1804000F5B0
:102A80000040C0F80C14704700F00F00400100F146
:102A9000804000F50040C0F81014704708B50A46A1
:102AA00000F00F01014800F0C0F808BD00800040B0
:102AB0000048704700800040F8B505460F461646AE
:102AC000FFF782FE2B6843F400332B6032232C681F
:102AD000002C01DA013BFAD166B1AA69012303FA9D
:102AE00007F71743AF612B6823F400332B60FFF720
:102AF0005DFEF8BDAB69012202FA07F723EA07077A
:102B0000AF61F0E700EB41110023C1F808344FF04A
:102B10005A32C1F80024A1F80434A1F80634C1F8EF
:102B20000C34C1F81024A1F81434A1F81634C1F8FB
:102B30001834A1F81C34A1F81E347047DB005FFA8A
:102B400083FC9DF8043003F0070343EA0C0343EAD7
:102B5000C2239DF80020120202F4E06213439BB2EC
:102B6000203100EB4110C3807047036813F4806F7D
:102B700021D000EB4113D3F80834002B0DDB00EB20
:102B80004113D3F8083413F0804F06D122F04042AD
:102B900000EB4110C0F80824704700EB4110D0F85A
:102BA000083423F47F7323F00303C2F309021A43AA
:102BB000C0F80824704700EB4110C0F808247047A3
:102BC00000EB411CBCF81EC4CCF30E0C13B34CF448
:102BD000004C00EB4111A1F81EC4B1F816346FEAA5
:102BE00043436FEA53439BB2A1F81634B1F81E3445
:102BF0009BB2520202F4F05223F4F0531343A1F8B3
:102C00001E34B1F816349BB223F4F0531A43A1F8E2
:102C10001624704700EB4111A1F81EC4B1F8163418
:102C2000C3F30E03A1F81634704700EB4113B3F859
:102C30001E3413F4004F12D100EB4110B0F81E34D3
:102C4000C2F30E0203F400431343A0F81E34B0F89D
:102C5000163403F400431A43A0F81624704700EB1F
:102C60004110B0F81E34C2F3080203F47E4313434C
:102C7000A0F81E34B0F8163403F47E431A43A0F8CB
:102C80001624704708B50020FFF7B4FD08BD08B54D
:102C90000120FFF7AFFD08BD08B50220FFF7AAFD30
:102CA00008BD08B50320FFF7A5FD08BD08B5042041
:102CB000FFF7A0FD08BD08B50520FFF79BFD08BD87
:102CC00008B50620FFF796FD08BD08B50720FFF7F9
:102CD00091FD08BD08B50820FFF78CFD08BD08B5BB
:102CE0000920FFF787FD08BD08B50A20FFF782FD20
:102CF00008BD08B50B20FFF77DFD08BD08B50C2009
:102D0000FFF778FD08BD08B50D20FFF773FD08BD7E
:102D100008B50E20FFF76EFD08BD08B50F20FFF7C0
:102D200069FD08BD38B50020FFF7C2FEC568002464
:102D300004E06D080134E4B2102C06D015F0010F48
:102D4000F7D02046FFF778FDF3E738BD174B53F86F
:102D50002030174A52F8201093F83420012A10D955
:102D60009A68012A18D0186890F801C0027842EADF
:102D70000C220A871A6802321A609A68023A9A602C
:102D800070471A68127881F838201A6801321A6080
:102D90009A68013A9A6070471A6812780A871A6826
:102DA00001321A609A68013A9A6070476805FF1FFD
:102DB000EC060000184B53F82030184A52F8202037
:102DC00093F83410012911D9D968012919D0908FAD
:102DD00059680870928F5968C2F307224A705A687E
:102DE00002325A60DA68023ADA607047596892F83B
:102DF0003C200A705A6801325A60DA68013ADA6097
:102E00007047918F5A6811705A6801325A60DA68B7
:102E1000013ADA60704700BF6805FF1FEC0600004A
:102E200038B5134B53F82040124B53F82050FFF79E
:102E3000CBFC636823F002036360FFF7B7FCFFF786
:102E4000C3FC236923F010032361FFF7AFFCAB7CC5
:102E500043B900232B74AB8F9BB2022B04BF00231A
:102E6000AB8738BD05F1360001F022F9F1E700BF6C
:102E7000EC0600006805FF1F38B5134B53F82050CF
:102E8000124B53F82040FFF79FFC636823F00403C4
:102E90006360FFF78BFCFFF797FC236923F02003A7
:102EA0002361FFF783FCEB7C43B900236B74EB8F4A
:102EB0009BB2022B04BF0023EB8738BD05F1350020
:102EC00001F0F6F8F1E700BF6805FF1FEC0600000F
:102ED00038B5254B53F82050244B53F8204094F834
:102EE0003900FFF7BBFDE38F9BB2022B12D0E368E2
:102EF000C3B1616894F83900FFF7C6FDE16894F842
:102F00003900FFF7CBFD0023E36094F83900FFF7A9
:102F100099FD38BDE369002BE9D0226A00212046E3
:102F20009847E4E70023C5F89C30FFF74DFC2B6978
:102F300023F020032B61FFF739FCE37C7BB90023EE
:102F40006374E38F9BB2022BE3D10023E387E36931
:102F5000002BDED0226A022120469847D9E704F1EF
:102F6000350001F0A5F8EAE7EC0600006805FF1F50
:102F700070B582B005460E46384B53F8204001A983
:102F8000374B185CFFF718F8364B53F825301A7C8E
:102F9000002A4ED15B7C002B4ED10198FEF7B6F98A
:102FA00005463046FEF7B2F94FF08341FEF706FAC8
:102FB00001462846FEF7B6FA0646FEF74FFB0546E1
:102FC000FEF7A4F901463046FEF7EEF84FF08341D4
:102FD000FEF7F4F94FF07C51FEF7E8F8FEF73EFB00
:102FE000C2B2102A04BF01350022A368C3F3033321
:102FF000012B23D0236823F0020343F00103236055
:10300000A368C3F30333012BFAD1A36A1B0D1B057D
:10301000C5F313052B43A362636A23F00F0302F089
:103020000F021A436262236823F003032360002027
:1030300000E0022002B070BD0220FBE7A36A1B0D76
:103040001B05C5F313051D43A562636A23F00F0337
:1030500002F00F021A4362620020EBE7EC06000068
:10306000040700006805FF1F2DE9F04383B0074601
:103070000D4616466E4B53F8204001A96D4B185C67
:10308000FEF79AFF6B1E05F13F0E4FF0000C03F8A0
:1030900001CF7345FBD1684B43F82750236823F0D9
:1030A000020343F001032360A368C3F30333012B3E
:1030B000FAD1236943F00103236131683846FFF7F1
:1030C00057FF814618B1484603B0BDE8F083F37955
:1030D0002269590001F0020122F082020A439B0199
:1030E00003F0800313432361226922F46042F379E1
:1030F0001B0303F4604313432361226922F4E0526B
:10310000F3795B0203F4E05313432361F37985F809
:1031100034303379002B6FD1236923F0040323610A
:10312000226922F4C022B3795B0403F4C023134361
:103130002361D4F88C2022F00202B3795B0003F003
:1031400002031343C4F88C30337A002B66D1236911
:1031500043F480732361737A002B64D1236943F4B1
:1031600000732361236823F0030323604FF00008FA
:10317000A5F83C80A5F83E80337A85F83730737A1D
:1031800085F83830B37A85F83930F37A85F83A30F3
:10319000C5F81C80C5F82480C5F82C80C5F82080AF
:1031A000C5F82880C5F83080414605F1350000F0AB
:1031B00092FF414605F1360000F08DFF1F4B33F9B9
:1031C000175042461E4B53F827102846FFF7D0FAF7
:1031D0002846FFF7DDFAFFF7F7FA636843F48073D8
:1031E0006360FFF7E3FAFFF7EFFA636843F08003E9
:1031F0006360FFF7DBFA66E7236943F004032361AA
:1032000073792269D90001F0080122F048020A43CB
:103210005B0103F040031343236181E7236923F437
:103220008073236197E7236923F40073236199E78F
:10323000EC060000040700006805FF1F0C070000F3
:1032400018070000F8B5224B53F820502B7C13B11F
:1032500002263046F8BD06461E4B53F82040296032
:10326000AA6001232B740227AF87FFF7ADFA236909
:1032700043F010032361FFF799FA67613046FFF7C7
:1032800065FD07E06369626902F4807203F0800300
:1032900013431BD1AB6843B1636913F0020FF1D044
:1032A00067613046FFF752FDECE70026636913F0D3
:1032B000020FFBD0FFF788FA236923F01003236184
:1032C000FFF774FA00232B74AE87C2E70126EDE7FF
:1032D0006805FF1FEC06000070B5184B53F820502E
:1032E0006B7C03B970BD0446154B53F82060FFF7A3
:1032F00061FDEB682BB9EB691BB12A6A00212846F6
:103300009847EB6853B12B7D012B04BF02232B752B
:10331000042373614FF400737361E3E72046FFF702
:10332000ABFD2B7D032B04BF04232B75EB69002B16
:10333000EED02A6A022128469847E9E76805FF1F70
:10334000EC06000070B5124B53F820502B7C6BB18B
:103350000446104B53F82060AB6843B96B6A1BB14D
:10336000AA6A012128469847AB682BB170BD022399
:103370007361FFF7EBFCF9E72046FFF751FD6B6A3D
:103380001BB1AA6A02212846984702237361EDE720
:103390006805FF1FEC06000010B5174B53F82030EE
:1033A000164A52F820405A6912F0800F12D040F2AB
:1033B0000162E28780225A6194F83830012B17D0DD
:1033C0000021FFF785FDE36A1BB1226B0321204634
:1033D000984710BD5A6912F4807F06D040F203620C
:1033E000E2874FF480725A61E6E70123E387E3E75F
:1033F000FFF742FDE7E700BFEC0600006805FF1F8E
:1034000070B50446314B53F820506B696A6902F479
:10341000807203F08003134302D0FFF7BDFF70BD3D
:103420006B6813F0040F03D06B6913F0040F23D102
:103430006B6813F0020F03D06B6913F0020F1ED1FB
:10344000234B53F82460337D032B1CD0042B32D044
:10345000022BE4D103233375B369C3F30B03C5F81F
:10346000903008236B61FFF7AFF96B6843F00803F6
:103470006B60FFF79BF9D2E7FFF72EFFD8E72046F6
:10348000FFF760FFDCE76B6913F0080FC7D0F36943
:103490001BB1326A0421304698472046FFF7ECFC06
:1034A00001233375FFF790F96B6823F008036B6015
:1034B000FFF77CF9B3E701233375FFF785F96B68F4
:1034C00023F008036B60FFF771F9A8E7EC06000032
:1034D0006805FF1F08B50020FFF792FF08BD08B57B
:1034E0000120FFF78DFF08BD08B50220FFF788FF18
:1034F00008BD08B50320FFF783FF08BD08B5042009
:10350000FFF77EFF08BD08B50520FFF779FF08BD6E
:103510002DE9F0419DF818C09DF81CE09DF8207041
:10352000324C246814F0010F5DD1314C24682578A9
:103530000DB1022058E0012525702C4D6E6826F44F
:10354000704626F0F2066E60D5F804807E0006F024
:10355000020646EA08064FEA0E381FFA88F846EADD
:1035600008064FEA0C185FFA88F846EA08066E600B
:103570006E6846F480266E606E6846F040466E6067
:103580006E6826F040466E6041EA0242EA6084F8C6
:103590003E700022A161E26121626262A162E26288
:1035A000206163610EF101030CF1FF329200934040
:1035B000A4F84030BCF1030F0CD00C4A536923F03F
:1035C0001F135361536943F4802343F00303536192
:1035D000002009E0BEF1010F0CBF202230220023A1
:1035E000C4E90A23E9E70220BDE8F0810070064043
:1035F0008005FF1F3D4BDB6913F4804F1ED03C4B11
:103600001B683A495A69CAB1D1F8B4001060D1F8C0
:10361000B4005060D1F8B4009060D1F8B400D0602C
:103620005A6910325A619A6AD86A103A40F1FF30EA
:103630009A62D862CA6912F4804FE3D12B4BDB69DE
:1036400013F0010F28D0294BDB6913F4804F1ED0F3
:10365000274B1B6825495A69CAB1D1F8B4001060DC
:10366000D1F8B4005060D1F8B4009060D1F8B40043
:10367000D0605A6910325A619A6AD86A103A40F199
:10368000FF309A62D862CA6912F4804FE3D1174BB7
:103690000122DA6100207047144BDB6913F4004FFC
:1036A0001FD0134B1B68196A5A6A0A431BD0196949
:1036B00008680E4AC2F8B0004868C2F8B0008868CE
:1036C000C2F8B000C968C2F8B0101A6910321A61A5
:1036D0001A6A596A103A41F1FF311A62596202209E
:1036E0007047022070470220704700BF00700640FC
:1036F0008005FF1F10B584B02B4B1A6882F830008C
:1037000082F83110536903B38C4601210391926A08
:10371000120902921022019202220092234A0021F1
:103720006046FFF751F9204C236893F831000246B8
:103730001F49FFF751F8236893F83100FFF782F92A
:103740001C4A536843F000535360174B1B681A69B7
:103750003AB393F83000002103911B6A1B090293CE
:103760001023019302230093134B0121FFF72CF93F
:103770000D4C23689969494293F83000FFF77AF9B4
:10378000236893F8300002460949FFF725F82368BB
:1037900093F83000FFF756F9064A536843F0805318
:1037A0005360002004B010BD8005FF1FB4700640B8
:1037B0007D38000000700640B070064030B585B01E
:1037C0002C4B1C6894F83E30012B0AD02A4BDB6945
:1037D00013F0020F0CBF4FF431600020A08705B03A
:1037E00030BDEE464FF0000C234D714600230CF126
:1037F0001C0055F82020DA4001F8012B0833202B5B
:10380000F7D10CF1010C0EF1040EBCF1040FECD158
:10381000B4F84030042B03D0052B16D00020DEE78F
:10382000636B0022002BF9D0187DD1B28842F5D904
:10383000D1B21B6901F11000684410F8100C585403
:10384000636B0132002BEFD1E8E7A36B0022002B62
:10385000E4D01879D1B28842E0D9D1B21B6801F125
:103860001000684410F8100C5854A36B0132002B60
:10387000EFD1D3E78005FF1F0070064008B501298E
:1038800028D01C4B1B6893F8302090422CD01A4A49
:10389000516821F080515160516821F00051516010
:1038A00000200021C3E90A0100221A70B3F8402069
:1038B00022F4807292B2B2F5007F14D00E4A012138
:1038C000D161B3F84020042A0DD15B785BB1FFF7DA
:1038D00075FF08E0084B5A6822F080525A605A6817
:1038E00022F080525A6008BD00200021C3E908017F
:1038F000F9E700BF8005FF1F00700640044A5368C7
:1039000023F00C03800000F00C0018435060704757
:103910000070064038B50C46154B196000250D7037
:103920008D704D704D608D600D614D6100220023E2
:10393000C1E90623C1E90823C1E90A234D638D6368
:103940008D87437881F83F30837881F83030C378B1
:1039500081F831300078FFF7D1FF294604F10C00DF
:1039600000F0B9FB012814BF0020012038BD00BFC2
:103970008005FF1F012925D0022926D011B140F66C
:10398000013070474FF0040C134B1B681B78FBB9D8
:1039900030B40438114D50F8044F03F1080245F8D3
:1039A000224001336345F6D10C4B5A6822F4407231
:1039B0005A605A68090201F44071114359600020AD
:1039C00030BC70474FF0060CDEE74FF0080CDBE729
:1039D00040F60230704700BF8005FF1F00700640B0
:1039E00030B585B013460124029400220192009460
:1039F000FFF78EFD0446B0B9154B1A6892F83F30B8
:103A0000012B13D0022B1CD0124B01221A60104B39
:103A10001D6895F83F3033B9FFF7ECFD04460228E6
:103A2000FAD000232B70204605B030BD094A9369B7
:103A300043F4404343F0010393619D20FEF7A8FE49
:103A4000E2E792F8311092F83000FFF753FEDBE71F
:103A50008005FF1F0070064010B5674BDA699B694F
:103A600012F4004F24D013F4004F21D0634B1B6895
:103A7000196A5A6A0A4300F08480196908685E4A24
:103A8000C2F8B0004868C2F8B0008868C2F8B00058
:103A9000C968C2F8B0101A6910321A611A6A596AF4
:103AA000103A41F1FF311A62596252EA010368D0BB
:103AB000514BDA699B6912F4804F23D013F4804F85
:103AC00020D04E4B1B68996ADA6A0A436AD05A6959
:103AD000C2B14949D1F8B4001060D1F8B4005060C7
:103AE000D1F8B4009060D1F8B410D1605A691032A6
:103AF0005A619A6AD96A103A41F1FF319A62D962E1
:103B00000A434FD03C4BDA699B6912F0010F62D037
:103B100013F0010F5FD0384B0122DA619A6922F06D
:103B200001029A619A6922F400429A61334B1C683F
:103B3000B4F84030052B43D0042B56D023F48073C7
:103B40009BB2B3F5007F46D12B4A536823F08053D4
:103B5000536063787BB194F83E303BB9D36913F07E
:103B6000040F14BF4FF432630023A387636813B1BB
:103B7000A168A08F9847214B1B685A695ABB1A70DD
:103B800029E01D4B9A6922F400429A610022C3F891
:103B9000B020C3F8B020C3F8B020C3F8B020C3F8F9
:103BA000B02085E700221A7013498A6922F4804206
:103BB0008A615A68002AA5D0996800209047A1E739
:103BC0000D4A536823F080535360637823B90B4B3D
:103BD0001B6800221A7010BDFFF7F0FD6368002B10
:103BE000F5D0A168A08F9847F1E76378002BF2D059
:103BF000FFF7E4FDEFE700BF007006408005FF1F00
:103C000008B5FFF729FF08BD0B4B98420ED9A0F568
:103C10008012A3F540239A420BD900F17040074B64
:103C2000984294BF4FF48060002070474FF40060CA
:103C300070474FF480607047FEFF0F00FE030401E1
:103C4000C268036903EB4202436903EB42028369E2
:103C500003EB4203C06900EB4300704708B5104610
:103C6000931EDBB2022B9CBF00230B724B6803B187
:103C7000984708BD424B5B6813F0010F00D17047B5
:103C800030B585B03F4B1C683D4B01225A6023780C
:103C900063B93B4B5B6813F04C0F14BF0422022244
:103CA00021463748FFF7DAFF05B030BDE56A204608
:103CB000FFF7C6FF85421AD1314B5B6813F04C0FFA
:103CC0001BD1E368132B32D8112B45D8032B1AD9FB
:103CD000103B012B19D825692846FFF795FFE369AA
:103CE0001B1AE36120F00300284420610DE0042248
:103CF00021462348FFF7B2FFD6E704222146204899
:103D0000FFF7ACFFD0E7012B29D8E369002B30DDAA
:103D10002046FFF795FFE062002001F0B5FA002889
:103D2000C2D0042221461648FFF798FFBCE7402B7B
:103D3000EBD1E369083BE36101AB6361636A08337C
:103D40006362A36A03F10802A262626A01929A683E
:103D50000292DB680393D8E70023E361D5E7E369C8
:103D6000083BE361236908332361636908336361B6
:103D7000CBE7022221460248FFF770FF94E700BF1D
:103D8000000001408405FF1F08B5074B5B6813F076
:103D9000080F00D108BD054B19680348082343608C
:103DA0000322FFF75BFFF5E7000001408405FF1FDA
:103DB000024A136843F0010313607047000001409A
:103DC000024A136843F00803136070470000014083
:103DD000184B5B6813F0800F29D010B50446154BC3
:103DE0004C20586001205860134840F8242008787F
:103DF00010704868506048785070002010720F486A
:103E000018610F4858618B78937013780BB90020B4
:103E100010BD2046FFF7CCFF1220FEF7B9FC20466C
:103E2000FFF7CEFF1320FEF7B3FC0020F0E740F6CB
:103E300003107047000001408405FF1F13000600B7
:103E400070946C0738B505461B4B53F820401B4B4C
:103E500019604122E2601A4A226163610123A36171
:103E60002378ABB1174B5B6813F0800F20D0237A17
:103E700013B140F6031012E0012323720023E36123
:103E80002046FFF7DDFEE062284601F0FDF906E07E
:103E90000C4B5B6813F0800F02D140F6031038BD65
:103EA0002046FFF7CDFEE062284601F0EDF9F6E787
:103EB00040F60310F3E700BF8405FF1F0807FF1F4C
:103EC0001800014000000140F0B585B007462A48BF
:103ED00050F827404020E0602848206101A8606138
:103EE0000320A061E2616162A3622278C2B1244A28
:103EF000526812F0800F39D0227A002A39D101227B
:103F00002272626A01921A6802925B6803932046E9
:103F1000FFF796FEE062384601F0B6F905B0F0BD55
:103F20000020174E40F60315E369002BF6DD00284C
:103F3000F4D17368284613F0800FF5D0636A0193BB
:103F4000A36A1A6802925B6803932046FFF778FE23
:103F5000E062384601F098F9E369083BE361636A7F
:103F600008336362A36A0833A362DDE740F60310F7
:103F7000D4E740F60310D1E78405FF1F1800014085
:103F8000000001402DE9F04111F01F0F36D1044629
:103F90001C4B5B6813F0800F02D140F603142EE037
:103FA000194B53F820502E782023EB60154F3B68B7
:103FB00023F0F8533B603B68C90401F0F851194302
:103FC00039604FF00008C5F81880FEF7FDFB85F852
:103FD00000803B6823F001033B602846FFF730FE7A
:103FE000E862204601F050F904462E701EB13B688D
:103FF00043F001033B60FEF7D9FB00E001242046BB
:10400000BDE8F081000001408405FF1F82B01F4A17
:10401000136843F0802313601D4B93E8030002AB49
:1040200003E903001B4BD3F8C02022F0FF0242F04B
:10403000AA02C3F8C0200022C3F898204FF0E02263
:104040000099C2F89C1D0199C2F8A01DBFF35F8FB3
:104050000522C3F894205A6A42F480325A62BFF3B0
:104060004F8FBFF36F8F0C4A136843F00403136044
:104070000A4B4BF231621A604CF278221A605A688D
:1040800022F001025A6002B0704700BF00000140F8
:104090000004000000ED00E000B0074000A0064072
:1040A000024A136801331360704700BF8805FF1F81
:1040B00010B50446FEF788FB2378DBB2FF2B08D04F
:1040C00023780133DBB223700024FEF76FFB204618
:1040D00010BD0124F9E738B504460D46FEF774FB20
:1040E0002570FEF763FB002038BD70472DE9F04FC7
:1040F00083B006460F4601929846DDF83090DDF811
:1041000038A00F9B13F0030F14D10D9B534528BF0C
:10411000154610D20D9BAAEB0305019C25444FF0D8
:10412000200B22460134434639465846B047AC423C
:10413000F7D100E0019D0D9B7BB10D9B09EB030BBB
:104140005C46AB44ABEB04024346394614F8010D20
:10415000B0474C45F6D10D9B1D440F9B13F0020F49
:104160000ED0019BEC1AA2450AD94FF020092A462D
:104170004346013539464846B04701345445F6D3E5
:10418000284603B0BDE8F08F2DE9F04385B0DDF897
:1041900030E00D9C9DF83880109F119D129E16F006
:1041A000020F38D17DB116F0010F00F08A80B8F10E
:1041B000000F02D116F00C0F00D0013DBC4215D209
:1041C0001F2C04D912E0BC420DD21F2C0BD804F1D5
:1041D000FF3CF4444FF0300901340CF8019FA74232
:1041E00001D9202CF8D116F0010F14D0A54212D914
:1041F0001F2C0BD804F1FF3CF4444FF0300901347C
:104200000CF8019FAC4205D0202CF8D116F0100F0D
:1042100004D120E02C4616F0100F13D016F4806F56
:1042200004D11CB1A74220D0AC421ED00F9F102F4A
:1042300024D00F9F022F2DD01F2C0CD830270EF822
:10424000047001341F2C06D8B8F1000F29D02D2797
:104250000EF804700134039602950194CDF800E045
:10426000FFF744FF05B0BDE8F083B4F1010C0FD0B7
:104270000F9F102F01D06446DBE7023C16F0200FA1
:1042800024D11F2CD8D878270EF804700134D3E736
:104290006446CBE71F2CDED862270EF80470013489
:1042A000CAE716F0040F04D02B270EF8047001346F
:1042B000D1E716F0080FCED020270EF80470013495
:1042C000C9E7BC42A7D21F2C81D9A4E71F2CC2D8B2
:1042D00058270EF804700134AEE72DE9F04190B094
:1042E000169C189DDDF86C802CB928F0100618F487
:1042F000806F34D1B04618F0200F14BF41276127DA
:104300000DF1200E00260A3F00E06446B4FBF5FCE8
:1043100005FB1C4C5FFA8CFCBCF1090F94BF0CF13F
:10432000300CBC445FFA8CFC01360EF801CBB4FBB8
:10433000F5FCAC4201D3202EE7D1CDF818801A9CB1
:104340000594199C049403959DF85C400294019691
:1043500008AC0094FFF718FF10B0BDE8F081B0463C
:104360002646EAE72DE9F04F95B0089009910A92A8
:104370000B931E9C1F9D229EDDF88C80DDF898B06B
:1043800054EA050305D12BF010031BF4806F40D1D4
:104390009B461BF0200F14BF4FF0410A4FF0610AFB
:1043A0000DF130090027AAF10A0A01E004460D4682
:1043B0003246434620462946FDF770F9D2B2092A13
:1043C00094BF30325244D2B2013709F8012B324641
:1043D000434620462946FDF761F9B44275EB0803D0
:1043E00001D3202FE2D1CDF818B0259B0593249B53
:1043F000049303969DF88030029301970CAB0093D1
:104400000B9B0A9A09990898FFF7BEFE15B0BDE804
:10441000F08F9B460027E6E72DE9F04F91B0044668
:104420000D460B921E461A9F0797DDF86C80CDF85B
:1044300020803A46434638464146FCF737FE00287E
:1044400000F0A7814FF0FF32A34B38464146FCF7FE
:1044500055FE002840F09D814FF0FF326FF480132D
:1044600038464146FCF72CFE002840F0928100229D
:104470000023079F3846DDF820804146FCF720FEE8
:10448000002840F09B81079A089B09920A931E9B83
:1044900013F480630F931C9B08BF06231C93DDF865
:1044A00024A00A9FC7F30A50A0F2FF30FCF72CFBB0
:1044B00079A3D3E90023FCF791FB79A3D3E9002387
:1044C000FCF7D6F980468946C7F31307504647F0F4
:1044D0007F5141F440110022804BFCF7C7F972A3D1
:1044E000D3E90023FCF77AFB02460B4640464946D7
:1044F000FCF7BEF9FCF70CFE0E90FCF705FB8046BE
:1045000089466BA3D3E90023FCF768FB0022744BB8
:10451000FCF7AEF9FCF7FCFD074667A3D3E90023DF
:1045200040464946FCF75AFB804689463846FCF728
:10453000EBFA63A3D3E90023FCF750FB02460B46DA
:1045400040464946FCF792F982468B4602460B46A6
:10455000FCF744FB8046894652465B465046594626
:10456000FCF786F9CDE90C0100225E4B4046494636
:10457000FCF75EFC00225C4BFCF77AF902460B4626
:1045800040464946FCF754FC0022584BFCF770F9B2
:1045900002460B4640464946FCF74AFC804689469F
:1045A00052465B4600204FF08041FCF75FF902461F
:1045B0000B4640464946FCF75BF902460B46DDE9EF
:1045C0000C01FCF735FC0022494BFCF751F907F2CE
:1045D000FF3700223B05FCF701FB80468946099A1C
:1045E0000A9BFCF78BFD002840F0ED80C246CB46CD
:1045F000DDF8388008F16303C72B34BF0427052793
:104600001E9B13F4006F24D02FA3D3E90023099835
:10461000DDF828904946FCF767FD002800F0DF80B0
:104620002BA3D3E9002309984946FCF749FD00284C
:1046300000F0D5801C9B4345C3BF4246981A00F149
:10464000FF3300231C931E9B43F480631E930027BB
:104650000E971D9B9F4234BFA3EB07084FF0000845
:104660001E9B13F0020903D0002F18BF4FF0000863
:104670000E9B3BB152465B4609980A99FCF7D8FB62
:1046800009900A910022002307980899FCF718FD69
:10469000002840F0B0802DE0FB799F501344D33FB9
:1046A000B3C8608B288AC63F61436F63A787D23F38
:1046B00071A379094F930A401655B5BBB16B0240FF
:1046C000EF39FAFE422EE63F2D431CEBE2361A3F4D
:1046D0000000000080842E41FFFFEF7F0000F83FC4
:1046E0000000E03F00002C40000024400000184083
:1046F0000000F03F1E9B23F400630493CDF80C8070
:104700001C9B0293099A0A9BCDE900233346DDF8EE
:104710002CB05A462946204600F076F88046002FF5
:1047200048D01E9B13F0200F00F1010A33460246C9
:10473000294614BF45206520A04705230593013F66
:104740000497002303930A2302930E99CB0F01933E
:104750000029B8BF494200913346524629462046B7
:10476000FFF7BBFD8046B9F1000F23D0A0EB0B078C
:104770001D9BBB421ED94FF020099A464246334644
:1047800008F1010829464846A04701375745F5D3A7
:1047900010E01E9B04931D9B03931C9B0293079A9E
:1047A000089BCDE9002333460B9A2946204600F0AA
:1047B0002BF88046404611B0BDE8F08F099708F10C
:1047C00000430A9363E60E9B013B0E9300220C4BC1
:1047D00040464946FCF72CFB82468B4608E71C9B6B
:1047E000002B3FF436AF0F9B002B3FF432AF1C9BE6
:1047F000013B1C932DE70A9901F100430A9379E7E5
:1048000000002440000000002DE9F04F97B0079011
:104810000C9192469B46DDE9208942464B46404634
:104820004946FCF743FC002849D04FF0FF326FF4B3
:10483000801340464946FCF743FC00284ED14FF018
:10484000FF32B34B40464946FCF758FC002854D190
:10485000ABA3D3E9002340464946FCF74FFC0028B0
:1048600063D1A9A3D3E9002340464946FCF728FCBD
:1048700000285AD10022002340464946FCF720FC7C
:10488000002861D100230D93249B13F4806569D027
:10489000229B092B63D930238DF83830229B5E1E72
:1048A0000EAAA3F1090501233021AB425BD00133ED
:1048B00002F8011F013E202BF7D11D4653E0249B37
:1048C0000393239B029303230193924B00935B4634
:1048D00052460C990798FFF709FC5BE1249B039370
:1048E000239B0293042301938B4B00935B46524618
:1048F0000C990798FFF7FAFB4CE1249B13F0040294
:10490000864B874908BF0B46002A14BF04220322A6
:104910002499039123990291019200935B46524698
:104920000C990798FFF7E2FB34E1249B0493239B47
:104930000393229B0293CDE900895B4652460C9972
:104940000798FFF769FD25E142464B46002000210C
:10495000FBF78CFF8046894601230D9394E71E46A2
:10496000002500E0062640464946FCF7D1FB0446F8
:104970006C4B03EBC603D3E90023CDE90823FCF716
:10498000C3F802460B4640464946FBF76FFFDDE998
:104990000823FCF723F902460B46CDE90A23FCF76E
:1049A000DFFB0746FCF7A0F802460B46DDE90A01EB
:1049B000FBF75CFF02460B46CDE90A2300225A4B67
:1049C000FCF79CFB50B301373846FCF78DF80246E4
:1049D0000B46DDE90801FCF77DFB08B10134002737
:1049E000002E6FD12046FCF78FF802460B4640465A
:1049F0004946FBF73BFF06460F4600224A4BFCF7B1
:104A00005FFB30B10022484B30463946FCF776FB5D
:104A100060B314F0010F29D0013427E00022424B8B
:104A2000DDE90A01FCF74CFB0028D9D117B117F0DA
:104A3000010FD5D00137D3E71F2900F2AE80BCF1BA
:104A4000000F3DD00EAB5A190D463020013502F84B
:104A5000010F202D0AD0EB430B44F342F6D105F1B0
:104A600058036B442E2203F8202C013505F158031E
:104A70000DEB0302213A2D491F2D79D8013581FB19
:104A80000430E317C3EBA00303EB8300A4EB400463
:104A9000303402F8014F1C46002BEDD1249B03F06B
:104AA0000303012B46D01F2D67D80D9B002B47D049
:104AB00005F158036B442D2203F8202C01355CE0EE
:104AC0000D46CCE705F158030DEB03002138DFF864
:104AD00060E01F2DCAD806F1FF3C691CAEFB07320F
:104AE000D20802EB8203A7EB4303303300F8013F07
:104AF000092FA1D9664617460D46EAE7AFF30080B5
:104B00000000000065CDCD410000000065CDCDC1A5
:104B1000FFFFEF7F3C070000400700003007000068
:104B200038070000480700000000E03F676666663F
:104B3000CDCCCCCC239B002BB5D033E0239DB2E76A
:104B4000249B13F0040F07D005F158036B442B226C
:104B500003F8202C013510E0249B13F0080F0CD033
:104B600005F158036B44202203F8202C013504E0A2
:104B7000249B03F00303012B11D0249B0393239B5D
:104B8000029301950EAB00935B4652460C99079831
:104B9000FFF7ACFA17B0BDE8F08F0D4666E7239B30
:104BA000002BEAD00D9B1BB9249B13F00C0F02D0F5
:104BB000239B013B2393239BAB427FF674AF1F2DB6
:104BC000DBD805F158036B44213B30222399013592
:104BD00003F8012F8D42B1D0202DF8D1CDE700BFD1
:104BE00000B9704708B5FDF7A7F808BD2DE9F04FEB
:104BF00091B017461C46DDF86880B1F10009804B82
:104C000014BF82469A462078002800F0CE824FF0EA
:104C1000000B2EE1621C4FF0000C144612F8013B11
:104C2000A3F1200110290AD8DFE801F02E0909318B
:104C3000090909090909092B092809092500A3F10E
:104C40003002D2B2092A25D92A2B31D00025237867
:104C50002E2B36D000262378683B122B5DD8DFE858
:104C600003F0B85CC65C535C5C5C5C5C5C5CC25C26
:104C70005C5C5C5CCA004CF0010CCEE74CF0020CB2
:104C8000CBE74CF0040CC8E74CF0080CC5E74CF03F
:104C9000100CC2E7002505EB850503EB4505303D0B
:104CA00014F8013FA3F13002D2B2092AF3D9CEE7BA
:104CB00058F8045B002DBCBF4CF0020C6D4201346F
:104CC000C5E74CF4806C611C6378A3F13002D2B26A
:104CD000092A04D92A2B11D00C460026BBE700264E
:104CE00006EB860603EB4606303E11F8013FA3F1C2
:104CF0003002D2B2092AF3D90C46ACE758F8046B5B
:104D000026EAE6760234A6E763786C2B19BF4CF4EA
:104D1000807C01344CF4407C02342078A0F12503DF
:104D2000532B00F23982DFE813F02D0237023702ED
:104D300037023702370237023702370237023702AB
:104D4000370237023702370237023702370237029B
:104D5000370237023702370237023702370237028B
:104D6000370237023702370237024001270140017C
:104D7000370237023702370237023702370237026B
:104D8000370237023702370237023702370237025B
:104D90006D00370237023702370237023702370217
:104DA000370237026D0064016D00400127014001A8
:104DB00037026D00370237023702370237026D00C3
:104DC0001702370237029F0137026D0037023702A0
:104DD0006D006378682B19BF4CF0800C01344CF0E7
:104DE000C00C023499E74CF4807C013495E74CF414
:104DF000007C013491E74CF4807C01348DE700BFE6
:104E0000EB400000782800F02182582800F0DC8177
:104E10006F2800F01D82622800F01C822CF0100325
:104E2000692832D11CF4806F40F00C820A2213F4FE
:104E3000007F35D113F4807F54D113F0400F65D03B
:104E400058F8041BC9B20593049503960292CB0F40
:104E500001930029B8BF494200913B465A46494652
:104E60005046FFF73AFA834601342078002800F0D4
:104E70009E8125283FF4CEAE0BF101053B465A46F4
:104E80004946D0470134AB46EFE7642805D11CF40E
:104E9000806F40F0D3810A22C9E79C460A2296E13E
:104EA00008F1070020F00700804658F8081B40680A
:104EB000089307950696049200230593C30F029367
:104EC0000246002809DB009101923B465A464946BA
:104ED0005046FFF747FA8346C6E74B42194660EB58
:104EE0004002F0E758F8041B0593049503960292DC
:104EF000CB0F01930029B8BF494200913B465A4667
:104F000049465046FFF7E9F98346ADE713F0800FB5
:104F100058F8041B18BF09B295E708F1070828F0F4
:104F200007080893079506960023049205930293B9
:104F3000F8E80223CDE900233B465A46494650464D
:104F4000FFF710FA83468FE70593049503960292C4
:104F50000023019358F8043B00933B465A464946C8
:104F60005046FFF7BAF983467EE713F0800F58F8F2
:104F7000041B18BF89B246E1462808BF4CF0200C3C
:104F800008F1070828F00708CDF810C0039502962D
:104F9000F8E80223CDE900233B465A4649465046ED
:104FA000FFF732FC834601345FE700F0DF03472B55
:104FB00002D0452808D105E04CF4006C00F0FD005B
:104FC000452801D14CF0200C08F1070828F007080B
:104FD000CDF810C003950296F8E80223CDE900232E
:104FE0003B465A4649465046FFF716FA8346013477
:104FF0003BE71CF0020F1CD043460BF1010653F8AF
:10500000040B0B933B465A464946C0B2D047012D8C
:1050100088BF05EB0B0840F20581324601363B465E
:1050200049462020D047B045F7D1AB44DDF82C806D
:1050300018E0012D40F2FA800BF1FF331D442026C9
:105040005A460BF1010B3B4649463046D0475D4579
:10505000F6D105F1010B58F8040B3B462A464946A8
:10506000C0B2D047013400E7434653F8048B0C9399
:10507000002E14BF31464FF0FF3198F80000002891
:1050800000F0DA80434613F8012F1AB1A8EB0302AF
:10509000CA42F8D1A3EB08030B931CF480620D9273
:1050A00003D0B34228BF33460B931CF002030E9388
:1050B00006D0002800F0BC805A460F950D9D29E0CF
:1050C0000B9A531C954240F2B58005EB0B039B1ADB
:1050D0000F93CDF82C8098465A460BF1010B3B46B6
:1050E00049462020D047C345F6D1DDF82C806B1C03
:1050F0000B93DDF83CB098F800000028DCD114E0F8
:105100001E4602F1010B3B464946D04718F8010FF5
:1051100040B15A46002DF4D0731E002EF0D10F9DE1
:10512000934600E00F9D0E9B1BB90134DDF83080E3
:105130009BE65E460B9B9D420CD93544A5EB030BC9
:105140002025324601363B4649462846D047B345DE
:10515000F7D1EAE7B346E8E74CF0210305930823CB
:1051600004930396102302930023019358F8043B01
:1051700000933B465A4649465046FFF7AEF88346F1
:10518000013472E60BF101053B465A46494625209B
:10519000D0470134AB4668E60BF101053B465A4661
:1051A0004946D0470134AB465FE64FF0000B5F4500
:1051B00094BF07F1FF325A463B4649460020D0478C
:1051C000584611B0BDE8F08F4CF0200C10222CF0A6
:1051D0000C031CF4806F07D02CF00D0369283FF4FA
:1051E00026AE64283FF423AE13F4007F7FF495AE1F
:1051F00013F4807F7FF4A8AE13F0400F3FF4B5AEF8
:1052000058F8041BC9B20593049503960292002333
:10521000019300913B465A4649465046FFF75DF8D8
:10522000834621E6DDF82C80B3461BE75D4610E798
:105230005E467FE70B935EE743462BE72CF01103B6
:105240000A22F4E52CF011030A22F0E51022BEE751
:105250000822BCE70222BAE70FB400B585B006AA5F
:1052600052F8043B039200924FF0FF3202A9044827
:10527000FFF7BCFC05B05DF804EB04B0704700BF5D
:10528000E14B00000000000001B40248844601BC6C
:08529000604700BF9105FF1FFC
:0852980034C4FF7F0100000097
:1052A00038B5494B53F82040E368102B0AD0E56A23
:1052B000204600F091F8A84214D02378002B70D13A
:1052C000062038BD2369C3F3090333B9E369C3F387
:1052D000090313B9E369002BE9DCE36A204600F017
:1052E0007BF8EAE7EFF3108572B6384B00229A603C
:1052F0004F225A60BFF35F8F354B5A6A22F48032D7
:105300005A62D3F8942022F00102C3F89420BFF32C
:105310004F8FBFF36F8FA36953B100236169226977
:1053200051F8231042F823100133A2699A42F5D8AC
:10533000BFF35F8F264B0522C3F894205A6A42F4CC
:1053400080325A62BFF34F8FBFF36F8F1F4B214ADA
:10535000C3F80022E368FE2B1FD0E368DBB21B4AD0
:105360009360637823BB85F31088237843B9174B88
:105370005A6812F0010F03D15A6812F0080FF7D0E3
:10538000124B5B6813F04C0F14BF012000206378B0
:10539000002B96D085F3108893E70C4B10229A606F
:1053A000DFE704222146094800F01EF8062088E7BE
:1053B0002378002BDBD0054B5B6813F04C0F14BF38
:1053C00001200020E6E700BF8405FF1F0000014028
:1053D00000ED00E0F57395FD01B40248844601BC80
:1053E000604700BF413C000001B40248844601BC54
:0853F000604700BF5D3C0000B6
:1053F80003000000F806FF1FCC050000AC05000004
:10540800000100000B01000032010000E806FF1F48
:0854180078563412006CDC022E
:040000030000079959
:00000001FF
